:020000040800F2
:10000000D8120020E1010008E9010008EB01000816
:10001000ED010008EF010008F101000800000000F8
:10002000000000000000000000000000F3010008D4
:10003000F501000800000000F70100081F24000877
:10004000FB010008FB010008FB010008FB010008A0
:10005000FB010008FB010008FB010008FB01000890
:10006000FB010008FB010008FB010008FB01000880
:10007000FB010008FB010008FB010008FB01000870
:10008000FB010008FB010008FB010008FB01000860
:10009000FB010008FB010008FB010008FB01000850
:1000A000FB010008FB010008FB010008FB01000840
:1000B000FB010008FB010008FB010008FB01000830
:1000C000FB010008FB010008FB010008FB01000820
:1000D000FB0100081F0F0008FB010008FB010008DE
:1000E000FB010008FB010008FB01000800F002F81A
:1000F00000F05EF80AA090E8000C82448344AAF164
:100100000107DA4501D100F053F8AFF2090EBAE861
:100110000F0013F0010F18BFFB1A43F0010318473B
:1001200058750000787500000A444FF0000C10F874
:10013000013B13F0070408BF10F8014B1D1108BF65
:1001400010F8015B641E05D010F8016B641E01F805
:10015000016BF9D113F0080F1EBF10F8014BAD1C55
:100160000C1B09D16D1E58BF01F801CBFAD505E073
:1001700014F8016B01F8016B6D1EF9D59142D6D3CD
:10018000704700000023002400250026103A28BFF5
:1001900078C1FBD8520728BF30C148BF0B607047F9
:1001A0001FB59DE8030006F0A9FD1FBD10B510BDE9
:1001B00006F000FE1146FFF7F3FF00F0BBFD06F06E
:1001C0001EFE03B4FFF7F2FF03BC06F04FFE000073
:1001D000EFF3108072B6704780F31088704700000C
:1001E0000948804709480047FEE7FEE7FEE7FEE7CB
:1001F000FEE7FEE7FEE7FEE7FEE7FEE70448054907
:10020000054A064B70470000FF020008ED00000899
:10021000D80C0020D8120020D80E0020D80E0020C4
:100220000CB50020019000906D48006840F48030CB
:100230006B49086000BF6A48006800F40030009015
:100240000198401C0190009818B90198B0F5A06F72
:10025000F1D16348006800F4003010B10120009033
:1002600001E0002000900098012843D15D4800681B
:1002700040F010005B4908600846006820F0030069
:1002800008600846006840F0020008605448406872
:10029000534948600846406848600846406840F452
:1002A000806048600846406820F47C10486008463A
:1002B000406840F4E81048600846006840F08070EC
:1002C000086000BF4648006800F000700028F9D0C0
:1002D0004348406820F003004149486008464068B0
:1002E00040F00200486000BF3D48406800F00C004C
:1002F0000828F9D10CBD10B5FFF792FF10BD10B55D
:100300003748006840F001003549086008464068F9
:10031000354908403249486008460068334908407A
:100320002F4908600846006820F4802008600846CD
:10033000406820F4FE0048604FF41F008860FFF71B
:10034000DAFF4FF000602A4908602A48091D08605A
:1003500010BD10B5002100200022214B5B6803F086
:100360000C0121B1042906D0082928D107E0224B2D
:10037000224C236027E0204B204C236023E0184BC5
:100380005B6803F47010164B5B6803F48032022341
:1003900003EB904022B91A4B4343184C23600DE005
:1003A0000F4B5B6803F4003323B1154B4343134CED
:1003B000236003E0104B4343104C236003E00E4BDB
:1003C0000E4C236000BF00BF054B5B68C3F30313F3
:1003D0000C4CE15C094B1B68CB40084C236010BD02
:1003E00000100240002002400000FFF8FFFFF6FE70
:1003F00008ED00E00003FA0500127A00000000207A
:1004000000093D000400002038B500208DF80300ED
:10041000002410E004EB44005F4901EB8000808879
:10042000ADF8000004EB44015B4A52F82100694634
:1004300004F024FD641C0C2CECD338BD10B590B036
:100440000BA803F0D5FE684604F070F94FF40040A5
:1004500004F034FF0121084604F0BFFF01214802E7
:1004600004F0C8FF4D4804F0A1F84D4800904D48F5
:100470000190002002900C20039000200490802026
:100480000590400006908000079020200890000210
:10049000099000200A906946404804F029F901219A
:1004A0003E4804F050F900200B9001208DF83000F8
:1004B0008DF831004FF460200D9000200E900C203C
:1004C0008DF83C000BA936484C3803F06EFE002432
:1004D0000DE0601CC2B204EB44002F4B03EB800024
:1004E000017A00232E484C3803F0F7FE641C0C2CD4
:1004F000EFD301212A484C3803F08EFE0121284811
:100500004C3803F07EFE26484C3803F09CFE00BFBA
:1005100023484C3803F09CFE0028F9D120484C3881
:1005200003F0A0FE00BF1E484C3803F0A0FE0028D8
:10053000F9D101211A484C3803F0A3FE10B010BDC8
:1005400010B5014600220C2091FBF0F400FB1410C2
:10055000C1B20B4604E0134830F8130002440C33D8
:100560000C2BF8D300BF90B210BD10B5FFF74CFFB5
:10057000FFF764FF10BD10B504460C2C02DD4FF6EA
:10058000FF7010BD0C2C03DAE0B2FFF7D9FFF8E7DB
:100590004FF6FF70F5E70000B86E00080800024053
:1005A0004C240140300100202DE9F041024692F830
:1005B000644004F00706002009E0FC4C215CFC4C80
:1005C00034F81140FB4D55F821502C61401C0A288D
:1005D000F3D300233CE0F54FF95CF54F37F8117089
:1005E000DFF8D0C35CF821C0CCF81470002000E024
:1005F000401C2828FCD300BF00BF00BF00240020FF
:1006000013E0ED4F57F82070BF68DFF8B0C33CF837
:1006100010C007EA0C050DB1012700E000273D4698
:1006200005FA00F72743BCB2401C0828E9D3E04F85
:1006300037F81170DFF87CC35CF821C0CCF810707B
:1006400006EB860802F1140707EB4807FC545B1C15
:100650000A2BC0D3546E641C5466BDE8F081F0B51B
:1006600003460C46FF250026002118E000220FE07B
:1006700001EB810003EB4000875C481C00EB80002D
:1006800003EB4000805C874201D0761C02E0521CE4
:100690000A2AEDDB00BF0A2A00D10D46491C0729B2
:1006A000E4DB052E01DD0020F0BD082D01DB00207C
:1006B000FAE705EB850003EB400007682760476811
:1006C0006760008920810120EEE770B502460D4683
:1006D000002366E0581CC4B25FE002EB8300407860
:1006E00000F0F00002EB8406767806F0F006B042E7
:1006F00051D100210FE002EB8300407800F00F00A1
:1007000002EB8106767806F00F06B04201D1012097
:1007100070BD481CC1B29942EDDB581CC1B20FE05C
:1007200002EB8300407800F00F0002EB8106767840
:1007300006F00F06B04201D10120E9E7481CC1B222
:10074000A942EDDB00210FE002EB8400407800F0CD
:100750000F0002EB8106767806F00F06B04201D159
:100760000120D5E7481CC1B2A142EDDB601CC1B23B
:100770000FE002EB8400407800F00F0002EB8106EE
:10078000767806F00F06B04201D10120C0E7481C80
:10079000C1B2A942EDDB601CC4B2AC429DDB581C67
:1007A000C3B2681E984295DC0020B1E72DE9F05FE6
:1007B000074697F8640000F0070007287DD1394606
:1007C00007F11400FFF74BFF8346BBF1000F02D186
:1007D0000020BDE8F09FB94607F10A0A07F1680852
:1007E000002400255DE00020002119F805201AF8FA
:1007F000053082EA030019F805201AF8053002EAEC
:10080000030158B3002627E00122B240024012B390
:10081000082C00DB48E0F02202EA051206F00F0384
:100820001A4308EB84035A70654A02EBC502925DD5
:1008300008F8242019F805200123B3401A4022B1FA
:10084000022208EB84039A7003E0012208EB840380
:100850009A70621CD4B2761C082ED5DB01B3002638
:100860001CE00122B2400A40BAB1082C00DB1BE0B8
:10087000F02202EA051206F00F031A4308EB840384
:100880005A704F4A02EBC502925D08F82420EE220E
:1008900008EB84039A70621CD4B2761C082EE0DB4D
:1008A0006D1C0A2D9FDB00BFD9F80000CAF80000BC
:1008B000D9F80400CAF8040000E00FE0B9F8080015
:1008C000AAF80800042C07DB214607F16800FFF7AF
:1008D000FCFE08B100207CE720467AE7002078E79C
:1008E00038B503208DF8020010208DF80300002495
:1008F00012E0324830F81400ADF800002E4951F8EB
:100900002400694604F0BAFA2C4830F814002A4949
:1009100051F824104861641C082CEAD300BF282039
:100920008DF8030000240BE0244830F81400ADF8E3
:100930000000214951F82400694604F09FFA641C24
:10094000082CF1D300BF38BD38B503208DF8020064
:1009500010208DF8030000240BE01A4830F8140032
:10096000ADF80000184951F82400694604F086FAF1
:10097000641C082CF1D338BD38B503208DF8020073
:1009800010208DF8030000240BE0094830F8140013
:10099000ADF80000074951F82400694604F06EFAEA
:1009A000641C0A2CF1D300241CE00000E46F000852
:1009B000A06F0008786F0008486F0008686F000893
:1009C00019000020D46F0008B46F0008A44830F864
:1009D0001400ADF80000A34951F82400694604F062
:1009E0004DFA641C0A2CF1D338BD002007E09E4963
:1009F00031F810109D4A52F820205161401C0828FF
:100A0000F5D37047002007E0954931F81010954A5A
:100A100052F820201161401C0A28F5D370470020AD
:100A200007E08F4931F810108E4A52F820201161EA
:100A3000401C0A28F5D3704710B5FFF7F0FFFFF709
:100A4000E1FF10BD2DE9F04105460A21E868B0FB41
:100A5000F1F201FB1206AF5DFFF7C7FFFFF7D2FF10
:100A600000240BE00120A040384030B17E4830F82F
:100A700014007E4951F824100861641C082CF1D33D
:100A8000774830F81600774951F826104861701CF5
:100A9000E860BDE8F08110B5FFF722FFFFF754FFD3
:100AA000FFF76AFFFFF7C8FF8821714806F0E0F8FA
:100AB00070480021016041608160C1600A216E4878
:100AC00006F0D6F86D4800210160416001810A21DD
:100AD0006B4806F0CDF810BD30B50B4600F00700AE
:100AE0000A24B3FBF4F504FB1533624CE1182AB178
:100AF0000C78012585402C430C7004E00C7801250E
:100B00008540AC430C7030BD10B5024602F00702C0
:100B10000A20B1FBF0F400FB14115648435C01209D
:100B20009040184008B1012010BD0020FCE730B50E
:100B30000B4600F007000A24B3FBF4F504FB153361
:100B40004D4CE1182AB10C78012585402C430C70DE
:100B500004E00C7801258540AC430C7030BD10B525
:100B6000484801684848006801F044FCB0F5FA7F45
:100B70001ED900210FE03F4B58183F4B5A5C4AB139
:100B8000424B1B781BB103781343037002E00378D8
:100B900093430370491C0A29EDD33A4B1B683A4C26
:100BA00023603A4B1B7883F00103384C237000BF5D
:100BB00010BD70B50446002504B1FF250A212E485A
:100BC00006F056F82A460A212A4806F027F870BD92
:100BD00010B50A2228492A4805F0EEFF2748254982
:100BE0000A6802604A6842600989018110BD10B537
:100BF0000A222349204805F0DFFF1E481F490A68E2
:100C000002604A6842600989018110BD10B58AB04E
:100C10001C48007800F00100D0B90024FFF7E5FE81
:100C20001348FFF7C1FC1248FFF7C0FD0446002C33
:100C30000DDD019401208DF80000A2000C496831FF
:100C400002A805F0B9FF684600F052F800BF00BFE7
:100C5000FFF785FF0748FFF7F5FE0AB010BD00005B
:100C6000A06F0008786F0008D46F0008B46F000808
:100C700048010020D0010020E0010020EA0100200E
:100C8000F40100208400002014000020180000203F
:100C900010B5032308222449244801F047FD00240D
:100CA00016E0002004EB44011F4A02EBC101087268
:100CB00004EB84001E4901EBC00004EB440142F840
:100CC0003100282004EB440102EBC1014860641CA0
:100CD000082CE6D310BD10B50121144801F0A9FD80
:100CE00010BD10B504462146104801F0D9FD10BDD5
:100CF00070B50446002504B970BD0C4801F056FDDE
:100D0000054675B128222146286805F010FF01220A
:100D10002946064801F061FD18B12946034801F053
:100D2000BFFD00BFE8E700004003002000040020F2
:100D30000002002008B500BFFFF7AAFF01F063F82A
:100D400001F084FB01F08CFB01F0BAFB02F009F921
:100D500000F0F7F801F08AFB01F059F802F098FB77
:100D60003F48066800BF3E480168304601F042FB3C
:100D7000B0F5FA6FF7D302F001FE03F037F8FFF792
:100D8000F4FB03F0D0F800BF03208DF80200102020
:100D90008DF803000120ADF800006946314804F0E9
:100DA0006DF80220ADF8000069462E4804F066F8A0
:100DB00000BF0020FFF7FDFE01F025F800BFFFF7A0
:100DC0008AFF044604B903E02046FFF78AFFF6E7EE
:100DD00000BF03F0E5F82248066840E0002000F07C
:100DE000C5F80446FFF777FF054615B1284601F020
:100DF00061F83CB11C49204600F0A1FE10B120462C
:100E000001F0DAFA2846FFF76CFF204600F050F9AF
:100E100003F0E2F802F06BFF02F08CFB104801686F
:100E2000304601F0E7FAB0F5FA7F17D90C480668AA
:100E30000E48007880F0010201210A4804F0CFF842
:100E40000A48007880F001020221064804F0C7F841
:100E50000648007880F001000449087000BFBDE733
:100E60008400002000080140F06F000869000020A5
:100E700000B587B00121880304F0BCFA03A805F08F
:100E80005DFC4FF4E130039003A9AB4805F0EDFBA6
:100E90000121A94805F075FC4FF40070ADF8080079
:100EA00003208DF80A0018208DF80B0002A9A34832
:100EB00003F0E4FF4FF48060ADF8080004208DF8E3
:100EC0000B0002A99D4803F0D9FF25208DF80400EE
:100ED00004208DF8050000208DF8060001208DF813
:100EE000070001A803F0D1F8012240F225519248F1
:100EF00005F053FC0121084604F06FFA43F290001C
:100F00008F4948648C48001DC864002088640865C7
:100F100001228021884805F065FC07B000BD38B586
:100F20008548048804F0200050B18348001D0088E3
:100F3000C0B2009001226946824801F0E3FC00BF84
:100F400038BD10B5002310227F49804801F0EEFB28
:100F500080227F497B4801F0B7FC4FF480627D49D5
:100F60007D4800F0FFF8FFF783FF10BDF0B585B0B6
:100F7000054600BF00270020049004A9714801F035
:100F800009FD074607B92CE028E000260020039061
:100F90000290002402A903ABCDE9001039466E4847
:100FA000049A00F0F1F8064606B918E0674801F027
:100FB000FDFB04461CB9304605F047FD0FE02660F6
:100FC00003986060012020720298A07201222146DD
:100FD0005E4801F002FC0020049000BFD5E700BF8E
:100FE00000BF00BF00BF00245C480078E8B154484F
:100FF000006800F4005010B905B149E049E04E48DE
:10100000008800F0400010B905B141E041E04FF424
:1010100080504B4948605248007A18B150490868DE
:1010200005F013FD00204D4908700021474801F0EC
:1010300000FC04465CB36068002801DD206848B904
:10104000207A20B1206810B1206805F0FEFC05B1BF
:101050001EE01EE03A48406C20F001003849486428
:1010600060688864206808650846406C40F00100AC
:10107000486401203949087018222146384805F093
:101080009BFD2146314801F00BFC05B100E000E07A
:10109000A9E700BF00BF002401212C4801F0C9FBD3
:1010A000044614B1204605B0F0BD00BF0020FAE7A9
:1010B00010B5044644B1207A10B1206805F0C5FC93
:1010C0002146224801F0ECFB10BD2DE9F041054618
:1010D0000E4690461F46002415B9601EBDE8F081FB
:1010E0001A4801F063FB044614B94FF0FF30F5E7EE
:1010F00025606760267200222146144801F06DFBCE
:101100000020EBE710B504461CB121460F4801F062
:10111000C7FB10BD4FF48060704710B5044604B99A
:1011200010BD0020A0810C2060812146024805F0FE
:101130009CFA00BFF4E700000038014000080140BD
:10114000000002402806002014040020940500201E
:10115000A805002040060020400A00206A00002068
:10116000580A002070B504460E4615460CB106B16B
:1011700015B94FF0FF3070BD1821204605F078FDFD
:10118000266065600020F6E72DE9FF4F8DB004462C
:1011900091469A46DDF86880002700200C9014B133
:1011A000BAF1000F03D14FF0FF300C9023E2216918
:1011B0006068401A484502D24FF0FF300C90B9F1F8
:1011C000000F2ED00E9818B94FF0FF300C90EDE7BD
:1011D000A06800EB09066068B04214D2D4E90101AE
:1011E000451AA268216888182A460E9905F09FFCC6
:1011F000A9EB05020E9B5919206805F098FCA9EB94
:101200000500A06009E0A268216888184A460E9986
:1012100005F08DFCA0684844A06020694844206126
:1012200000BF00BF00200B900025BDE3E06828440C
:101230000A9061680A98B0FBF1F201FB12000A9073
:1012400021680A98085C09900998AA287DD100268F
:10125000002008902069401B07900798072806DBAC
:10126000606928B1A08AC0F30726207D089085E038
:10127000E26850192168821C6368B2FBF3FC03FB2F
:101280001C228A5C042A78D1C21C6368B2FBF3FC7E
:1012900003FB1C228A5C002A6FD1421D6368B2FBEB
:1012A000F3FC03FB1C228E5C821D6368B2FBF3FC23
:1012B00003FB1C228A5C0892079A082A5DDBD4F89B
:1012C0000CC0AC44CDF818C005F1070CD4F80CB034
:1012D0000CEB0B034FF0000CCDF814C0069A10E095
:1012E000D4F804C0B2FBFCFB0CFB1B2CD4F800B000
:1012F0001BF80CC0DDF814B08CEA0B0CCDF814C050
:10130000521C9A42ECD3D4F804C0B3FBFCFB0CFB98
:101310001B3CD4F800B01BF80CC0CDF810C0DDE9C0
:1013200004CBE3451BD005F1010CD4F810B0ABEBB6
:101330000C0CC4F810C005F1010CD4F80CB0DC445E
:10134000C4F80CC0D4F80CC000E03FE1D4F804B0FD
:10135000BCFBFBFE0BFB1ECCC4F80CC028E3F6B2B2
:10136000DDF820C00CF0FF0CCDF820C0DDF820C067
:101370000CEB062CC4F814C000BF00BFF6B20898EE
:10138000C0B20890089800EB062608366068B6EBF5
:10139000500F11D9681C2169081A2061681CE16886
:1013A0000844E0606168E068B0FBF1F201FB120004
:1013B000E0600020606108E10798864275DC082E35
:1013C00075D1002006900196019805F00FFB0746A5
:1013D0001FB94FF0FF300C9007E30597E0682844F1
:1013E0000390701E2844E16808440290039804901A
:1013F00015E061680498B0FBF1F201FB120021686E
:1014000011F800B0069880EA0B000690059880F865
:1014100000B00598401C05900498401C0490029967
:1014200004988842E5D361680298B0FBF1F201FBB1
:101430001200216811F800B0069858451FD101200C
:101440000B90059880F800B0216901982844081A8B
:101450002061E068411901980844E0606168E06833
:10146000B0FBF1F201FB1200E0600198CAF8000045
:10147000B8F1000F18D00120C8F8000014E0384679
:1014800005F0E3FA0027681C2169081A2061681C2E
:10149000E1680844E0606168E068B0FBF1F201FBDC
:1014A0001200E060002060618FE07FE0FFE70596BA
:1014B000059805F09BFA07461FB94FF0FF300C90D6
:1014C00093E2E06828446168B0FBF1F201FB120B83
:1014D0007019E16808446168B0FBF1F201FB120089
:1014E00006900698584507D9206800EB0B01324654
:1014F000384605F01CFB11E06068A0EB0B00029081
:10150000206800EB0B013846029A05F010FB029BA5
:10151000F21AF818216805F00AFB00BF002060618C
:10152000A6F10A0081B207F1080001F01BF804904F
:1015300000200390B819811E022203A800F0EEFFDC
:10154000BDF80C10049881421CD101200B90216938
:1015500005982844081A2061E06841190598084454
:10156000E0606168E068B0FBF1F201FB1200E0604E
:101570000598CAF80000B8F1000F16D00120C8F88D
:10158000000012E0384605F060FA0027681C216967
:10159000081A2061681CE1680844E0606168E0683E
:1015A000B0FBF1F201FB1200E0600EE02069401B8D
:1015B0002061E0682844E0606168E068B0FBF1F217
:1015C00001FB1200E06001200B90F1E10998FA287C
:1015D00070D12069A0EB050BBBF1070F6BDB00207E
:1015E000089007200390039805F000FA07461FB9FA
:1015F0004FF0FF300C90F8E13E46E068284405903B
:10160000A81DE16808440490059806900FE0606802
:101610000699B1FBF0F200FB12102168085C0790FC
:101620009DF81C0006F8010B0698401C06900499D2
:1016300006988842EBD30220069009E00698385CB1
:101640009DF820100844C0B208900698401C0690EF
:1016500006980628F2D360680499B1FBF0F200FB0B
:1016600012102168085C07909DF820009DF81C105E
:10167000884221D101200B909DF81C003070206918
:1016800003992944401A2061E068284403990844DA
:10169000E0606168E068B0FBF1F201FB1200E0601D
:1016A0000398CAF80000B8F1000F18D00520C8F858
:1016B000000014E024E013E0384605F0C6F90027E6
:1016C000681C2169081A2061681CE1680844E06010
:1016D0006168E068B0FBF1F201FB1200E0600EE02F
:1016E0002069401B2061E0682844E0606168E06890
:1016F000B0FBF1F201FB1200E06001200B9057E11A
:10170000099800F0F000802879D12069401B0890EA
:101710000898032874DBE06828440790D4E9031094
:1017200000EB010B002006900798861C0DE0606816
:10173000B6FBF0F100FB11602168085C069006988A
:10174000FF2801D1B34602E0761C5E45EFD300BF0F
:101750000698FF2855D10798ABEB0000401C1028D5
:1017600010D90027681C2169081A2061681CE168EB
:101770000844E0606168E068B0FBF1F201FB120030
:10178000E06063E00798ABEB0000401C0490049815
:1017900005F02CF907461FB94FF0FF300C9024E1FB
:1017A000059701200B90079E0CE06068B6FBF0F1F6
:1017B00000FB11612068415C059801700598401C90
:1017C0000590761C5E45F0D9216904982844081AD2
:1017D0002061E068411904980844E0606168E068AD
:1017E000B0FBF1F201FB1200E0600498CAF80000BF
:1017F000B8F1000F02D00420C8F8000026E036E05F
:1018000025E00798ABEB0000102810D30027681CD8
:101810002169081A2061681CE1680844E060616879
:10182000E068B0FBF1F201FB1200E0600EE020691D
:10183000401B2061E0682844E0606168E068B0FB1C
:10184000F1F201FB1200E06001200B900EE0206934
:10185000401B2061E0682844E0606168E068B0FBFC
:10186000F1F201FB1200E06001200B90A0E009986A
:10187000A52871D12069A0EB050BBBF10B0F6CDB28
:10188000002008900B200390039805F0AFF807465E
:101890001FB94FF0FF300C90A7E03E46E0682844A7
:1018A000059005F10A00E168084404900598069047
:1018B0000FE060680699B1FBF0F200FB121120689E
:1018C000405C07909DF81C0006F8010B0698401C30
:1018D0000690049906988842EBD30120069009E00F
:1018E0000698385C9DF820100844C0B2089006980D
:1018F000401C069006980A28F2D360680499B1FB50
:10190000F0F200FB12102168085C07909DF820009F
:101910009DF81C10884221D101200B909DF81C00DD
:101920003070206903992944401A2061E0682844F6
:1019300003990844E0606168E068B0FBF1F201FBE4
:101940001200E0600398CAF80000B8F1000F18D048
:101950000620C8F8000014E024E013E0384605F043
:1019600074F80027681C2169081A2061681CE16866
:101970000844E0606168E068B0FBF1F201FB12002E
:10198000E0600EE02069401B2061E0682844E060D0
:101990006168E068B0FBF1F201FB1200E060012039
:1019A0000B9005E000BF6D1C2069A8423FF63EACDD
:1019B00000BF2069A8420FD10B9868B900202061B0
:1019C000E0682844E0606168E068B0FBF1F201FB88
:1019D0001200E060002060610B9800B103E0206914
:1019E00000283FF71FAC00BF00BF1B9810B11B9928
:1019F0000C980860384611B0BDE8F08F10B501466C
:101A00000B78F94C24680CB1092200E00722012070
:101A100002E00C5C6340401C9042FADB0B5410BDAA
:101A20002DE9FF4381B08846DDF830900024B8F1FD
:101A3000000F03D1002005B0BDE8F083DDE903010C
:101A400000FB01F707F11006304604F0CFFF044613
:101A50000CB90020EFE73146204605F0E7F8AA2050
:101A600020700420A0700020E070A6F10800009013
:101A700002226946601D00F051FD2046FFF7BEFFBF
:101A800004F10805022201A9284600F047FD0222C0
:101A900003A9A81C00F042FD022204A9281D00F0A1
:101AA0003DFD3A464146A81D05F041F8B81D81B2FA
:101AB000284600F057FD0090A91DC819022269466A
:101AC00000F02CFDB9F1000F01D0C9F800602046EC
:101AD000B1E7F8B506460F4614461D4623460122D7
:101AE000394630460095FFF79BFFF8BD70B50546B7
:101AF0000C46ADB1A4B1204604F078FF064676B19D
:101B000022462946304605F012F8234603220121D9
:101B10003046FFF7DAFA10B1304604F096FF00BF06
:101B200070BD7047704770B504460D462946204683
:101B3000FFF7DCFF29462046FFF7F4FF70BD2DE9D3
:101B4000F04F8FB007460C4601200E901FB9801E43
:101B50000FB0BDE8F08F3D682878AA2802D04FF07A
:101B6000FF30F5E7A8780C287AD1E878802878D17A
:101B700000200C900D9000260B904FF001094FF0C3
:101B8000010A8346AA208DF830000C208DF832001F
:101B900080208DF8330001208DF83400A8790D28BD
:101BA00060D2DFE800F05F0708165F245F5F5F38F0
:101BB0005F3A4B0000BFA8798DF83600082004F08A
:101BC00015FF064616B94FF0000950E008200B90AB
:101BD0004DE008A800F0A9FF4FF0000A0BAB0C2263
:101BE00008A948F20300FFF774FF06463FE0002013
:101BF0000A902CB1206918B12069804780B20A9000
:101C00004FF0000A0BAB02220AA948F20500FFF7C9
:101C100060FF06462BE000F0DAFB4FF0FF300A9041
:101C200000F08EFF0A904FF0000A0BAB04220AA9C5
:101C300048F20B00FFF74DFF064618E00FF2AC1814
:101C40004FF0000A404604F053FF401C0BAB024625
:101C500041460A9048F20C00FFF73BFF064606E0BB
:101C600030E0BDE04FF0000900200E9000BF00BF43
:101C7000B9F1000F20D0FEB1BAF1000F06D00CA8C8
:101C8000FFF7BCFE0C9830600D9870601CB93046B0
:101C900004F0DBFE10E0606918B9304604F0D5FEB0
:101CA0000AE0D4F814C00322012130460B9BE04720
:101CB00010B1304604F0C9FEBBF1000F01D000F0B6
:101CC00086FB8DE0A87804287ED100200D90804608
:101CD0000E900222691D0DA800F020FC05F10806F7
:101CE0000D98801E0D9075E04FF0000900200C90BB
:101CF0004FF0010A0B900A900990022231460BA87E
:101D000000F00CFC0222B11C0AA800F007FC022221
:101D1000311D09A800F002FCBDF82C00A0F5004020
:101D20000A3858BB06F1060B01A800F0FEFE4FF082
:101D3000FF3000F005FF0090012301A904A8009ADC
:101D400000F024FF1022594604A804F0A5FE38B97B
:101D5000002008900022012104A800F03DFF02E0CD
:101D60004FF0FF3008900CAB042208A948F20A009B
:101D7000FFF7AFFE814601200E9000E000BF00BFDC
:101D8000BAF1000F18D0B9F1000F15D01CB94846B0
:101D900004F05BFE10E0606918B9484604F055FE97
:101DA0000AE0D4F814C00322012148460C9BE04706
:101DB00010B1484604F049FEBDF82800BDF82410D3
:101DC0004843801D804400E008E005F1080000EB76
:101DD000080600BF0D98804586D301E000200E90D4
:101DE0000E9868B10020B3E68800002059415F5585
:101DF00053425F415544494F5F31373131323800EA
:101E00004FF0FF30A4E60020F84908707047704793
:101E10007047704701460022012003E00B5C134429
:101E2000DAB2401C0628F9DB0A5470472DE9F0416C
:101E30000546002725E005F1080000EB8706B0788D
:101E4000EE2800D11CE096F80080E94C00202060CC
:101E500060602081AA202070E4480078607007202C
:101E6000A070B078012800D1207100BF00BF00BF72
:101E70002046FFF7C3FD08212046FFF754FE00BFB0
:101E80007F1C6868B842D6D80120BDE8F08170B5E3
:101E90000546D74C0CB9002070BD00202060606062
:101EA00020812046FFF7AAFD08212046FFF73BFED0
:101EB0000120F1E770B505462C682078052801DB84
:101EC000002070BD2078CB4951F8200030B1207837
:101ED0000A4652F8201020468847F2E70020F0E733
:101EE0002DE9F04F87B08046B8F1000F03D10020F4
:101EF00007B0BDE8F08FD8F80040A078062873D16D
:101F0000BB4E4FF00009002006904FF0010A4FF041
:101F1000010BAA2030700620B0708020F0700120E4
:101F20003071E078462870D008DC40280DD0412878
:101F300032D0432859D0442868D168E050286ED068
:101F400080286DD08128F7D1FFE0142004F04EFDE9
:101F500007464FF0000BF7B100250CE005A9284615
:101F600001F0B3FB07F815509DF8140007EB45018D
:101F70004870681C85B2072DF0DB06A802230722F3
:101F8000394600904FF4C860FFF74AFD8146384655
:101F900004F05BFD00BF39E1062004F027FD074691
:101FA0004FF0000BFFB100250DE005A9E81D01F081
:101FB0008CFBE81D07F815009DF8140007EB4501A0
:101FC0004870681C85B2032DEFDB06A802230322AC
:101FD0003946009040F24160FFF722FD81463846C5
:101FE00004F033FD00BF11E12CE165794FF0000AE8
:101FF000082D00DB0AE105EB05127F4901EB4200E9
:1020000001F0B4FF00F075FF00E115E0FAE065793A
:102010004FF0000AFF2D04D101F0C7FFF6E043E0C6
:1020200064E0082D00DBF1E005EB0512724901EBDD
:10203000420001F085FFE9E0A079FF2826D10020C9
:102040000590042004F0D2FC07464FF0000BE7B1E6
:1020500005A801F050FF002507E007F8155005A876
:10206000405D07EB450148706D1C022DF5DB06A8AD
:10207000032302223946009040F24660FFF7D0FC6D
:102080008146384604F0E1FC00BF0CE020790511E0
:10209000607908B9012000E000200746394628464B
:1020A00001F0EFFE00BFB1E0207940B9607901F0A6
:1020B00012FAA07901F023FA4FF0000B15E0207915
:1020C00001280AD15020F0708120307101F026FAE9
:1020D000707101F029FAB07107E05020F070A27918
:1020E0006179207901F0C9F870718FE01E2004F049
:1020F0007DFC07464FF0000B37B3002514E005A91F
:10210000284601F0E6FD05EB45017D549DF81400DD
:1021100005EB4501394448709DF8150005EB450174
:1021200039448870681C85B20A2DE8DB06A80323B1
:102130000A22394600904FF4D060FFF771FC8146C7
:10214000384604F082FC00BF60E02CA103C9CDE951
:1021500004012A2004F04AFC07464FF0000BE7B3C5
:1021600000251DE004A8405D05EB450107F81100BE
:10217000002101EB450188B2FEF7FDF905EB4501B1
:1021800007EB41014880012101EB450188B2FEF7D0
:10219000F2F905EB450107EB41018880681C85B227
:1021A000062DDFDB05EB450007EB400105EB4500A5
:1021B00007EB400050F8062D0A608088888004A84C
:1021C000405D05EB450107F8110006A8062307222C
:1021D0003946009040F2816000E006E0FFF720FC05
:1021E0008146384604F031FC00BF0FE06C0000204F
:1021F000700A0020700000208A0A002000010203FB
:10220000040809004FF0000AD34600BF00BFBBF12D
:10221000000F06D03046FFF7F1FB08213046FFF7EC
:1022200082FCBAF1000F0CD0B9F1000F09D00322E3
:1022300001214846069BFEF748FF10B1484604F0CE
:1022400004FCB7E0A0780428FBD10020069000270A
:102250000222611D06A800F061F904F10805069844
:10226000801E0690A1E04FF00009CA4601200590AB
:1022700000200490039002900222294604A800F056
:102280004DF90222A91C03A800F048F90222291DD9
:1022900002A800F043F9BDF81000B0F5C86F07D0F0
:1022A000A0F24160B0B1052826D03F2861D13AE0C4
:1022B00005F1060B002608E00BEB460251781BF8EF
:1022C000160001F030FA701C86B2BDF80C00864290
:1022D000F2DB4FE005F1060B002608E00BEB4602AF
:1022E00051781BF8160001F01EFA701C86B2BDF87A
:1022F0000C008642F2DB3DE005F1060B00260DE006
:102300000BEB460252780AB1012200E0002211468E
:102310001BF8160001F0B5FD701C86B2BDF80C006C
:102320008642EDDB26E005F1060B00261CE006EBFD
:1023300046001BF80000052800D113E006EB46001C
:10234000584440788DF8040006EB460058448078E5
:102350008DF8050006EB46011BF80100019901F01C
:10236000A9FC00BF701C86B2BDF80C008642DEDB03
:1023700000E000BF00BF059860B1B9F1000F09D0BF
:102380005346032201214846FEF79FFE10B14846FE
:1023900004F05BFBBDF80C00BDF808104843801D3D
:1023A000074404F10800C51900BF06988742FFF4EE
:1023B0005AAF00BF01209BE510B50446A07A012862
:1023C00003D12046FFF78CFD10BD0020FCE7064836
:1023D000006800F4E06005490843001D02490860F8
:1023E000BFF34F8F00BFFEE70CED00E00000FA05E1
:1023F00000BFFEE70246914201D3881A7047C2F13E
:10240000FF300844FAE70246914202DB881A80B2A4
:1024100070474FF6FF70801A084480B2F8E70A4808
:102420000068401C08490860704710B503464FF02B
:102430008040848C00BF4FF08040818C2046FFF7A5
:10244000E2FF9842F7DB10BD8400002010B50121A7
:10245000080702F0DCFF01217D2002F0CBFF10BD58
:1024600010B50121284802F0DAFD10BD30B527482B
:1024700000684FF47A72B0FBF2F1B1F1807F00D3C3
:102480001DE021F07F40401E4FF0E02250615017C8
:102490000F22002807DA13071D0E1D4B00F00F0452
:1024A000241F1D5503E013071C0E1A4B1C5400BFBC
:1024B00000204FF0E02290610720106100BF30BD86
:1024C0003EB5124800681449B0FBF1F0401E84B2DA
:1024D0000121084602F09BFF684603F075FD4FF6A8
:1024E000FF70ADF80400ADF800400020ADF8060024
:1024F000ADF8020069464FF0804003F039FA01213F
:10250000880703F091FD3EBD00023000000000206E
:1025100018ED00E000E400E040420F0010B5034673
:10252000002004E0141A641E0C5D1C54401C9042F0
:10253000F8D310BD30B502460B464FF0FF3002B164
:1025400003B930BD002108E0C4B2555C6C40734D46
:1025500055F8244084EA1020491C9942F4D3C04322
:1025600000BFEEE770B502460C46FF25FF2312B907
:102570004FF6FF7070BD09E012F8010B80EA03010D
:102580006748405C80EA05036648455C201EA4F16C
:102590000106B4B2F0D143EA0520EBE72DE9F04F94
:1025A00003460C46944600221D680026DFF8789109
:1025B000012C57DD601E53F82020342090FBF4F0EE
:1025C00000F1060846E04E44C6F3810700211FE0F3
:1025D000481C53F82050500980EA85004FEAD50A7C
:1025E0008AEA021A504486EA050A01F0030B8BEAD4
:1025F000070B5CF82BB08BEA020BDA4480EA0A0086
:1026000053F821A0504443F8210053F82120491CDD
:10261000601E8842DCDC1D68500980EA85004FEAB4
:10262000D50A8AEA021A824486EA050001F0030B01
:102630008BEA070B5CF82BB08BEA020B58448AEA52
:10264000000A601E53F820008244601E43F820A058
:1026500053F82020B8F10000A8F10108B3DC0020F5
:10266000BDE8F08FB4F1FF3F56DA6442601E53F8C4
:102670002020342090FBF4F000F1060808FB09F656
:1026800046E0C6F38107611E20E0481E53F8202073
:10269000500980EA85004FEAD50A8AEA021A5044B6
:1026A00086EA050A01F0030B8BEA070B5CF82BB0F6
:1026B0008BEA020BDA4480EA0A0053F821A0AAEB65
:1026C000000043F8210053F82150491E0029DCDCAA
:1026D000601E53F82020500980EA85004FEAD50A91
:1026E0008AEA021A504486EA050A01F0030B8BEAD3
:1026F000070B5CF82BB08BEA020BDA4480EA0A0085
:10270000D3F800A0AAEB000018601D68A6EB09062C
:10271000002EB6D10020A3E70120A1E71870000821
:102720001874000818750008B979379E2DE9F0472C
:1027300007460C46164698464FF0000917B10CB1F3
:10274000002E03DA4FF0FF30BDE8F087FDF740FDC3
:10275000814606EB4600C100204604F089FA1421A8
:10276000384604F085FA002510E005EB450004EB3F
:10277000C000A0F80C8005EB450004EBC000183049
:1027800005EB450104EBC10108616D1C701EA842F8
:10279000EBDC002005EB450104EBC10108617E6024
:1027A0003C604846FDF718FD0020CDE770B50446B3
:1027B000002600250CB9002070BDFDF709FD064676
:1027C000206828B125682869206000206861286198
:1027D0003046FDF701FD2846EEE72DE9F0410646BB
:1027E0000C46174606B11CB94FF0FF30BDE8F0812A
:1027F0004FF0000817B106F10C0001E006F11000DF
:102800000546FDF7E5FC8046286818B92C60646130
:10281000246109E02868206128684069046128680B
:1028200040696061286844614046FDF7D5FC00209E
:10283000DCE72DE9F04105460F464FF00008002681
:1028400015B90020BDE8F08117B105F10C0001E0D9
:1028500005F110000446FDF7BBFC8046206808B96E
:10286000002618E02668206800692168884202D1A5
:10287000002020600CE020684069216809694861F7
:102880002068006921684969086120680069206042
:102890000020706130614046FDF79EFC3046D1E774
:1028A00070B504460D4604B115B94FF0FF3070BD48
:1028B0000026FDF78DFC064620682861256030461D
:1028C000FDF78AFC0020F2E72DE9F04104460D46B1
:1028D0001646002704B11DB94FF0FF30BDE8F08166
:1028E000FDF776FC07461821204604F0C1F9256063
:1028F0007008A060A068284460603846FDF76CFC52
:102900000020EBE72DE9F04704460F4615464FF04F
:102910000008C14604B11FB94FF0FF30BDE8F08791
:10292000FDF756FC80466169A068461AB54202D997
:102930004FF0FF3929E0E0682844A16888420FD9A8
:10294000D4E90201461AE2682168881832463946FD
:1029500004F0EDF8AA1BB919206804F0E8F806E0C5
:10296000E268216888182A46394604F0E0F8E068F1
:102970002844E060D4E90210B0FBF1F201FB120040
:10298000E06060692844606100BF4046FDF724FCB8
:102990004846C3E72DE9F04104460D46002714B927
:1029A0000020BDE8F081606908B90020F9E7FDF773
:1029B0000FFC0746D4E904010844A168884211D9F4
:1029C0002169A068461A23692268D11832466068D6
:1029D00004F0ADF863699A1BD4E90013981904F068
:1029E000A6F806E02669236899196269606804F010
:1029F0009EF8D4E9040108442061A1682069B0FB75
:102A0000F1F201FB120020610DB160692860002025
:102A100060613846FDF7E0FB6068C2E72DE9F041F0
:102A20000646042701F00BFF02F075F904466EB16B
:102A3000FE4961EA04050846A043884217D001F028
:102A4000C8FF284602F085F800F0BCFAF74820439A
:102A5000C543F649C94344EA0100401C38B101F0BE
:102A6000B8FF15B1284602F074F800F0ABFA01F097
:102A7000F2FEBDE8F0812DE9F74F044690460426AA
:102A8000DDF804B028F00300404502D0701FBDE817
:102A9000FE8FA40AA40204EB080901F0D0FE08F29C
:102AA000FF304FEA902A352002F064F9002707E052
:102AB0004FF4806101FB074001F006FF06467F1CD2
:102AC000574501D2042EF3D0042E00D026E025462F
:102AD000002708E038467F1C5BF82010284601F0EC
:102AE000C3FF06462D1D4D4501D2042EF2D0042E03
:102AF00000D013E025460426002708E02A6838465F
:102B00007F1C5BF82000824200D002262D1D4D451F
:102B100001D2042EF2D101F092FE00BF042E02D0A9
:102B20004FF0FF30B3E70020B1E770B5044634B191
:102B30000C252A46BE49204604F03EF800BF70BD71
:102B40002DE9F04107460026BA4D002415E055F85E
:102B50002400401C78B9601C55F82000401C50B976
:102B6000A01C55F82000401C28B9E01C55F8200096
:102B7000401C00B903E0361D641CBE42E7D300BF11
:102B80003146AC48FFF7D6FCBDE8F0812DE9FF41A6
:102B900004460D4616461F4604B125B94FF0FF30D6
:102BA00004B0BDE8F08195E807008DE807000396C2
:102BB0004FB19DE80F0084E80F006A4604212046CB
:102BC000FFF7ECFC06E09C4820606A4601212046A5
:102BD000FFF7E4FC0020E3E72DE9F0438BB0064665
:102BE0000F46154626B94FF0FF300BB0BDE8F08315
:102BF0004FF00409E84696E80F0001AC0FC417B186
:102C00008E48009009E08C4800900020CDE90650E5
:102C100001AA022106A8FFF7C1FC002008900024A9
:102C200005E058F82410089848400890641C082CC7
:102C3000F7D301F004FE342002F09CF8804801F044
:102C400043FE8146E846002410E058F824107C4AF0
:102C500002EB840001F008FF8146B9F1040F04D0B3
:102C600001F0F9FD4FF0FF30BFE7641C0A2CECD3F4
:102C700001F0F1FD0020B8E72DE9F04387B00546EB
:102C800088466F4C6F480068401CB0B96E48FFF72B
:102C90004CFF4FF0FF30FFF753FF6A4908600023F5
:102CA0000846694902686948FFF770FF01236548D3
:102CB000654902686648FFF769FF664800780028A2
:102CC0007CD15D492068884203D05C4920688842F5
:102CD00067D1DFF86C910027002603E059F8260041
:102CE0004740761C082EF9D3206AB84258D1524981
:102CF0002068884238D1554800686168884224D1EC
:102D0000D4E90601CDE90401221D6FF0010104A8F8
:102D1000FFF744FC0020DDE90421D2F103028841E1
:102D200003D204204B4908700EE0484B0FCB8DE8CE
:102D30000F0004994A1C4FF000016846FFF74CFF52
:102D400001204449087000BF2AE0404B0FCBCDE979
:102D50000423CDE902010422002102A8FFF73CFF71
:102D600004203C4908701BE01022211D384803F064
:102D700093FE18B903203749087011E0334BD3E9AB
:102D800001211868DB68CDE90413CDE902020422B1
:102D9000002102A8FFF720FF04202E49087000BF81
:102DA0000CE02A4B0FCB02AE0FC60022114602A840
:102DB000FFF712FF01202749087000BF254800785F
:102DC000012831D12448016824480068FFF712FB2C
:102DD00044F62061884227D9D4E90601CDE90401EF
:102DE000201D0FC88DE80F001B4800681B490860B4
:102DF000221D6FF0010104A8FFF7D0FB0498421CCC
:102E00004FF000016846FFF7E7FE0020DDE90421EE
:102E1000D2F10302884102D204200E49087015B194
:102E200041460220A84700BF0A4819E0F8FFFF0109
:102E3000E8F7FF1F0030000867452301EFCDAB899D
:102E40000090010894000020E00B0020FC0B002003
:102E5000EC0B00208C00002084000020900000205B
:102E60000078042821D11022211D5D4803F014FEB2
:102E700028B903205B49087007B0BDE8F08315B19D
:102E800041460420A8475848016858480068FFF7A1
:102E9000B1FA44F62061884207D953480068534983
:102EA000086015B141460520A84700BFE4E770B5AA
:102EB0000446042501F0C3FC00BF342001F05AFF92
:102EC00001F087FD0546042D00D005E02146484865
:102ED00001F01BFE054600BF00BF01F0BCFC042D45
:102EE00001D1002070BD4FF0FF30FBE74048007873
:102EF00070472DE9F0414FF0040800253D4E3E4F4C
:102F00004AF2A55031460880002404E036F8140047
:102F1000284485B2641CAB2CF8D33648A0F856512F
:102F200001F08DFC342001F025FF334801F0CCFC8A
:102F3000804600240FE036F81410384601F0C7FD33
:102F40008046B8F1040F04D001F085FC0020BDE8F4
:102F5000F081BF1C641CAC2CEDD301F07CFC012083
:102F6000F5E770B50025234E4FF4AC722249304688
:102F700003F0DDFD304600884AF2A551884200D0BA
:102F80000FE0002404E036F81400284485B2641CE5
:102F9000AB2CF8D31748B0F85601A84200D170BD49
:102FA00000BF002408E004EB04121249891C01EB65
:102FB000420000F0DBFF641C0A2CF4D3FFF799FFFA
:102FC00000BFECE70D48006800F4E0600C490843DE
:102FD000001D0A490860BFF34F8F00BFFEE70000E5
:102FE000EC0B00208C0000208400002090000020CA
:102FF00004F8FF1F880A0020009401080CED00E08F
:103000000000FA0508B50720009002E00098401E75
:10301000009000980028F9D108BD10B58020C9495A
:10302000086040200860FFF7EDFFC64808380068D8
:1030300008B9012000E0002000F0800008B1002065
:1030400010BD8020BF49091D0860FFF7DBFFBD48A8
:103050000838006800F0800008B10020F0E7802008
:10306000B849091D0860FFF7CDFF0120E8E710B55A
:103070004020B449091D0860FFF7C4FF8020B14912
:10308000091D0860FFF7BEFF4020AE490860FFF74A
:10309000B9FF8020AB490860FFF7B4FF10BD10B541
:1030A0004020A849091D0860FFF7ACFF8020A54912
:1030B000091D0860FFF7A6FF4020A2490860FFF73E
:1030C000A1FF40209F49091D0860FFF79BFF10BD2D
:1030D00010B540209B49091D0860FFF793FF802031
:1030E00098490860FFF78EFF402096490860FFF777
:1030F00089FF40209349091D0860FFF783FF10BD39
:1031000010B540208F49091D0860FFF77BFF802024
:103110008C490860FFF776FF40208A490860FFF776
:1031200071FF88480838006800F0800028B140200E
:103130008449091D0860002010BD40208149091DF7
:1031400008600120F8E770B50446082519E0402022
:103150007C49091D0860FFF755FF04F0800018B195
:1031600080207849086003E080207649091D0860C6
:103170006006040EFFF746FF402072490860FFF723
:1031800041FF281EA5F10101CDB2E0D140206D49DB
:10319000091D086070BD70B50825002480206949AC
:1031A000086014E06006040E40206649091D0860AE
:1031B000FFF728FF402063490860FFF723FF6148BD
:1031C0000838006800F0800008B144F00104281EAF
:1031D000A5F10101CDB2E5D140205A49091D086091
:1031E000204670BD08B502208DF8020014208DF82D
:1031F00003004020ADF8000069465248103801F045
:103200003DFE8020ADF8000069464E48103801F0C0
:1032100035FE08BD70472DE9F04105460E461746BC
:103220009846FFF7FAFE10B90020BDE8F0810021B2
:1032300041EA4501C8B2FFF786FFFFF761FF18B901
:10324000FFF715FF0020F0E73046FFF77CFFFFF7A0
:1032500057FF00240BE018F80400FFF774FFFFF796
:103260004FFF18B9FFF703FF0020DEE7641CBC42E4
:10327000F1DBFFF7FCFE0120D7E770B504460D46F1
:103280001646FFF7CAFE10B94FF0FF3070BD00219F
:1032900041EA4401C8B2FFF756FFFFF731FF20B9FA
:1032A000FFF7E5FE6FF00100F0E72846FFF74BFF60
:1032B000FFF726FF3046FFF746FFFFF721FFFFF736
:1032C000D6FE0020E2E72DE9F04105460F46144600
:1032D0001E46FFF7A2FE10B90020BDE8F0810021D4
:1032E00041EA4501C8B2FFF72EFFFFF709FF18B901
:1032F000FFF7BDFE0020F0E73846FFF724FFFFF799
:10330000FFFEFFF78AFE012101EB4501C8B2FFF77E
:103310001AFFFFF7F5FE0CE0FFF73DFF3070012CC0
:1033200002D1FFF7D5FE01E0FFF7B9FE761C601E63
:10333000C4B2002CF0D1FFF79AFE0120CDE70020A7
:1033400070470000100C01402DE9FC4104460D4679
:103350001A26C5F30805EFB2600040EA2520C4B282
:10336000002000900190AA208DF8000006208DF822
:10337000020050208DF803008DF804608DF80540A0
:103380008DF806706846FEF739FB08216846FEF79F
:10339000CAFB3A4621463046FFF76FFFBDE8FC8185
:1033A00010B586B00121880302F031F801A802F0BF
:1033B0003AF94FF48270ADF806004FF40060ADF8B2
:1033C00008001820ADF810004FF40070ADF80E00A2
:1033D00001A9F84802F098F80121F64802F039F9FD
:1033E0004FF42040ADF8000003208DF802001820B3
:1033F0008DF803006946F04801F040FD4FF480402D
:10340000ADF8000004208DF803006946EA4801F099
:1034100035FD4020ADF8000010208DF8030069460E
:10342000E64801F02BFD01224021E44801F0D7FDE0
:103430008020ADF8000010208DF803006946DF48B9
:1034400001F01CFD4FF48050ADF8000010208DF805
:1034500003006946D84801F011FD01221103D64846
:1034600001F0BDFD00228021D44801F0B8FDD44810
:10347000046800BFD24801682046FEF7BBFF6428FD
:10348000F8D301228021CD4801F0A9FD06B010BD7E
:1034900008B503208DF8020010208DF80300ADF868
:1034A00000006946C44801F0E9FC2020ADF80000A6
:1034B0006946C14801F0E2FC00221021BE4801F03B
:1034C0008EFD00222021BC4801F089FDFFF78AFE15
:1034D000FFF766FF08BD70B505460026B948448D64
:1034E00005F01F0504F0C0042C4321461520FFF70A
:1034F0002BFF06460EB9B3484485304670BD70B503
:103500000446002504F0070421461620FFF71CFF9F
:1035100005460DB9AB488485284670BDA94890F88A
:103520002A0000F01F007047A64890F82C0000F019
:103530000700704770B5A4480078002840D0A34D1C
:10354000A34E00224FF480519B4801F048FD0E210C
:10355000304603F06BFB00BF0221964802F0FDF8F5
:103560000028F9D000241CE0C4F1060035F8101042
:10357000904802F09FF800BF02218E4802F0EDF85B
:103580000028F9D000BF01218A4802F0E6F800289F
:10359000F9D0884802F090F8C4F1060126F811002D
:1035A000641C072CE0D301221103834801F017FDAE
:1035B0000E21864803F03AFB00208349087000BFC3
:1035C00070BDF0B50246072A02DB4FF0FF30F0BDB8
:1035D000032902DD4FF0FF30F9E77E48845C7E4826
:1035E000055D8D4201D10120F1E7012D01D10229B4
:1035F00003D0012904D1022D02D14FF0FF30E6E7BC
:103600007648835C59B91320704E06EB4306707000
:10361000734810F814006D4E06F8130009E00846D0
:1036200000F00F0646F02006684F07EB43077E7058
:1036300000BF694801550120634E30700020C6E785
:10364000F0B504460A46072C02DB4FF0FF30F0BD10
:103650006048015D624810F81160964201D1012076
:10366000F5E75D48455C032D08D15D4800EB41005E
:1036700042705B4800F811200120E8E75748035DDD
:10368000524800F81320012D05D112204F4F07EBAF
:10369000430778700CE0022D05D111204B4F07EB4A
:1036A0004307787004E01320484F07EB4307787016
:1036B0004B4800EB41004270494800F811200120BE
:1036C000414F38700020C2E7704702460A2A00D2F4
:1036D00011B94FF0FF3070473F48805C0870002000
:1036E000F9E770B504460A252A463B49204603F00F
:1036F0001EFA70BD70B504460D4616460A2C01D25E
:10370000072D02DB4FF0FF3070BD364850F8240023
:1037100030B1344850F82420314628469047F3E72A
:103720004FF0FF30F0E770B504460D460022294601
:103730002046FFF7DFFF70BD70B50546002404E0AA
:10374000295D2046FFF7EFFF641C0A2CF8DB70BDF3
:1037500070B505460E461B48448D032D02DD4FF023
:10376000FF3070BD2EB91C484079A84201D100201D
:10377000F7E704F03F0435B1012D05D0022D06D046
:10378000032D0AD106E00BE044F0800408E044F089
:10379000400405E044F0C00402E04FF0FF30E0E7F1
:1037A00000BF21461520FFF7CFFDE8B14FF0FF30F5
:1037B000D7E7000000380040000C01400010014035
:1037C0008400002098000020F00000200C0C002055
:1037D000240C00201F7600081A0C00201876000820
:1037E000C800002028760008F7484485F74845714E
:1037F0000020B6E770B505460E46F348C489072D8C
:1038000002DB4FF0FF3070BD2EB9F0488079A8423E
:1038100001D10020F7E704F00F04072D18D2DFE8EC
:1038200005F004070A0D0E11140044F0900412E094
:1038300044F080040FE044F010040CE00BE044F08E
:10384000D00408E044F0B00405E044F0F00402E0E5
:103850004FF0FF30D7E700BF21460720FFF774FD88
:1038600010B14FF0FF30CEE7D748C481D7488571FB
:103870000020C8E770B504460E46D348458B042C9B
:1038800002DB4FF0FF3070BD2EB9D048C079A042A6
:1038900001D10020F7E705F0F70514B1032C04D19E
:1038A00000E005E045F0080502E04FF0FF30EAE7F0
:1038B00000BF29460D20FFF747FD10B14FF0FF3044
:1038C000E1E7C1484583C148C4710020DBE7F0B59A
:1038D00004460D461746072C02DB4FF0FF30F0BDC3
:1038E000BB48065D1FB9B948805DA84203D0294690
:1038F0002046FFF766FEB54885550020EFE730B556
:1039000004460D462A4621460020FFF7E0FF30BD61
:1039100030B504460D462A4621460120FFF7D7FF61
:1039200030BD30B504460D462A4621460220FFF739
:10393000CEFF30BD30B504460D462A462146032051
:10394000FFF7C5FF30BD30B504460D462A46214677
:103950000420FFF7BCFF30BD30B504460D462A46B3
:1039600021460520FFF7B3FF30BD30B504460D46B4
:103970002A4621460620FFF7AAFF30BD10B5FFF703
:10398000A3FE002405E0012200212046FFF7B2FE3D
:10399000641C0A2CF7D310BD704773B50D462DB9C2
:1039A0009DF800008B49897A884215D08648848B1F
:1039B0009DF8006004F47F44344321460E20FFF755
:1039C000C3FC10B14FF0FF307CBD7F4884839DF86D
:1039D00000008049887200BF2DB99DF801107D4814
:1039E000C07A814215D07848C48B9DF8016004F4F8
:1039F0007F44344321460F20FFF7A6FC10B14FF05F
:103A0000FF30E1E77048C4839DF801107148C1722E
:103A100000BF0020D8E773B50D469DF800009DF863
:103A20000110884219D16848448904F47F4444F461
:103A300080749DF80000044321460520FFF784FCB4
:103A400010B14FF0FF307CBD5F4844819DF80010FD
:103A50006048017341730020F5E72DB99DF800001F
:103A60005C49097B884217D05748C48804F47F44D6
:103A700044F480749DF80000044321460320FFF7BE
:103A800063FC10B14FF0FF30DDE74F48C4809DF874
:103A900000005049087300BF2DB99DF801104D4832
:103AA000407B814217D04848048904F47F4444F4A1
:103AB00080749DF80100044321460420FFF744FC74
:103AC00010B14FF0FF30BEE73F4804819DF8011070
:103AD0004048417300BF0020B5E773B50D469DF81F
:103AE00000009DF8011088421BD1374884884FF6AA
:103AF0008070044044F480749DF8000044EA60043F
:103B000021460220FFF720FC10B14FF0FF307CBDB2
:103B10002D4884809DF800102E488173C1730020C9
:103B2000F5E72DB99DF800002A49897B884219D014
:103B3000254804884FF68070044044F480749DF852
:103B4000000044EA600421460020FFF7FDFB10B1AD
:103B50004FF0FF30DBE71C4804809DF800001D4952
:103B6000887300BF2DB99DF801101A48C07B8142AF
:103B700019D0154844884FF68070044044F480748E
:103B80009DF8010044EA600421460120FFF7DCFBB8
:103B900010B14FF0FF30BAE70B4844809DF8011098
:103BA0000C48C17300BF0020B1E7F7B505461646C3
:103BB0009DF804009DF8051008444708072D0BDB0D
:103BC0004FF0FF30FEBD0000980000201A0C0020CE
:103BD0001F760008C8000020F748445D3EB99DF8F4
:103BE0000500F64901EB44014978884203D0394683
:103BF0002846FFF725FDF14800EB44004770EF48E9
:103C000000F814700020DDE713B50C4622460020B2
:103C10000099FFF7CAFF1CBD13B50C4622460120D0
:103C20000099FFF7C2FF1CBD13B50C4622460220C7
:103C30000099FFF7BAFF1CBD13B50C4622460320BE
:103C40000099FFF7B2FF1CBD13B50C4622460420B5
:103C50000099FFF7AAFF1CBD13B50C4622460520AC
:103C60000099FFF7A2FF1CBD13B50C4622460620A3
:103C70000099FFF79AFF1CBD37B5044615460A2C7C
:103C800002D34FF0FF303EBDCD4850F8240030B194
:103C9000CB4850F82420294601989047F3E74FF08D
:103CA000FF30F0E713B50446002220460199FFF7E4
:103CB000E3FF1CBD03B502460A2A02D34FF0FF30D2
:103CC0000CBDC04800EB4200BDF80410018000208C
:103CD000F6E702460A2A00D211B94FF0FF307047CA
:103CE000B64800EB4200008808800020F7E738B5AE
:103CF000B5480168B5480068FEF77CFB0A2853D92F
:103D0000B1480068B149086000244AE000200090F2
:103D100069462046FFF7DDFFAA4800EB4401022276
:103D2000684602F0B9FED8B39DF80000A54911F825
:103D30001410884206DD9DF80000401EC0B28DF8C8
:103D400000000CE09DF800009E4911F81410884214
:103D500005DA9DF80000401CC0B28DF800009DF807
:103D60000100984901EB44014978884206DD9DF83D
:103D70000100401EC0B28DF801000DE09DF8010069
:103D8000904901EB44014978884205DA9DF8010029
:103D9000401CC0B28DF8010020460099FFF782FF59
:103DA000641C0A2CB2D300BF38BD70B5044614257C
:103DB0002A468249204602F0BAFE70BD38B5054653
:103DC000002410E005EB44000088014600902046E6
:103DD000FFF768FF05EB440000880146009020468D
:103DE000FFF768FF641C0A2CECDB38BD38B5FFF721
:103DF000D3FD00240AE0714800EB44000088012252
:103E0000014600902046FFF737FF641C0A2CF2D3CE
:103E100038BD38B503208DF8020010208DF803005E
:103E200000242AE004EB4402694B03EB82029188F0
:103E300004EB440253F82200002201F0D0F804EB16
:103E40004400634901EB80008088ADF8000004EB7A
:103E500044015F4A52F82100694601F00FF804EB73
:103E600044025B4B03EB8202918804EB440253F85B
:103E70002200002201F0B3F8641C022CD2DB38BD12
:103E8000704770B504460D46022C02D34FF0FF3048
:103E900070BD04EB44004E4901EB8000457204EB19
:103EA000440001EB8000007AA84212D004EB4402E7
:103EB0000B4603EB8202918804EB440253F8220084
:103EC0002A4601F08CF804EB4400414901EB8000E4
:103ED00005720020DCE70246022A00D211B94FF039
:103EE000FF30704702EB4200394B03EB8000407A11
:103EF00008700020F5E730B50546002404E02919D4
:103F00002046FFF7E8FF641C022CF8DB30BD70B5DB
:103F10000546002404E0295D2046FFF7B2FF641C3B
:103F2000022CF8DB70BD10B5FFF773FF002404E02E
:103F300000212046FFF7A5FF641C022CF8D310BD1A
:103F400070B505462C4604B970BD04F11400FFF7A6
:103F5000F3FB2046FFF732FF94F82000FFF7BBFA8F
:103F600094F82100FFF7CBFA00BFEDE770B50546E6
:103F70002C4604B970BD04F11400FFF7B2FB2046D3
:103F8000FFF713FF04F11E00FFF7B5FFFFF7C6FAB6
:103F900084F82000FFF7C8FA84F8210000BFE9E7A1
:103FA00010B50C48FFF7CCFF10BD10B50948223002
:103FB000FFF7C6FF10BD00001F760008C8000020F4
:103FC00050760008DC000020840000200C01002056
:103FD000F40000209A0B002010B522480168224806
:103FE0000068FEF707FA642800D210BD1D4800687B
:103FF0001D49086022211D4802F018FE1B48FFF7EA
:10400000B5FF222219491A4802F046FD58B1222272
:104010001649174802F08BFD012016490870114817
:1040200000681549086013480078C8B10D48016858
:1040300011480068FEF7DEF943F6982188420FD94F
:1040400022220E490A4802F027FD30B122220849F7
:104050000A4802F06CFDFEF74CFF0020054908708D
:1040600000BFC2E78400002018010020540C00208B
:10407000320C002010010020140100209A0B0020B7
:1040800031490143314A1160704770B50021002366
:104090000F22C47804B32D4C246804F4E064C4F502
:1040A000E064210AC1F10403CA40447804FA03F130
:1040B0008478144021430901254C0678A1550478E1
:1040C00004F01F050124AC4005786D11AD0005F129
:1040D000E025C5F8004109E0047804F01F0501243B
:1040E000AC401C4D0678761145F8264070BD1A4A42
:1040F0000A400243154B1B1F1A60704739B1134A1F
:10410000121D12680243114B1B1D1A6006E00F4A74
:10411000121D126882430D4B1B1D1A607047042844
:1041200008D14FF0E021096941F004014FF0E0228D
:10413000116107E04FF0E021096921F004014FF01F
:10414000E0221161704700000000FA050CED00E06C
:1041500000E400E080E100E080FFFF1F10B50446AE
:10416000FA48844208D10121401501F05DF900218F
:10417000601501F059F917E0F548844208D1012192
:10418000001501F051F90021201501F04DF90BE067
:10419000F048844208D10121C80301F045F900210B
:1041A0004FF4004001F040F910BD30B50246002048
:1041B00000235068E84C20400D790C6844EA05243F
:1041C000204350609068E54C2040D1E902542C43D4
:1041D0004D7944EA450420439060D06A20F4700091
:1041E0000C7C641EE4B2234340EA0350D06230BD2D
:1041F00000210160017141718160C1600121017480
:10420000704721B1826842F00102826003E0826857
:1042100022F001028260704721B1826842F480720C
:10422000826003E0826822F480728260704710B579
:104230000023CBB21AB144681C43446002E04468D6
:104240009C43446010BD816841F008018160704763
:10425000014600208A6802F008020AB1012000E04D
:1042600000207047816841F0040181607047014679
:1042700000208A6802F004020AB1012000E0002058
:10428000704721B1826842F4A002826003E0826834
:1042900022F4A00282607047014600208A6802F47E
:1042A00080020AB1012000E00020704710B50A46E4
:1042B00000210023416821F46041531E41EA43314B
:1042C000416010BD21B1426842F40062426003E0E7
:1042D000426822F4006242607047F0B504460D4621
:1042E00000200021092D11DDE068A5F10A0606EB8A
:1042F0004607072606FA07F18843A5F10A0606EBEA
:10430000460603FA06F10843E0600CE0206905EB7D
:104310004507072606FA07F1884305EB450603FA29
:1043200006F108432061072A0FDA606B561E06EB80
:1043300086071F2606FA07F18843561E06EB8606F7
:1043400005FA06F10843606322E00D2A0FDA206BBC
:10435000D61F06EB86071F2606FA07F18843D61FED
:1043600006EB860605FA06F10843206310E0E06AD2
:10437000A2F10D0606EB86071F2606FA07F1884311
:10438000A2F10D0606EB860605FA06F10843E06287
:10439000F0BD21B1826842F48012826003E082683D
:1043A00022F48012826070470146C86C80B2704768
:1043B00066484C300068704721B1426842F4806220
:1043C000426003E0426822F480624260704721B19B
:1043D000426842F48052426003E0426822F4805214
:1043E000426070470A460021816821F4E041114390
:1043F0008160704721B1826842F40042826003E02C
:10440000826822F400428260704721B1826842F4DF
:104410000212826003E0826822F402128260704716
:10442000014600208A6802F400120AB1012000E06F
:1044300000207047F0B504461546002000220026F3
:10444000092911DDE068A1F10A0707EB470C0727EE
:1044500007FA0CF29043A1F10A0707EB470703FAAA
:1044600007F21043E0600CE0206901EB410C0727E4
:1044700007FA0CF2904301EB410703FA07F21043ED
:104480002061A06BC0F30156EF1C06F1010CA7EBF5
:104490000C0707EB870C1F2707FA0CF29043EF1C61
:1044A00006F1010CA7EB0C0707EB870701FA07F2EF
:1044B0001043A063F0BD10B50A4600210023816BB4
:1044C00021F44011531E41EA0351816310BD08B528
:1044D000002300930090009B0B440093009B1A6004
:1044E00008BD08B5024600200090009201F12800A6
:1044F000009B184400900098006880B208BD0A46EE
:1045000000214168164B19401143416070474162D8
:10451000826270470A460021416821F01F01114361
:104520004160704740B109490831096841F4000110
:10453000064A0832116007E004490831096821F48D
:104540000001024A08321160704700000024014057
:1045500000280140003C0140FFFEF0FFFDF7F1FFA5
:10456000FFFD3FFF0246002013680B400BB1012006
:1045700000E000207047CA430260704770B50246F1
:104580000020002300240B125568CEB205EA060471
:1045900015681D4015B10CB1012000E0002070BD70
:1045A00000220A12D34303607047000001684FF6EF
:1045B000FE72114001600021016041608160C160B4
:1045C0008D49884208D18C490839496841F00F016A
:1045D000894A083A51608AE087491431884208D1F3
:1045E00085490839496841F0F001834A083A516029
:1045F0007DE081492831884208D17F4908394968DE
:1046000041F470617C4A083A516070E07A493C316B
:10461000884208D178490839496841F47041764A9E
:10462000083A516063E074495031884208D17249B8
:104630000839496841F470216F4A083A516056E0E0
:104640006D496431884208D16B490839496841F4A1
:104650007001694A083A516049E0674978318842F7
:1046600008D165490839496841F07061624A083AE1
:1046700051603CE06149884206D1011F096841F060
:104680000F01021F116032E05C491431884208D1E9
:104690005A49091F096841F0F001584A121F116078
:1046A00025E056492831884208D15449091F096834
:1046B00041F47061514A121F116018E04F493C31BA
:1046C000884208D14D49091F096841F470414B4A9D
:1046D000121F11600BE049495031884207D1474908
:1046E000091F096841F47021444A121F1160704784
:1046F00010B50022026847F6F0739A430C6A8B6883
:1047000023430C6923434C6923438C692343CC69BD
:1047100023434C6A23438C6A23431A430260CB68C9
:1047200043600B6883604B68C36010BD002101606B
:1047300041608160C160016141618161C16101626B
:1047400041628162704721B1026842F00102026059
:1047500004E002684FF6FE731A40026070471AB117
:1047600003680B43036002E003688B4303607047F8
:10477000416070470146486880B27047014600209A
:10478000002201F080531BB11C4B083B1A6802E069
:10479000194B083B1A6802EA01030BB1012000E043
:1047A0000020704700F0805119B11449091F0860BA
:1047B00002E0114908394860704701460020002294
:1047C00001F080531BB10D4B083B1A6802E00A4B05
:1047D000083B1A6802EA01030BB1012000E0002047
:1047E000704700F0805119B10449091F086002E0C8
:1047F0000149083948607047080002400804024037
:1048000001460020FE4A106800F03800084310609E
:104810007047FB49096821F00801F94A1160114607
:104820000968014311607047F549096821F01001DA
:10483000F34A116011460968014311607047F1485D
:10484000EF494860F04848607047EE48EC494860DE
:10485000ED4848607047EA48006940F08000E84948
:1048600008617047E648006940F08000E44908614B
:1048700070470420E249C96801F0010109B1012033
:104880000EE0DF49C96801F0040109B1022007E028
:10489000DB49C96801F0100109B1032000E00420E0
:1048A000704700B502460423FFF7E3FF034603E029
:1048B000FFF7DFFF0346521E012B01D1002AF7D17B
:1048C00002B90523184600BD30B5044604254FF44F
:1048D0003020FFF7E6FF0546042D17D1C8480069D0
:1048E00040F00200C649086108464461006940F092
:1048F000400008614FF43020FFF7D3FF0546C04861
:10490000006941F6FD710840BD490861284630BD87
:1049100010B504244FF43020FFF7C3FF0446042CE5
:1049200016D1B748006940F00400B549086108464F
:10493000006940F0400008614FF43020FFF7B1FFFC
:104940000446AF48006941F6FB710840AC49086174
:10495000204610BD00B502460423FFF78AFF034638
:1049600003E0FFF786FF0346521E012B01D1002A08
:10497000F7D102B90523184600BD10B504244FF441
:104980003020FFF7E7FF0446042C16D19C4800694D
:1049900040F004009A4908610846006940F0400070
:1049A00008614FF43020FFF7D5FF044694480069B2
:1049B00041F6FB71084092490861204610BD002075
:1049C0008F49C96901F0020109B1012000E000200E
:1049D000704730B5A5250424FFF7F1FF00B100258D
:1049E0004FF43020FFF75DFF0446042C3AD1854890
:1049F00083498860844888600846006940F0200048
:104A000008610846006940F0400008614FF430201A
:104A1000FFF747FF0446042C1BD17948006941F693
:104A2000DF710840764908610846006940F01000CF
:104A3000086176480580E002FFF733FF0446052C45
:104A400010D06F48006941F6EF7108406C49086169
:104A500008E0052C06D06A48006941F6EF7108406D
:104A600067490861204630BD78B506460C460425E6
:104A700000200090E802FFF714FF0546042D24D122
:104A80005F48006940F001005D4908613480E80238
:104A9000FFF707FF0546042D10D1B01C0090200C35
:104AA00000990880E802FFF7FCFE054654480069BB
:104AB00041F6FE7108405249086106E0504800691D
:104AC00041F6FE7108404E490861284678BD70B530
:104AD00004460D460426F002FFF7E3FE0646042EC8
:104AE00011D14748006940F001004549086125801F
:104AF000F002FFF7D6FE06464148006941F6FE7116
:104B000008403F490861304670BD70B505460E4605
:104B10000424E002FFF7C5FE0446042C17D13948EF
:104B200037498860384888600846006940F01000BE
:104B300008612E80E002FFF7B4FE0446052C06D083
:104B40002F48006941F6EF7108402D490861204661
:104B500070BD2DE9F04304464FF6FF763746B04668
:104B6000B1460425E443E6B2C4F30727C4F307487B
:104B70004FEA1469E802FFF794FE0546042D49D177
:104B800020481F498860204888600846006940F036
:104B900010000861FF2E06D01C4808300680E8028D
:104BA000FFF77FFE0546042D08D1FF2F06D01748DA
:104BB0000A300780E802FFF774FE0546042D0AD18B
:104BC000B8F1FF0F07D011480C30A0F80080E802C0
:104BD000FFF767FE0546042D0AD1B9F1FF0F07D094
:104BE0000A480E30A0F80090E802FFF75AFE05468A
:104BF000052D0FD00248006941F6EF71084007E02B
:104C00000020024023016745AB89EFCD00F8FF1F6C
:104C1000664908612846BDE8F08330B5054604249E
:104C20004FF43020FFF73DFE0446042C41D160488C
:104C30005E4988605F4888600846006940F020004F
:104C400008610846006940F0400008614FF43020D8
:104C5000FFF727FE0446042C22D15448006941F690
:104C6000DF710840514908610846006940F01000B2
:104C700008611DB100205049088002E0A5204E497E
:104C800008804FF43020FFF70CFE0446052C10D0AE
:104C90004648006941F6EF7108404449086108E060
:104CA000052C06D04148006941F6DF7108403F49B4
:104CB0000861204630BDF0B505460E46174604246F
:104CC0003B483A4988603B488860E002FFF7E9FDCD
:104CD0000446042C19D13548006940F010003349CE
:104CE000086147F0F800304328433349891C0880A5
:104CF000E002FFF7D6FD0446052C06D02B480069DC
:104D000041F6EF710840294908612046F0BD274867
:104D1000C069800870472548006A70470020234911
:104D2000096801F0200109B1012000E0002070476E
:104D300029B11E4A126902431C4B1A6104E01B4A46
:104D400012698243194B1A617047014600200129FC
:104D500008D1164AD26902F001020AB1012008E026
:104D6000002006E0114AD2680A400AB1012000E0A2
:104D7000002070470D49C860704704200B49C9687E
:104D800001F0010109B101200EE00849C96801F0F4
:104D9000040109B1022007E00449C96801F01001CB
:104DA00009B1032000E00420704700000020024009
:104DB00023016745AB89EFCD00F8FF1F10B504460E
:104DC000CC48844208D10121042000F02DFB0021B1
:104DD000042000F029FB46E0C748844208D10121A5
:104DE000082000F021FB0021082000F01DFB3AE024
:104DF000C248844208D10121102000F015FB002197
:104E0000102000F011FB2EE0BD48844208D10121A2
:104E1000202000F009FB0021202000F005FB22E00B
:104E2000B848844208D10121402000F0FDFA002159
:104E3000402000F0F9FA16E0B348844208D101217D
:104E4000802000F0F1FA0021802000F0EDFA0AE065
:104E5000AE48844207D10121801500F0E5FA002117
:104E6000A01500F0E1FA10BD10B50121084600F0D0
:104E7000DBFA0021012000F0D7FA10BD2DE9F04146
:104E8000024600250026002000230024002791F878
:104E900003C00CF00F0591F803C00CF0100CBCF12E
:104EA000000F03D091F802C04CEA050591F800C04C
:104EB000BCF1000F31D0146800202BE04FF0010C42
:104EC0000CFA00F3B1F800C00CEA03069E4220D1B0
:104ED00083004FF00F0C0CFA03F7BC4305FA03FCF8
:104EE0004CEA040491F803C0BCF1280F06D14FF03E
:104EF000010C0CFA00FCC2F814C00AE091F803C0DF
:104F0000BCF1480F05D14FF0010C0CFA00FCC2F8BF
:104F100010C0401C0828D1D31460B1F800C0BCF107
:104F2000FF0F34DD546800202EE000F1080C4FF034
:104F3000010808FA0CF3B1F800C00CEA03069E421F
:104F400021D183004FF00F0C0CFA03F7BC4305FA94
:104F500003FC4CEA040491F803C0BCF1280F05D10E
:104F600000F1080C08FA0CF8C2F8148091F803C09C
:104F7000BCF1480F07D100F1080C4FF0010808FA06
:104F80000CF8C2F81080401C0828CED35460BDE84D
:104F9000F0814FF6FF710180022181700421C17000
:104FA00070470246002093680B400BB1012000E0DF
:104FB000002070470146886880B270470246002092
:104FC000D3680B400BB1012000E000207047014680
:104FD000C86880B2704701617047416170470AB18B
:104FE000016100E041617047C16070474FF4803259
:104FF0000A438261816182618269826970470246E7
:105000000020434B18684FF68073184040EA0210A6
:1050100008433F4B186070473E49C8617047F0B580
:105020000A46002300240021002500F00046B6F1C6
:10503000004F02D1364EF16901E0354E7168C0F380
:10504000034583B200F44016B6F5401F08D121F0A5
:1050500070612F4E766826F070662D4F7E6012E0EC
:1050600000F48016B6F5801F06D1032606FA05F473
:10507000A14341F0706106E0460D360103FA06F6E1
:10508000B14341F0706122B1460D360103FA06F6D4
:10509000314300F00046B6F1004F02D11C4EF161E1
:1050A00001E01B4E7160F0BD30B500228B071C0F74
:1050B0000F2303FA04F2164B08338C1053F82430F4
:1050C0009343134C08348D1044F8253023468C103C
:1050D00053F824308C07240F00FA04F423430C4CBB
:1050E00008348D1044F8253030BD0A49DC310860A1
:1050F0007047000000080140000C01400010014012
:105100000014014000180140001C01400020014033
:105110000000014000002042DF48006840F001002C
:10512000DD49086008464068DC490840DA494860C3
:1051300008460068DA490840D74908600846006810
:1051400020F4802008600846406820F4FE00486093
:105150004FF41F0088607047CF49096821F48031FF
:10516000CD4A11601146096821F480211160B0F523
:10517000803F03D0B0F5802F0ED106E0C649096804
:1051800041F48031C44A116007E0C349096841F421
:10519000A021C14A116000E000BF00BF704710B5F8
:1051A00001460022002300204A11012A02D1BA4CF4
:1051B000236806E0022A02D1B74C236A01E0B64C0C
:1051C000636A01F01F02012494401C400CB10120CD
:1051D00000E0002010BD38B500200090002400251C
:1051E00000BF3120FFF7DBFF05460098401C009010
:1051F0000098B0F5A06F01D0002DF2D03120FFF75C
:10520000CEFF08B1012400E00024204638BD01464D
:105210000020A14A106820F0F80040EAC1001060A8
:105220007047A04908607047024600209A4B5868B2
:1052300020F47C1042EA01031843974B58607047F2
:1052400098490866704701460020934A506820F04C
:1052500003000843506070478F48406800F00C001E
:105260007047014600208C4A506820F0F000084347
:105270005060704701460020874A506820F4E06083
:1052800008435060704701460020834A506820F46C
:10529000605040EAC1005060704729B17E4A527A9E
:1052A00002437D4B5A7204E07B4A527A82437A4B26
:1052B0005A7270477B49D831086070470146002018
:1052C000754A506820F44040084350607047002100
:1052D000714A20321170704A82F82010012802D0E1
:1052E00004280AD104E001216B4A2032117005E044
:1052F0000521694A2032117000E000BF00BF7047ED
:105300006949086070476449096A0143624A116249
:105310007047654944390860704730B50021002264
:10532000002400235C4D6D6805F00C0121B10429B7
:1053300005D0082923D105E05C4D056022E05B4DD6
:1053400005601FE0544D6D6805F47012524D6D6894
:1053500005F48034022505EB92421CB9544D5543A7
:1053600005600BE04C4D6D6805F400351DB1504DE6
:105370005543056002E04D4D5543056002E04B4D3D
:10538000056000BF00BF444D6D6805F0F0010909DC
:10539000484D6B5C0568DD4045603F4D6D6805F428
:1053A000E061090A434D6B5C4568DD4085603A4D1C
:1053B0006D6805F46051C90A3E4D6B5C4568DD407F
:1053C000C560354D6D6805F44041890B3A4D6B5C05
:1053D000C568B5FBF3F5056130BD29B12E4A5269A8
:1053E00002432D4B5A6104E02B4A526982432A4BF7
:1053F0005A61704729B1284A92690243264B9A6143
:1054000004E0254A92698243234B9A61704729B18F
:10541000214AD2690243204BDA6104E01E4AD26974
:1054200082431D4BDA61704729B11B4AD26802439F
:10543000194BDA6004E0184AD2688243164BDA60EE
:10544000704729B1144A12690243134B1A6104E0F0
:10545000114A12698243104B1A6170471249403950
:10546000086070470F49C86470470B49C87170479E
:105470000948406A40F08070074948627047014619
:105480000020054A92680A400AB1012000E000208D
:105490007047014988727047001002400000FFF811
:1054A000FFFFF6FE000042428004424200127A00F2
:1054B00000093D001C0100202C01002010B504460D
:1054C000BE48844208D101218014FFF7ADFF0021BE
:1054D000A014FFF7A9FF16E0B948844208D10121C2
:1054E0000014FFF7AEFF00212014FFF7AAFF0AE027
:1054F000B448844207D10121C013FFF7A2FF002165
:10550000E013FFF79EFF10BD10B50022028802F4E1
:1055100041520B884C8823438C882343CC882343F7
:105520000C8923434C8923438C892343CC8923430F
:105530001A430280838B4FF2FF74234083830B8ACC
:10554000038210BD2DE9F04F85B005460C464FF0A3
:10555000000902274FF000084FF0010B0026B24669
:10556000A88B4FF240010840A88302202884B5F898
:105570001C90A068022801D100BF38E0A08810B9B3
:105580004FF0010B01E04FF0020B8D48854200D136
:1055900000E000BF6846FFF7C0FEDDF800A0E0882D
:1055A000B0F5007F0AD14FEA1A2000EB80004000DE
:1055B000A168B0FBF1F0401D86B20BE04FEA4B1042
:1055C000BAFBF0F000EB80004000A168B0FBF1F006
:1055D000401D86B20A20B6FBF0F606F00108A6EBE5
:1055E0000800C0F34F074FF6FF7000EA0828022FAB
:1055F00001DBFF2F02DD02274FF00008E08840EAC0
:10560000080038432884A088A1890843618808439A
:105610002188084340F4006040EA0909A5F81C907D
:1056200005B0BDE8F08F0021018041808180C180FC
:10563000018141818181C18107210182704700215F
:10564000018041808180C1800221816000218181AF
:10565000704721B1028842F04002028004E00288D3
:105660004FF6BF731A400280704721B1828B42F41B
:105670008062828304E0828B4FF6FF331A4082837C
:10568000704730B5002400230C110125A540ABB2B2
:105690001AB185881D43858002E085889D438580F9
:1056A00030BD1AB183880B43838002E083888B432B
:1056B00083807047818170470146888970474FF623
:1056C000FF62914204D0028842F48072028004E0BA
:1056D00002884FF6FF631A400280704721B182882A
:1056E00042F00402828004E082884FF6FB731A4085
:1056F0008280704702884FF2FF731A40028002884E
:105700000A4302807047018841F48051018070474C
:1057100021B1028842F40052028004E002884DF672
:10572000FF731A400280704702460020012901D011
:10573000108B00E0908A70470146088A7047B1F5E7
:10574000804F04D1028842F48042028004E0028843
:105750004BF6FF731A4002807047024600201389FF
:105760000B400BB1012000E000207047CA430281CA
:105770007047F0B50246002000240023002501F008
:105780000F070126BE40B4B20B1101269E40B3B2F2
:10579000968806EA03051689264016B10DB1012048
:1057A00000E00020F0BD10B5002201F00F0401233D
:1057B000A3409AB2D343038110BD000000300140E2
:1057C00000380040003C004010B50446FE488442CA
:1057D00008D10121C014FFF727FE0021E014FFF7D4
:1057E00023FEC4E0B4F1804F08D101210846FFF741
:1057F00028FE00210120FFF724FEB8E0F348844290
:1058000008D101210220FFF71CFE00210220FFF732
:1058100018FEACE0EE48844208D101210420FFF7D5
:1058200010FE00210420FFF70CFEA0E0E9488442AE
:1058300008D101210820FFF704FE00210820FFF70E
:1058400000FE94E0E448844208D101211020FFF7D3
:10585000F8FD00211020FFF7F4FD88E0DF488442C6
:1058600008D101212020FFF7ECFD00212020FFF7C7
:10587000E8FD7CE0DA48844208D101214014FFF7BA
:10588000D3FD00216014FFF7CFFD70E0D5488442BE
:1058900009D10121C804FFF7C7FD00214FF4002002
:1058A000FFF7C2FD63E0D048844209D10121080519
:1058B000FFF7BAFD00214FF48010FFF7B5FD56E069
:1058C000CA48844209D101214805FFF7ADFD0021F6
:1058D0004FF40010FFF7A8FD49E0C548844208D105
:1058E00001214020FFF7ADFD00214020FFF7A9FD79
:1058F0003DE0C048844208D101218020FFF7A1FD8E
:1059000000218020FFF79DFD31E0BB48844208D193
:1059100001218015FFF795FD0021A015FFF791FDEE
:1059200025E0B648844209D101210804FFF77CFD37
:1059300000214FF48030FFF777FD18E0B048844233
:1059400009D101214804FFF76FFD00214FF4003019
:10595000FFF76AFD0BE0AB48844208D101218804BF
:10596000FFF762FD00214FF48020FFF75DFD10BDC1
:1059700000220288944B98420ED0994B98420BD04B
:10598000B0F1804F08D0914B984205D0904B98428F
:1059900002D0904B984204D14FF68F731A404B8837
:1059A0001A438D4B984207D08C4B984204D04FF647
:1059B000FF431A40CB881A4302808B8883850B886B
:1059C0000385814B98420BD0854B984208D08B4B76
:1059D000984205D08A4B984202D08A4B984201D116
:1059E0000B7A038601238382704770B5002400225E
:1059F0000023058C4FF6FE7635400584028C8388A3
:105A0000048B4FF68F752C40B51E2C400D882C430F
:105A1000751E2A400D892A434D882A436A4DA842A3
:105A20000BD06F4DA84208D0744DA84205D0744DDC
:105A3000A84202D0734DA84213D14FF6F7752A4001
:105A40004D892A434FF6FB752A408D882A434FF62D
:105A5000FF652B404FF6FF552B408D892B43CD8999
:105A60002B4383800483CD888586028470BD70B506
:105A7000002400220023058C4FF6EF763540058484
:105A8000028C8388048B48F6FF752C404FF6FF4547
:105A90002C400D884FF6FF7606EA05252C434FF67D
:105AA000DF752A400D8906EA05152A434D8806EA66
:105AB00005152A43444DA84202D0494DA8421DD1A4
:105AC0004FF67F752A404D894FF6FF7606EA051599
:105AD0002A434FF6BF752A408D8806EA05152A43EA
