:020000040800F2
:1000000090120020E1010008E9010008EB0100085E
:10001000ED010008EF010008F101000800000000F8
:10002000000000000000000000000000F3010008D4
:10003000F501000800000000F7010008572400083F
:10004000FB010008FB010008FB010008FB010008A0
:10005000FB010008FB010008FB010008FB01000890
:10006000FB010008FB010008FB010008FB01000880
:10007000FB010008FB010008FB010008FB01000870
:10008000FB010008FB010008FB010008FB01000860
:10009000FB010008FB010008FB010008FB01000850
:1000A000FB010008FB010008FB010008FB01000840
:1000B000FB010008FB010008FB010008FB01000830
:1000C000FB010008FB010008FB010008FB01000820
:1000D000FB0100081B100008FB010008FB010008E1
:1000E0007B040008FB010008FB01000800F002F897
:1000F00000F05EF80AA090E8000C82448344AAF164
:100100000107DA4501D100F053F8AFF2090EBAE861
:100110000F0013F0010F18BFFB1A43F0010318473B
:1001200094670000B46700000A444FF0000C10F818
:10013000013B13F0070408BF10F8014B1D1108BF65
:1001400010F8015B641E05D010F8016B641E01F805
:10015000016BF9D113F0080F1EBF10F8014BAD1C55
:100160000C1B09D16D1E58BF01F801CBFAD505E073
:1001700014F8016B01F8016B6D1EF9D59142D6D3CD
:10018000704700000023002400250026103A28BFF5
:1001900078C1FBD8520728BF30C148BF0B607047F9
:1001A0001FB59DE8030005F019FF1FBD10B510BD78
:1001B00005F070FF1146FFF7F3FF00F001FE05F0B8
:1001C0008EFF03B4FFF7F2FF03BC05F0BFFF000092
:1001D000EFF3108072B6704780F31088704700000C
:1001E0000948804709480047FEE7FEE7FEE7FEE7CB
:1001F000FEE7FEE7FEE7FEE7FEE7FEE70448054907
:10020000054A064B70470000FF020008ED00000899
:10021000900C002090120020900E0020900E0020E4
:100220000CB50020019000906D48006840F48030CB
:100230006B49086000BF6A48006800F40030009015
:100240000198401C0190009818B90198B0F5A06F72
:10025000F1D16348006800F4003010B10120009033
:1002600001E0002000900098012843D15D4800681B
:1002700040F010005B4908600846006820F0030069
:1002800008600846006840F0020008605448406872
:10029000534948600846406848600846406840F452
:1002A000806048600846406820F47C10486008463A
:1002B000406840F4E81048600846006840F08070EC
:1002C000086000BF4648006800F000700028F9D0C0
:1002D0004348406820F003004149486008464068B0
:1002E00040F00200486000BF3D48406800F00C004C
:1002F0000828F9D10CBD10B5FFF792FF10BD10B55D
:100300003748006840F001003549086008464068F9
:10031000354908403249486008460068334908407A
:100320002F4908600846006820F4802008600846CD
:10033000406820F4FE0048604FF41F008860FFF71B
:10034000DAFF4FF000602A4908602A48091D08605A
:1003500010BD10B5002100200022214B5B6803F086
:100360000C0121B1042906D0082928D107E0224B2D
:10037000224C236027E0204B204C236023E0184BC5
:100380005B6803F47010164B5B6803F48032022341
:1003900003EB904022B91A4B4343184C23600DE005
:1003A0000F4B5B6803F4003323B1154B4343134CED
:1003B000236003E0104B4343104C236003E00E4BDB
:1003C0000E4C236000BF00BF054B5B68C3F30313F3
:1003D0000C4CE15C094B1B68CB40084C236010BD02
:1003E00000100240002002400000FFF8FFFFF6FE70
:1003F00008ED00E00003FA0500127A00000000207A
:1004000000093D00040000201FB548208DF80F00B2
:1004100002208DF80E004003ADF80C0003A98248BD
:1004200004F022F84FF40040ADF80C0003A97E4818
:1004300004F01AF800208DF808000C208DF809004F
:1004400001208DF80A000E21022004F023F94FF458
:100450008040019001A803F049FC01208DF80100C3
:1004600000208DF8020001208DF8030028208DF86F
:100470000000684603F0C3FB1FBD70B54FF4804019
:1004800003F09AFC002832D06748806885B266483D
:10049000806886B206F4804605F4004526B90DB999
:1004A000012405E0002403E00DB9002400E001244C
:1004B00084F001042CB15D484088401C5B494880B1
:1004C00004E05A484088401E5849488057484088B0
:1004D0000F2807DD1CB100205449488002E00F209E
:1004E000524948804FF4804003F077FC00BF70BD54
:1004F00010B5FFF789FF002410E004EB44014B4ADC
:1005000022F81140002004EB440102EB4101488035
:1005100004EB440102EB41018880641C002CECD008
:1005200010BD014648888A88904203D04888888058
:10053000012070470020FCE770B504460026012C1E
:1005400002DD4FF6FF7070BD04EB4400374901EB4C
:1005500040004088401C85B2FFF73AFE064634480A
:1005600030F81400A84200DA002504EB44002F49BB
:1005700001EB4000858004EB440001EB4000458026
:100580003046FFF729FE2846DDE7014601EB410032
:10059000264A02EB40008088704770B504460D463D
:1005A0000026012C02DD4FF6FF7070BD204830F8A8
:1005B0001400A84202DA1E4830F81450FFF708FE73
:1005C000064604EB4400194901EB4000858004EB2A
:1005D000440001EB400045803046FFF7FDFD284612
:1005E000E3E710B58AB0002419E004EB44010F4A98
:1005F00002EB4100FFF795FF80B104208DF8000069
:1006000004EB4400094901EB400001680291808835
:10061000ADF80C00684600F0B1FB00BF641C002C74
:10062000E3D00AB010BD000000100140140000200B
:10063000986100082DE9F041024692F8644004F008
:100640000706002009E0FC4C215CFC4C34F811400A
:10065000FB4D55F821502C61401C0A28F3D3002390
:100660003CE0F54FF95CF54F37F81170DFF8D0C377
:100670005CF821C0CCF81470002000E0401C282851
:10068000FCD300BF00BF00BF0024002013E0ED4FEB
:1006900057F82070BF68DFF8B0C33CF810C007EA15
:1006A0000C050DB1012700E000273D4605FA00F7D3
:1006B0002743BCB2401C0828E9D3E04F37F811703B
:1006C000DFF87CC35CF821C0CCF8107006EB86081C
:1006D00002F1140707EB4807FC545B1C0A2BC0D33C
:1006E000546E641C5466BDE8F081F0B503460C46B8
:1006F000FF250026002118E000220FE001EB810019
:1007000003EB4000875C481C00EB800003EB4000DB
:10071000805C874201D0761C02E0521C0A2AEDDB85
:1007200000BF0A2A00D10D46491C0729E4DB052E2B
:1007300001DD0020F0BD082D01DB0020FAE705EB0C
:10074000850003EB40000768276047686760008901
:1007500020810120EEE770B502460D46002366E0D9
:10076000581CC4B25FE002EB8300407800F0F00058
:1007700002EB8406767806F0F006B04251D10021F3
:100780000FE002EB8300407800F00F0002EB8106DF
:10079000767806F00F06B04201D1012070BD481CEA
:1007A000C1B29942EDDB581CC1B20FE002EB8300ED
:1007B000407800F00F0002EB8106767806F00F0615
:1007C000B04201D10120E9E7481CC1B2A942EDDBEA
:1007D00000210FE002EB8400407800F00F0002EBF4
:1007E0008106767806F00F06B04201D10120D5E7E8
:1007F000481CC1B2A142EDDB601CC1B20FE002EBAC
:100800008400407800F00F0002EB8106767806F055
:100810000F06B04201D10120C0E7481CC1B2A94275
:10082000EDDB601CC4B2AC429DDB581CC3B2681E39
:10083000984295DC0020B1E72DE9F05F074697F874
:10084000640000F0070007287DD1394607F1140045
:10085000FFF74BFF8346BBF1000F02D10020BDE83C
:10086000F09FB94607F10A0A07F16808002400253D
:100870005DE00020002119F805201AF8053082EA11
:10088000030019F805201AF8053002EA030158B3ED
:10089000002627E00122B240024012B3082C00DB00
:1008A00048E0F02202EA051206F00F031A4308EBB3
:1008B00084035A70654A02EBC502925D08F8242051
:1008C00019F805200123B3401A4022B1022208EB97
:1008D00084039A7003E0012208EB84039A70621C7F
:1008E000D4B2761C082ED5DB01B300261CE0012211
:1008F000B2400A40BAB1082C00DB1BE0F02202EA49
:10090000051206F00F031A4308EB84035A704F4A8E
:1009100002EBC502925D08F82420EE2208EB840366
:100920009A70621CD4B2761C082EE0DB6D1C0A2D76
:100930009FDB00BFD9F80000CAF80000D9F8040016
:10094000CAF8040000E00FE0B9F80800AAF80800AF
:10095000042C07DB214607F16800FFF7FCFE08B115
:1009600000207CE720467AE7002078E738B50320AE
:100970008DF8020010208DF80300002412E03248A8
:1009800030F81400ADF800002E4951F824006946F3
:1009900003F06AFD2C4830F814002A4951F824105D
:1009A0004861641C082CEAD300BF28208DF803009E
:1009B00000240BE0244830F81400ADF80000214971
:1009C00051F82400694603F04FFD641C082CF1D354
:1009D00000BF38BD38B503208DF8020010208DF817
:1009E000030000240BE01A4830F81400ADF80000B2
:1009F000184951F82400694603F036FD641C082CA0
:100A0000F1D338BD38B503208DF8020010208DF8E1
:100A1000030000240BE0094830F81400ADF8000092
:100A2000074951F82400694603F01EFD641C0A2C96
:100A3000F1D300241CE0000038620008F4610008D3
:100A4000CC6100089C610008BC6100082100002006
:100A50002862000808620008A44830F81400ADF8C5
:100A60000000A34951F82400694603F0FDFC641C12
:100A70000A2CF1D338BD002007E09E4931F8101050
:100A80009D4A52F820205161401C0828F5D3704738
:100A9000002007E0954931F81010954A52F82020BF
:100AA0001161401C0A28F5D37047002007E08F49E8
:100AB00031F810108E4A52F820201161401C0A288B
:100AC000F5D3704710B5FFF7F0FFFFF7E1FF10BD5A
:100AD0002DE9F04105460A21E868B0FBF1F201FB7F
:100AE0001206AF5DFFF7C7FFFFF7D2FF00240BE050
:100AF0000120A040384030B17E4830F814007E49D3
:100B000051F824100861641C082CF1D3774830F8A0
:100B10001600774951F826104861701CE860BDE85E
:100B2000F08110B5FFF722FFFFF754FFFFF76AFFD0
:100B3000FFF7C8FF8821714805F00AFA70480021C4
:100B4000016041608160C1600A216E4805F000FAD1
:100B50006D4800210160416001810A216B4805F068
:100B6000F7F910BD30B50B4600F007000A24B3FBBF
:100B7000F4F504FB1533624CE1182AB10C78012519
:100B800085402C430C7004E00C7801258540AC4373
:100B90000C7030BD10B5024602F007020A20B1FB0E
:100BA000F0F400FB14115648435C012090401840BB
:100BB00008B1012010BD0020FCE730B50B4600F065
:100BC00007000A24B3FBF4F504FB15334D4CE11880
:100BD0002AB10C78012585402C430C7004E00C7878
:100BE00001258540AC430C7030BD10B54848016804
:100BF0004848006801F01AFCB0F5FA7F1ED90021C0
:100C00000FE03F4B58183F4B5A5C4AB1424B1B78A0
:100C10001BB103781343037002E00378934303701E
:100C2000491C0A29EDD33A4B1B683A4C23603A4BD6
:100C30001B7883F00103384C237000BF10BD70B5E2
:100C40000446002504B1FF250A212E4805F080F94D
:100C50002A460A212A4805F051F970BD10B50A222A
:100C600028492A4805F018F9274825490A680260EA
:100C70004A6842600989018110BD10B50A222349E2
:100C8000204805F009F91E481F490A6802604A68B1
:100C900042600989018110BD10B58AB01C480078F6
:100CA00000F00100D0B90024FFF7E5FE1348FFF77C
:100CB000C1FC1248FFF7C0FD0446002C0DDD019475
:100CC00001208DF80000A2000C49683102A805F04F
:100CD000E3F8684600F052F800BF00BFFFF785FF59
:100CE0000748FFF7F5FE0AB010BD0000F4610008E8
:100CF000CC61000828620008086200084801002052
:100D0000D0010020E0010020EA010020F4010020D1
:100D10008C0000201C0000202000002010B50323C0
:100D200008222449244801F01DFD002416E000207B
:100D300004EB44011F4A02EBC101087204EB84007A
:100D40001E4901EBC00004EB440142F831002820A9
:100D500004EB440102EBC1014860641C082CE6D39B
:100D600010BD10B50121144801F07FFD10BD10B574
:100D700004462146104801F0AFFD10BD70B5044691
:100D8000002504B970BD0C4801F02CFD054675B175
:100D900028222146286805F03AF80122294606480B
:100DA00001F037FD18B12946034801F095FD00BF59
:100DB000E8E70000400300200004002000020020BB
:100DC0000EB50025FFF7AAFF01F099F801F05AFBD4
:100DD00001F062FB01F090FB02F0DFF800F02FF968
:100DE00002F0F8FA02F02EFC02F014FE01F05AFBB9
:100DF00001F089F800BF03208DF80A0010208DF85B
:100E00000B000001ADF8080002A9534803F02CFBC9
:100E10004FF40070ADF8080002A94F4803F024FB1E
:100E20004FF40040ADF8080002A94C4803F01CFB49
:100E300000BF0120FFF703FF00BF29E000240027C7
:100E4000474806686C460020206060602081AA2028
:100E500020700720A070C020E070204600F04AFEFD
:100E60000821204600F0DBFE002000F0FDF80746D8
:100E70001FB1384600F099F90CE06D1C00BF3848EE
:100E80000168304601F0D2FAB0F57A7FF7D300BF9F
:100E9000052DD3D300BF0020FFF7D1FE01F02FF8BE
:100EA00000BFFFF75EFF044604B903E02046FFF7EA
:100EB0005EFFF6E700BF02F037FE2948066849E00A
:100EC000002000F0D1F80746FFF74BFF044614B1AD
:100ED000204601F06BF83FB12249384600F0ABFEE6
:100EE00010B1384601F083FA2046FFF740FF38463C
:100EF00000F05BF902F01DFE02F00DFD18480168DC
:100F0000304601F093FAB0F5FA7F22D9144806680A
:100F10001548007880F001024FF480710E4803F00C
:100F200054FB1148007880F001024FF400710A4828
:100F300003F04BFB0C48007880F001024FF40041B5
:100F4000064803F042FB0848007880F0010006499B
:100F5000087000BFB4E70000000C01400008014029
:100F60008C000020446200087100002000B587B0AA
:100F70000121880303F034FD03A804F04FFD4FF472
:100F8000E130039003A9AA4804F0DFFC0121A8483E
:100F900004F067FD4FF40070ADF8080003208DF8F1
:100FA0000A0018208DF80B0002A9A24803F05CFA91
:100FB0004FF48060ADF8080004208DF80B0002A902
:100FC0009C4803F051FA25208DF8040004208DF888
:100FD000050000208DF8060001208DF8070001A80B
:100FE00002F00DFE012240F22551914804F045FD2A
:100FF0000121084603F0E7FC43F290008E49486463
:101000008B48001DC8640020886408650122802187
:10101000874804F057FD07B000BD38B58448048800
:1010200004F0200050B18248001D0088C0B200903A
:1010300001226946814801F081FC00BF38BD10B52E
:10104000002310227E497F4801F08CFB80227E49DC
:101050007A4801F055FC4FF480627C497C4800F0EE
:10106000FDF8FFF783FF10BDF0B585B0054600BF62
:1010700000270020049004A9704801F0A7FC07464F
:1010800007B92BE027E000260020039002900024FF
:1010900002A903ABCDE9001039466D48049A00F06F
:1010A000EFF8064606B917E0664801F09BFB0446D8
:1010B00014B9304604F039FE2660039860600120C0
:1010C00020720298A072012221465E4801F0A1FB25
:1010D0000020049000BFD6E700BF00BF00BF00BFE4
:1010E00000245C480078E8B15348006800F40050E0
:1010F00010B905B149E049E04D48008800F04000D2
:1011000010B905B141E041E04FF480504A494860D0
:101110005148007A18B15049086804F006FE0020D2
:101120004C4908700021474801F09FFB04465CB31E
:101130006068002801DD206848B9207A20B1206865
:1011400010B1206804F0F1FD05B11EE01EE03A4840
:10115000406C20F001003849486460688864206869
:1011600008650846406C40F0010048640120394998
:10117000087018222146384804F08EFE2146314876
:1011800001F0AAFB05B100E000E0A9E700BF00BF45
:10119000002401212B4801F068FB044614B12046CD
:1011A00005B0F0BD00BF0020FAE710B5044644B119
:1011B000207A10B1206804F0B8FD2146214801F0E2
:1011C0008BFB10BD2DE9F04105460E4690461F46AB
:1011D000002415B9601EBDE8F0811A4801F002FB39
:1011E000044614B94FF0FF30F5E7256067602672BA
:1011F00000222146134801F00CFB0020EBE710B55C
:1012000004461CB121460F4801F066FB10BD4FF4A7
:101210008060704710B5044604B910BD0020A0815D
:101220000C2060812146024804F08FFB00BFF4E7E8
:10123000003801400008014000000240280600205C
:101240001404002094050020A8050020400600207A
:10125000400A002072000020580A002070B50446A1
:101260000E4615460CB106B115B94FF0FF3070BDF2
:101270001821204604F06CFE266065600020F6E729
:101280002DE9FF4F8DB0044691469A46DDF86880FF
:10129000002700200C9014B1BAF1000F03D14FF0D9
:1012A000FF300C9023E221696068401A484502D261
:1012B0004FF0FF300C90B9F1000F2ED00E9818B9F6
:1012C0004FF0FF300C90EDE7A06800EB0906606876
:1012D000B04214D2D4E90101451AA26821688818E5
:1012E0002A460E9904F093FDA9EB05020E9B5919AD
:1012F000206804F08CFDA9EB0500A06009E0A2685D
:10130000216888184A460E9904F081FDA068484477
:10131000A06020694844206100BF00BF00200B90FE
:101320000025BDE3E06828440A9061680A98B0FB94
:10133000F1F201FB12000A9021680A98085C0990FA
:101340000998AA287DD10026002008902069401B1A
:1013500007900798072806DB606928B1A08AC0F3C8
:101360000726207D089085E0E26850192168821CDC
:101370006368B2FBF3FC03FB1C228A5C042A78D16D
:10138000C21C6368B2FBF3FC03FB1C228A5C002ACC
:101390006FD1421D6368B2FBF3FC03FB1C228E5C21
:1013A000821D6368B2FBF3FC03FB1C228A5C08927B
:1013B000079A082A5DDBD4F80CC0AC44CDF818C0FD
:1013C00005F1070CD4F80CB00CEB0B034FF0000C3C
:1013D000CDF814C0069A10E0D4F804C0B2FBFCFBB0
:1013E0000CFB1B2CD4F800B01BF80CC0DDF814B0BB
:1013F0008CEA0B0CCDF814C0521C9A42ECD3D4F8F2
:1014000004C0B3FBFCFB0CFB1B3CD4F800B01BF886
:101410000CC0CDF810C0DDE904CBE3451BD005F1CD
:10142000010CD4F810B0ABEB0C0CC4F810C005F1F3
:10143000010CD4F80CB0DC44C4F80CC0D4F80CC0D7
:1014400000E03FE1D4F804B0BCFBFBFE0BFB1ECC7C
:10145000C4F80CC028E3F6B2DDF820C00CF0FF0C95
:10146000CDF820C0DDF820C00CEB062CC4F814C069
:1014700000BF00BFF6B20898C0B20890089800EB11
:10148000062608366068B6EB500F11D9681C216932
:10149000081A2061681CE1680844E0606168E0683F
:1014A000B0FBF1F201FB1200E0600020606108E196
:1014B0000798864275DC082E75D1002006900196AB
:1014C000019804F003FC07461FB94FF0FF300C9061
:1014D00007E30597E06828440390701E2844E168FC
:1014E000084402900398049015E061680498B0FBEA
:1014F000F1F201FB1200216811F800B0069880EAB1
:101500000B000690059880F800B00598401C0590E7
:101510000498401C0490029904988842E5D36168BD
:101520000298B0FBF1F201FB1200216811F800B043
:10153000069858451FD101200B90059880F800B0FF
:10154000216901982844081A2061E068411901982E
:101550000844E0606168E068B0FBF1F201FB120052
:10156000E0600198CAF80000B8F1000F18D001201F
:10157000C8F8000014E0384604F0D7FB0027681CC8
:101580002169081A2061681CE1680844E06061680C
:10159000E068B0FBF1F201FB1200E0600020606146
:1015A0008FE07FE0FFE70596059804F08FFB074684
:1015B0001FB94FF0FF300C9093E2E0682844616857
:1015C000B0FBF1F201FB120B7019E168084461688D
:1015D000B0FBF1F201FB120006900698584507D9BE
:1015E000206800EB0B013246384604F010FC11E095
:1015F0006068A0EB0B000290206800EB0B013846FE
:10160000029A04F004FC029BF21AF818216804F014
:10161000FEFB00BF00206061A6F10A0081B207F165
:10162000080000F0BBFF049000200390B819811E51
:10163000022203A800F08EFFBDF80C10049881422E
:101640001CD101200B90216905982844081A2061BB
:10165000E068411905980844E0606168E068B0FB03
:10166000F1F201FB1200E0600598CAF80000B8F141
:10167000000F16D00120C8F8000012E0384604F030
:1016800054FB0027681C2169081A2061681CE16866
:101690000844E0606168E068B0FBF1F201FB120011
:1016A000E0600EE02069401B2061E0682844E060B3
:1016B0006168E068B0FBF1F201FB1200E06001201C
:1016C0000B90F1E10998FA2870D12069A0EB050B85
:1016D000BBF1070F6BDB00200890072003900398F5
:1016E00004F0F4FA07461FB94FF0FF300C90F8E110
:1016F0003E46E06828440590A81DE168084404902F
:10170000059806900FE060680699B1FBF0F200FBC7
:1017100012102168085C07909DF81C0006F8010B68
:101720000698401C0690049906988842EBD3022044
:10173000069009E00698385C9DF820100844C0B275
:1017400008900698401C069006980628F2D3606818
:101750000499B1FBF0F200FB12102168085C0790BD
:101760009DF820009DF81C10884221D101200B908B
:101770009DF81C003070206903992944401A2061AB
:10178000E068284403990844E0606168E068B0FBC1
:10179000F1F201FB1200E0600398CAF80000B8F112
:1017A000000F18D00520C8F8000014E024E013E072
:1017B000384604F0BAFA0027681C2169081A20612B
:1017C000681CE1680844E0606168E068B0FBF1F221
:1017D00001FB1200E0600EE02069401B2061E06820
:1017E0002844E0606168E068B0FBF1F201FB1200A0
:1017F000E06001200B9057E1099800F0F00080288C
:1018000079D12069401B08900898032874DBE068B0
:1018100028440790D4E9031000EB010B0020069048
:101820000798861C0DE06068B6FBF0F100FB1160C4
:101830002168085C06900698FF2801D1B34602E0B3
:10184000761C5E45EFD300BF0698FF2855D1079858
:10185000ABEB0000401C102810D90027681C216940
:10186000081A2061681CE1680844E0606168E0686B
:10187000B0FBF1F201FB1200E06063E00798ABEB14
:101880000000401C0490049804F020FA07461FB999
:101890004FF0FF300C9024E1059701200B90079E3C
:1018A0000CE06068B6FBF0F100FB11612068415C60
:1018B000059801700598401C0590761C5E45F0D98E
:1018C000216904982844081A2061E06841190498A5
:1018D0000844E0606168E068B0FBF1F201FB1200CF
:1018E000E0600498CAF80000B8F1000F02D00420AC
:1018F000C8F8000026E036E025E00798ABEB0000D2
:10190000102810D30027681C2169081A2061681C60
:10191000E1680844E0606168E068B0FBF1F201FB57
:101920001200E0600EE02069401B2061E06828445E
:10193000E0606168E068B0FBF1F201FB1200E0607A
:1019400001200B900EE02069401B2061E0682844D4
:10195000E0606168E068B0FBF1F201FB1200E0605A
:1019600001200B90A0E00998A52871D12069A0EB77
:10197000050BBBF10B0F6CDB002008900B200390D4
:10198000039804F0A3F907461FB94FF0FF300C90FD
:10199000A7E03E46E0682844059005F10A00E168AA
:1019A00008440490059806900FE060680699B1FB22
:1019B000F0F200FB12112068405C07909DF81C00BB
:1019C00006F8010B0698401C069004990698884278
:1019D000EBD30120069009E00698385C9DF82010B2
:1019E0000844C0B208900698401C069006980A2841
:1019F000F2D360680499B1FBF0F200FB1210216889
:101A0000085C07909DF820009DF81C10884221D1A9
:101A100001200B909DF81C00307020690399294427
:101A2000401A2061E068284403990844E060616836
:101A3000E068B0FBF1F201FB1200E0600398CAF825
:101A40000000B8F1000F18D00620C8F8000014E01C
:101A500024E013E0384604F068F90027681C216987
:101A6000081A2061681CE1680844E0606168E06869
:101A7000B0FBF1F201FB1200E0600EE02069401BB8
:101A80002061E0682844E0606168E068B0FBF1F242
:101A900001FB1200E06001200B9005E000BF6D1C0F
:101AA0002069A8423FF63EAC00BF2069A8420FD192
:101AB0000B9868B900202061E0682844E060616804
:101AC000E068B0FBF1F201FB1200E0600020606111
:101AD0000B9800B103E0206900283FF71FAC00BF5E
:101AE00000BF1B9810B11B990C980860384611B0C4
:101AF000BDE8F08F10B501460B78F94C24680CB1A5
:101B0000092200E00722012002E00C5C6340401C37
:101B10009042FADB0B5410BD2DE9FF4381B088469B
:101B2000DDF830900024B8F1000F03D1002005B09B
:101B3000BDE8F083DDE9030100FB01F707F11006C2
:101B4000304604F0C3F804460CB90020EFE73146F4
:101B5000204604F0DBF9AA2020700420A0700020A9
:101B6000E070A6F10800009002226946601D00F0B6
:101B7000F1FC2046FFF7BEFF04F10805022201A98F
:101B8000284600F0E7FC022203A9A81C00F0E2FCB2
:101B9000022204A9281D00F0DDFC3A464146A81D9A
:101BA00004F035F9B81D81B2284600F0F7FC00902A
:101BB000A91DC8190222694600F0CCFCB9F1000F3A
:101BC00001D0C9F800602046B1E7F8B506460F46D7
:101BD00014461D4623460122394630460095FFF73C
:101BE0009BFFF8BD70B505460C46ADB1A4B12046CB
:101BF00004F06CF8064676B122462946304604F0D9
:101C000006F92346032201213046FFF7DBFA10B123
:101C1000304604F08AF800BF70BD7047704770B559
:101C200004460D4629462046FFF7DCFF294620469C
:101C3000FFF7F4FF70BD2DE9F04F8FB007460C465B
:101C400001200E901FB9801E0FB0BDE8F08F3D68D7
:101C50002878AA2802D04FF0FF30F5E7A8780C28A2
:101C60007AD1E878802878D100200C900D90002659
:101C70000B904FF001094FF0010A8346AA208DF81E
:101C800030000C208DF8320080208DF833000120C8
:101C90008DF83400A8790D2860D2DFE800F05F07E6
:101CA00008165F245F5F5F385F3A4B0000BFA8797A
:101CB0008DF83600082004F009F8064616B94FF0F2
:101CC000000950E008200B904DE008A800F049FF03
:101CD0004FF0000A0BAB0C2208A948F20300FFF7F3
:101CE00074FF06463FE000200A902CB1206918B12D
:101CF0002069804780B20A904FF0000A0BAB0222A5
:101D00000AA948F20500FFF760FF06462BE000F045
:101D100079FB4FF0FF300A9000F02EFF0A904FF051
:101D2000000A0BAB04220AA948F20B00FFF74DFF93
:101D3000064618E00FF2AC184FF0000A404604F0D7
:101D400047F8401C0BAB024641460A9048F20C0093
:101D5000FFF73BFF064606E030E0BDE04FF000092C
:101D600000200E9000BF00BFB9F1000F20D0FEB1DF
:101D7000BAF1000F06D00CA8FFF7BCFE0C9830603B
:101D80000D9870601CB9304603F0CFFF10E0606919
:101D900018B9304603F0C9FF0AE0D4F814C0032292
:101DA000012130460B9BE04710B1304603F0BDFFE8
:101DB000BBF1000F01D000F025FB8DE0A8780428CE
:101DC0007ED100200D9080460E900222691D0DA844
:101DD00000F0C0FB05F108060D98801E0D9075E01F
:101DE0004FF0000900200C904FF0010A0B900A9070
:101DF0000990022231460BA800F0ACFB0222B11C74
:101E00000AA800F0A7FB0222311D09A800F0A2FBDE
:101E1000BDF82C00A0F500400A3858BB06F1060BAF
:101E200001A800F09EFE4FF0FF3000F0A5FE0090EC
:101E3000012301A904A8009A00F0C4FE102259460B
:101E400004A803F099FF38B900200890002201216E
:101E500004A800F0DDFE02E04FF0FF3008900CAB6C
:101E6000042208A948F20A00FFF7AFFE81460120CC
:101E70000E9000E000BF00BFBAF1000F18D0B9F11A
:101E8000000F15D01CB9484603F04FFF10E0606901
:101E900018B9484603F049FF0AE0D4F814C00322F9
:101EA000012148460C9BE04710B1484603F03DFF36
:101EB000BDF82800BDF824104843801D804400E090
:101EC00008E005F1080000EB080600BF0D9880450A
:101ED00086D301E000200E900E9868B10020B3E692
:101EE0009000002059415F5553425F415544494F8E
:101EF0005F313731313238004FF0FF30A4E6002037
:101F0000F8490870704770477047704701460022D3
:101F1000012003E00B5C1344DAB2401C0628F9DB15
:101F20000A5470472DE9F0410546002725E005F1E8
:101F3000080000EB8706B078EE2800D11CE096F888
:101F40000080E94C0020206060602081AA20207081
:101F5000E448007860700720A070B078012800D1B4
:101F6000207100BF00BF00BF2046FFF7C3FD08215E
:101F70002046FFF754FE00BF7F1C6868B842D6D8E1
:101F80000120BDE8F08170B50546D74C0CB90020A2
:101F900070BD00202060606020812046FFF7AAFD10
:101FA00008212046FFF73BFE0120F1E770B505460A
:101FB0002C682078052801DB002070BD2078CB49F3
:101FC00051F8200030B120780A4652F820102046FF
:101FD0008847F2E70020F0E72DE9F04F87B0804610
:101FE000B8F1000F03D1002007B0BDE8F08FD8F89A
:101FF0000040A078062873D1BB4D4FF000090020A7
:1020000006904FF0010A4FF0010BAA20287006201D
:10201000A8708020E87001202871E07846286FD0F1
:1020200008DC40280DD0412832D0432859D044281C
:1020300067D167E0502872D0802871D08128F7D10D
:10204000F8E0122003F042FE07464FF0000BF7B114
:1020500000260CE005A9304601F00DFA07F81660DD
:102060009DF8140007EB46014870701C86B2072EDD
:10207000F0DB06A802230722394600904FF4C8601F
:10208000FFF74AFD8146384603F04FFE00BFD6E019
:10209000042003F01BFE07464FF0000BFFB10026A3
:1020A0000DE005A9F01D01F0E6F9F01D07F8160096
:1020B0009DF8140007EB46014870701C86B2022E92
:1020C000EFDB06A802231A463946009040F2416031
:1020D000FFF722FD8146384603F027FE00BFAEE041
:1020E000C9E066794FF0000A082E00DBA7E006EB96
:1020F00046127F49501801F0FEFC00F016FF9EE0EA
:102100000FE098E066794FF0000A082E00DB96E0B9
:1021100006EB46127649501801F0D4FC8FE038E007
:1021200059E0A079FF2826D100200590082003F06F
:10213000CDFD07464FF0000BE7B105A801F09DFC6F
:10214000002607E007F8166005A8805D07EB46014A
:102150004870761C042EF5DB06A8032304223946BA
:10216000009040F24660FFF7D7FC8146384603F006
:10217000DCFD00BF0CE020790611607908B9012070
:1021800000E0002007463946304601F058FC00BF09
:1021900055E0207940B9607901F03DF9A07901F06E
:1021A0004EF94FF0000B15E0207901280AD150209C
:1021B000E8708120287101F051F9687101F054F93B
:1021C000A87107E05020E870A2796179207901F0C8
:1021D0006EF8687133E01B2003F078FD07464FF07E
:1021E000000B37B3002614E005A9304601F085FB4B
:1021F00006EB46017E549DF8140006EB4601394477
:1022000048709DF8150006EB460139448870701C33
:1022100086B2092EE8DB06A803230922394600907E
:102220004FF4D060FFF778FC8146384603F07DFD1F
:1022300000BF04E003E04FF0000AD34600BF00BF38
:10224000BBF1000F06D02846FFF754FC08212846B2
:10225000FFF7E5FCBAF1000F0CD0B9F1000F09D07F
:10226000032201214846069BFEF7ACFF10B1484609
:1022700003F05BFDB9E0A0780428FBD100200690B4
:1022800000270222611D06A800F064F904F1080588
:102290000698801E0690A3E04FF0000900200590EC
:1022A0004FF0010A0490039002900222294604A8EC
:1022B00000F050F90222A91C03A800F04BF90222F9
:1022C000291D02A800F046F9BDF81000B0F5C86F4E
:1022D00010D0A0F24160F8B105282FD03F2862D17C
:1022E00043E0000074000020700A00207800002005
:1022F0008A0A002005F1060B002608E00BEB4602D7
:1023000051781BF8160001F0E4F8701C86B2BDF895
:102310000C008642F2DB47E005F1060B002608E0E0
:102320000BEB460251781BF8160001F0D2F8701C36
:1023300086B2BDF80C008642F2DB35E005F1060BF3
:1023400000260DE00BEB460252780AB1012200E0B4
:10235000002211461BF8160001F071FB701C86B2BA
:10236000BDF80C008642EDDB1EE005F1060B0026F1
:1023700014E006EB4600584440788DF8040006EB64
:102380004600584480788DF8050006EB46011BF89E
:102390000100019901F0A2FA701C86B2BDF80C0090
:1023A0008642E6DB00E000BF00BFBAF1000F0CD0B0
:1023B000B9F1000F09D0032201214846059BFEF721
:1023C00001FF10B1484603F0B0FCBDF80C00BDF8A9
:1023D00008104843801D074404F10800C51900BFD8
:1023E00006988742FFF458AF00BF0120FCE510B506
:1023F0000446A07A012803D12046FFF7EDFD10BD69
:102400000020FCE70648006800F4E0600549084346
:10241000001D03490860BFF34F8F00BFFEE70000B7
:102420000CED00E00000FA0500BFFEE70246914215
:1024300001D3881A7047C2F1FF300844FAE7024618
:10244000914202DB881A80B270474FF6FF70801A03
:10245000084480B2F8E70A480068401C0849086050
:10246000704710B503464FF08040848C00BF4FF09A
:102470008040818C2046FFF7E2FF9842F7DB10BDD9
:102480008C00002010B50121080702F0B6FA0121E6
:102490007D2002F0A5FA10BD10B50121284802F0F8
:1024A000B4F810BD30B5274800684FF47A72B0FB1D
:1024B000F2F1B1F1807F00D31DE021F07F40401E9A
:1024C0004FF0E022506150170F22002807DA13075F
:1024D0001D0E1D4B00F00F04241F1D5503E01307B4
:1024E0001C0E1A4B1C5400BF00204FF0E0229061DC
:1024F0000720106100BF30BD3EB512480068144986
:10250000B0FBF1F0401E84B20121084602F075FADA
:10251000684602F0C9FE4FF6FF70ADF80400ADF852
:1025200000400020ADF80600ADF8020069464FF00B
:10253000804002F08DFB0121880702F0E5FE3EBDE0
:10254000000230000000002018ED00E000E400E090
:1025500040420F0010B50346002004E0141A641E28
:102560000C5D1C54401C9042F8D310BD30B502469F
:102570000B464FF0FF3002B103B930BD002108E037
:10258000C4B2555C6C40734D55F8244084EA102069
:10259000491C9942F4D3C04300BFEEE770B5024630
:1025A0000C46FF25FF2312B94FF6FF7070BD09E0FE
:1025B00012F8010B80EA03016748405C80EA0503DA
:1025C0006648455C201EA4F10106B4B2F0D143EA8E
:1025D0000520EBE72DE9F04F03460C469446002218
:1025E0001D680026DFF87891012C57DD601E53F836
:1025F0002020342090FBF4F000F1060846E04E4421
:10260000C6F3810700211FE0481C53F820505009F1
:1026100080EA85004FEAD50A8AEA021A504486EA1F
:10262000050A01F0030B8BEA070B5CF82BB08BEA71
:10263000020BDA4480EA0A0053F821A0504443F820
:10264000210053F82120491C601E8842DCDC1D68F3
:10265000500980EA85004FEAD50A8AEA021A8244C4
:1026600086EA050001F0030B8BEA070B5CF82BB040
:102670008BEA020B58448AEA000A601E53F82000D5
:102680008244601E43F820A053F82020B8F10000D7
:10269000A8F10108B3DC0020BDE8F08FB4F1FF3FE2
:1026A00056DA6442601E53F82020342090FBF4F088
:1026B00000F1060808FB09F646E0C6F38107611E33
:1026C00020E0481E53F82020500980EA85004FEA98
:1026D000D50A8AEA021A504486EA050A01F0030B79
:1026E0008BEA070B5CF82BB08BEA020BDA4480EA2A
:1026F0000A0053F821A0AAEB000043F8210053F888
:102700002150491E0029DCDC601E53F820205009AE
:1027100080EA85004FEAD50A8AEA021A504486EA1E
:10272000050A01F0030B8BEA070B5CF82BB08BEA70
:10273000020BDA4480EA0A00D3F800A0AAEB0000FA
:1027400018601D68A6EB0906002EB6D10020A3E78D
:102750000120A1E76C6200086C6600086C67000845
:10276000B979379E2DE9F04707460C46164698463C
:102770004FF0000917B10CB1002E03DA4FF0FF3013
:10278000BDE8F087FDF724FD814606EB4600C10059
:10279000204603F0DDFB1421384603F0D9FB002569
:1027A00010E005EB450004EBC000A0F80C8005EB41
:1027B000450004EBC000183005EB450104EBC101F6
:1027C00008616D1C701EA842EBDC002005EB450182
:1027D00004EBC10108617E603C604846FDF7FCFCEB
:1027E0000020CDE770B50446002600250CB9002076
:1027F00070BDFDF7EDFC0646206828B12568286904
:1028000020600020686128613046FDF7E5FC28461D
:10281000EEE72DE9F04106460C46174606B11CB915
:102820004FF0FF30BDE8F0814FF0000817B106F11E
:102830000C0001E006F110000546FDF7C9FC8046DA
:10284000286818B92C606461246109E02868206157
:1028500028684069046128684069606128684461AB
:102860004046FDF7B9FC0020DCE72DE9F0410546C4
:102870000F464FF00008002615B90020BDE8F08192
:1028800017B105F10C0001E005F110000446FDF759
:102890009FFC8046206808B9002618E0266820685A
:1028A00000692168884202D1002020600CE0206885
:1028B000406921680969486120680069216849699F
:1028C0000861206800692060002070613061404626
:1028D000FDF782FC3046D1E770B504460D4604B1E1
:1028E00015B94FF0FF3070BD0026FDF771FC0646AC
:1028F0002068286125603046FDF76EFC0020F2E775
:102900002DE9F04104460D461646002704B11DB9D5
:102910004FF0FF30BDE8F081FDF75AFC0746182163
:10292000204603F015FB25607008A060A0682844CD
:1029300060603846FDF750FC0020EBE72DE9F047DA
:1029400004460F4615464FF00008C14604B11FB9B2
:102950004FF0FF30BDE8F087FDF73AFC8046616933
:10296000A068461AB54202D94FF0FF3929E0E06865
:102970002844A16888420FD9D4E90201461AE268C6
:10298000216888183246394603F041FAAA1BB91962
:10299000206803F03CFA06E0E268216888182A46BD
:1029A000394603F034FAE0682844E060D4E90210C4
:1029B000B0FBF1F201FB1200E06060692844606145
:1029C00000BF4046FDF708FC4846C3E72DE9F0414B
:1029D00004460D46002714B90020BDE8F081606967
:1029E00008B90020F9E7FDF7F3FB0746D4E9040135
:1029F0000844A168884211D92169A068461A236950
:102A00002268D1183246606803F001FA63699A1BA4
:102A1000D4E90013981903F0FAF906E0266923684F
:102A200099196269606803F0F2F9D4E90401084475
:102A30002061A1682069B0FBF1F201FB1200206166
:102A40000DB160692860002060613846FDF7C4FB65
:102A50006068C2E72DE9F0410646042701F0E5F978
:102A600001F04FFC04466EB1FE4961EA04050846D8
:102A7000A043884217D001F0A2FA284601F05FFB7C
:102A800000F0BBFAF7482043C543F649C94344EA7E
:102A90000100401C38B101F092FA15B1284601F04E
:102AA0004EFB00F0AAFA01F0CCF9BDE8F0812DE967
:102AB000F74F044690460426DDF804B028F00300E2
:102AC000404502D0701FBDE8FE8FA40AA40204EBAB
:102AD000080901F0AAF908F2FF304FEA902A3520E0
:102AE00001F03EFC002707E04FF4806101FB074046
:102AF00001F0E0F906467F1C574501D2042EF3D0C1
:102B0000042E00D026E02546002708E038467F1C2A
:102B10005BF82010284601F09DFA06462D1D4D4514
:102B200001D2042EF2D0042E00D013E02546042654
:102B3000002708E02A6838467F1C5BF820008242A4
:102B400000D002262D1D4D4501D2042EF2D101F0F8
:102B50006CF900BF042E02D04FF0FF30B3E7002025
:102B6000B1E770B5044634B10C252A46BE4920466B
:102B700003F092F900BF70BD2DE9F0410746002631
:102B8000BA4D002415E055F82400401C78B9601CAB
:102B900055F82000401C50B9A01C55F82000401CDE
:102BA00028B9E01C55F82000401C00B903E0361D90
:102BB000641CBE42E7D300BF3146AC48FFF7D6FCE9
:102BC000BDE8F0812DE9FF4104460D4616461F463B
:102BD00004B125B94FF0FF3004B0BDE8F08195E8AD
:102BE00007008DE8070003964FB19DE80F0084E8C9
:102BF0000F006A4604212046FFF7ECFC06E09C48E3
:102C000020606A4601212046FFF7E4FC0020E3E74C
:102C10002DE9F0438BB006460F46154626B94FF016
:102C2000FF300BB0BDE8F0834FF00409E84696E8AA
:102C30000F0001AC0FC417B18E48009009E08C481A
:102C400000900020CDE9065001AA022106A8FFF756
:102C5000C1FC00200890002405E058F824100898D2
:102C600048400890641C082CF7D301F0DEF83420AB
:102C700001F076FB804801F01DF98146E84600240A
:102C800010E058F824107C4A02EB840001F0E2F9CD
:102C90008146B9F1040F04D001F0D3F84FF0FF30B2
:102CA000BFE7641C0A2CECD301F0CBF80020B8E796
:102CB0002DE9F04387B0054688466F4C6F480068A1
:102CC000401CB0B96E48FFF74CFF4FF0FF30FFF7E4
:102CD00053FF6A4908600023084669490268694849
:102CE000FFF770FF01236548654902686648FFF7F2
:102CF00069FF6648007800287CD15D4920688842D9
:102D000003D05C492068884267D1DFF86C910027C6
:102D1000002603E059F826004740761C082EF9D318
:102D2000206AB84258D152492068884238D1554863
:102D300000686168884224D1D4E90601CDE9040124
:102D4000221D6FF0010104A8FFF744FC0020DDE91B
:102D50000421D2F10302884103D204204B490870B8
:102D60000EE0484B0FCB8DE80F0004994A1C4FF042
:102D700000016846FFF74CFF01204449087000BF7E
:102D80002AE0404B0FCBCDE90423CDE90201042218
:102D9000002102A8FFF73CFF04203C4908701BE01B
:102DA0001022211D384802F0E7FF18B903203749E7
:102DB000087011E0334BD3E901211868DB68CDE9D5
:102DC0000413CDE902020422002102A8FFF720FF2C
:102DD00004202E49087000BF0CE02A4B0FCB02AE36
:102DE0000FC60022114602A8FFF712FF0120274953
:102DF000087000BF25480078012831D124480168B7
:102E000024480068FFF712FB44F62061884227D966
:102E1000D4E90601CDE90401201D0FC88DE80F009B
:102E20001B4800681B490860221D6FF0010104A8BF
:102E3000FFF7D0FB0498421C4FF000016846FFF7F3
:102E4000E7FE0020DDE90421D2F10302884102D22D
:102E500004200E49087015B141460220A84700BF62
:102E60000A4819E0F8FFFF01E8F7FF1F00300008EB
:102E700067452301EFCDAB89009001089C0000203D
:102E8000B80B0020D40B0020C40B002094000020BD
:102E90008C000020980000200078042821D1102206
:102EA000211D5C4802F068FF28B903205A490870C8
:102EB00007B0BDE8F08315B141460420A847574844
:102EC000016857480068FFF7B1FA44F6206188426C
:102ED00007D9524800685249086015B1414605209B
:102EE000A84700BFE4E770B50446042500F09DFF45
:102EF00000BF342001F034FA01F061F80546042DDA
:102F000000D005E02146474801F0F5F8054600BF2E
:102F100000BF00F096FF042D01D1002070BD4FF0DE
:102F2000FF30FBE73F48007870472DE9F0414FF054
:102F3000040800253C4E3D4F4AF2A550314608801A
:102F4000002404E036F81400284485B2641C962C52
:102F5000F8D33548A0F82C5100F067FF342001F079
:102F6000FFF9324800F0A6FF804600240FE036F853
:102F70001410384601F0A1F88046B8F1040F04D0CF
:102F800000F05FFF0020BDE8F081BF1C641C972C9F
:102F9000EDD300F056FF0120F5E770B50025224E75
:102FA0004FF497722149304602F031FF30460088D5
:102FB0004AF2A551884200D00FE0002404E036F820
:102FC0001400284485B2641C962CF8D31648B0F837
:102FD0002C01A84200D170BD00BF002407E004EB23
:102FE00044121149891C501800F085FD641C092CFD
:102FF000F5D3FFF79AFF00BFEDE70D48006800F436
:10300000E0600C490843001D09490860BFF34F8F79
:1030100000BFFEE7C40B0020940000208C000020BD
:103020009800002004F8FF1F880A0020009401087F
:103030000CED00E00000FA0508B50720009002E062
:103040000098401E009000980028F9D108BD10B5E6
:103050008020C949086040200860FFF7EDFFC6489E
:103060000838006808B9012000E0002000F0800066
:1030700008B1002010BD8020BF49091D0860FFF77E
:10308000DBFFBD480838006800F0800008B1002070
:10309000F0E78020B849091D0860FFF7CDFF012047
:1030A000E8E710B54020B449091D0860FFF7C4FFE8
:1030B0008020B149091D0860FFF7BEFF4020AE49DE
:1030C0000860FFF7B9FF8020AB490860FFF7B4FF45
:1030D00010BD10B54020A849091D0860FFF7ACFFDE
:1030E0008020A549091D0860FFF7A6FF4020A249DE
:1030F0000860FFF7A1FF40209F49091D0860FFF706
:103100009BFF10BD10B540209B49091D0860FFF7CB
:1031100093FF802098490860FFF78EFF4020964972
:103120000860FFF789FF40209349091D0860FFF7F9
:1031300083FF10BD10B540208F49091D0860FFF7BF
:103140007BFF80208C490860FFF776FF40208A498A
:103150000860FFF771FF88480838006800F08000B9
:1031600028B140208449091D0860002010BD40207E
:103170008149091D08600120F8E770B5044608255B
:1031800019E040207C49091D0860FFF755FF04F055
:10319000800018B180207849086003E080207649DB
:1031A000091D08606006040EFFF746FF40207249C3
:1031B0000860FFF741FF281EA5F10101CDB2E0D163
:1031C00040206D49091D086070BD70B508250024B8
:1031D00080206949086014E06006040E40206649BA
:1031E000091D0860FFF728FF402063490860FFF7CA
:1031F00023FF61480838006800F0800008B144F0FF
:103200000104281EA5F10101CDB2E5D140205A49A3
:10321000091D0860204670BD08B502208DF8020027
:1032200014208DF803004020ADF800006946524894
:10323000103801F019F98020ADF8000069464E48B9
:10324000103801F011F908BD70472DE9F04105462D
:103250000E4617469846FFF7FAFE10B90020BDE863
:10326000F081002141EA4501C8B2FFF786FFFFF770
:1032700061FF18B9FFF715FF0020F0E73046FFF7B0
:103280007CFFFFF757FF00240BE018F80400FFF75E
:1032900074FFFFF74FFF18B9FFF703FF0020DEE7C9
:1032A000641CBC42F1DBFFF7FCFE0120D7E770B5E0
:1032B00004460D461646FFF7CAFE10B94FF0FF3020
:1032C00070BD002141EA4401C8B2FFF756FFFFF785
:1032D00031FF20B9FFF7E5FE6FF00100F0E7284667
:1032E000FFF74BFFFFF726FF3046FFF746FFFFF7DC
:1032F00021FFFFF7D6FE0020E2E72DE9F041054669
:103300000F4614461E46FFF7A2FE10B90020BDE886
:10331000F081002141EA4501C8B2FFF72EFFFFF717
:1033200009FF18B9FFF7BDFE0020F0E73846FFF7A8
:1033300024FFFFF7FFFEFFF78AFE012101EB4501A5
:10334000C8B2FFF71AFFFFF7F5FE0CE0FFF73DFFED
:103350003070012C02D1FFF7D5FE01E0FFF7B9FE76
:10336000761C601EC4B2002CF0D1FFF79AFE01203B
:10337000CDE7002070470000100C01402DE9FC4112
:1033800004460D461A26C5F30805EFB2600040EA70
:103390002520C4B2002000900190AA208DF80000E2
:1033A00006208DF8020050208DF803008DF804608F
:1033B0008DF805408DF806706846FEF79BFB0821E6
:1033C0006846FEF72CFC3A4621463046FFF76FFF71
:1033D000BDE8FC8108B503208DF8020010208DF8AF
:1033E0000300ADF800006946FE4801F03DF82020DA
:1033F000ADF800006946FB4801F036F800221021C4
:10340000F84801F0E2F800222021F64801F0DDF84A
:10341000FFF702FF08BD70B505460026F248448D4F
:1034200005F01F0504F0C0042C4321461520FFF7CA
:10343000A5FF06460EB9EC484485304670BD70B510
:103440000446002504F0070421461620FFF796FFE6
:1034500005460DB9E4488485284670BDE24890F8D9
:103460002A0000F01F007047DF4890F82C0000F0A1
:103470000700704770470246092A00D211B94FF081
:10348000FF307047D948805C08700020F9E770B5BC
:10349000044609252A46D549204602F0B8FC70BDED
:1034A00070B504460D461646092C01D2072D02DBE5
:1034B0004FF0FF3070BDCE4850F8240030B1CC48FA
:1034C00050F82420314628469047F3E74FF0FF306C
:1034D000F0E770B504460D46002229462046FFF766
:1034E000DFFF70BD70B50546002404E0295D20466D
:1034F000FFF7EFFF641C092CF8DB70BD70B50546C3
:103500000E46B948448D032D02DD4FF0FF3070BDEB
:103510002EB9B6484079A84201D10020F7E704F05F
:103520003F0435B1012D05D0022D06D0032D0AD15F
:1035300006E00BE044F0400408E044F0800405E0BD
:1035400044F0C00402E04FF0FF30E0E700BF214646
:103550001520FFF713FF10B14FF0FF30D7E7A24857
:103560004485A24845710020D1E770B505460E4656
:103570009D48C489072D02DB4FF0FF3070BD2EB986
:103580009A488079A84201D10020F7E704F00F049F
:10359000072D18D2DFE805F004070A0D0E111400FC
:1035A00044F0900412E044F080040FE044F0100472
:1035B0000CE00BE044F0D00408E044F0B00405E077
:1035C00044F0F00402E04FF0FF30D7E700BF21469F
:1035D0000720FFF7D3FE10B14FF0FF30CEE782484F
:1035E000C481824885710020C8E770B504460E4644
:1035F0007D48458B042C02DB4FF0FF3070BD2EB9A7
:103600007A48C079A04201D10020F7E705F0F7051C
:1036100014B1032C04D100E005E045F0080502E0F8
:103620004FF0FF30EAE700BF29460D20FFF7A6FE66
:1036300010B14FF0FF30E1E76B4845836B48C47130
:103640000020DBE710B5FFF715FF002405E001229D
:1036500000212046FFF724FF641C092CF7D310BD7E
:10366000704773B50D462DB99DF800006149897A00
:1036700088421BD05C48848B9DF80000CF214843D2
:10368000FF21B0FBF1F0C6B204F47F44344321467D
:103690000E20FFF773FE10B14FF0FF307CBD524893
:1036A00084839DF800005349887200BF2DB99DF8AE
:1036B00001105048C07A81421BD04B48C48B9DF802
:1036C0000100CF214843FF21B0FBF1F0C6B204F462
:1036D0007F44344321460F20FFF750FE10B14FF0D6
:1036E000FF30DBE74048C4839DF801104148C172B8
:1036F00000BF0020D2E773B50D469DF800009DF88D
:103700000110884219D13848448904F47F4444F4B4
:1037100080749DF80000044321460520FFF72EFE2B
:1037200010B14FF0FF307CBD2F4844819DF8001050
:103730003048017341730020F5E72DB99DF8000072
:103740002C49097B884217D02748C48804F47F4459
:1037500044F480749DF80000044321460320FFF7E1
:103760000DFE10B14FF0FF30DDE71F48C4809DF81B
:1037700000002049087300BF2DB99DF801101D48B5
:10378000407B814217D01848048904F47F4444F4F4
:1037900080749DF80100044321460420FFF7EEFDEC
:1037A00010B14FF0FF30BEE70F4804819DF80110C3
:1037B0001048417300BF0020B5E773B50D469DF872
:1037C00000009DF80110884226D1074884884FF6F2
:1037D0008070044044F480749DF8000044EA600462
:1037E000214609E0000C0140A0000020E40B00206D
:1037F0006C680008D00000200220FFF7BFFD10B168
:103800004FF0FF307CBDEE4884809DF80010ED48FD
:103810008173C1730020F5E72DB99DF80000E949D7
:10382000897B884219D0E64804884FF680700440AE
:1038300044F480749DF8000044EA600421460020AE
:10384000FFF79CFD10B14FF0FF30DBE7DC48048050
:103850009DF80000DB49087300BF2DB99DF80110E9
:10386000D848C07B814219D0D54844884FF6807033
:10387000044044F480749DF8010044EA6004214649
:103880000120FFF77BFD10B14FF0FF30BAE7CC48C5
:1038900044809DF80110CB48C17300BF0020B1E700
:1038A00037B504461546092C02D34FF0FF303EBD14
:1038B000C54850F8240030B1C34850F824202946A8
:1038C00001989047F3E74FF0FF30F0E713B5044657
:1038D000002220460199FFF7E3FF1CBD03B5024615
:1038E000092A02D34FF0FF300CBDB84800EB42006C
:1038F000BDF8041001800020F6E70246092A00D234
:1039000011B94FF0FF307047AE4800EB420000881D
:1039100008800020F7E738B5AD480168AD48006879
:10392000FEF784FD0A2853D9A9480068A949086010
:1039300000244AE00020009069462046FFF7DDFFA2
:10394000A24800EB44010222684602F015FAD8B3FF
:103950009DF800009D4911F81410884206DD9DF87D
:103960000000401EC0B28DF800000CE09DF8000081
:10397000964911F81410884205DA9DF80000401CA1
:10398000C0B28DF800009DF80100904901EB4401A0
:103990004978884206DD9DF80100401EC0B28DF8CE
:1039A00001000DE09DF80100884901EB44014978D0
:1039B000884205DA9DF80100401CC0B28DF8010074
:1039C00020460099FFF782FF641C092CB2D300BF88
:1039D00038BD70B5044612252A467A49204602F0C1
:1039E00016FA70BD38B50546002410E005EB44001A
:1039F0000088014600902046FFF768FF05EB440071
:103A00000088014600902046FFF768FF641C092CDF
:103A1000ECDB38BD38B5FFF723FE00240AE0694827
:103A200000EB440000880122014600902046FFF789
:103A300037FF641C092CF2D338BD7047704702462B
:103A4000042A02D34FF0FF30704702EB4200624B72
:103A500003EB800041720020F6E70246042A00D200
:103A600011B94FF0FF30704702EB42005A4B03EBA5
:103A70008000407A08700020F5E730B50546002444
:103A800004E029192046FFF7E8FF641C042CF8DB4A
:103A900030BD30B50546002404E0295D2046FFF71F
:103AA000CEFF641C042CF8DB30BD10B5FFF7C5FF5A
:103AB000002404E000212046FFF7C1FF641C042C11
:103AC000F8D310BD70B505462C4604B970BD04F19D
:103AD0001200FFF707FD2046FFF784FF04F11B00EB
:103AE000FFF7D7FFE07FFFF796FC94F82000FFF781
:103AF000A6FC00BFEAE770B505462C4604B970BDC8
:103B000004F11200FFF7C3FC2046FFF762FF04F147
:103B10001B00FFF7B2FFFFF7A1FCE077FFF7A4FC63
:103B200084F8200000BFEAE710B52C48FFF7CAFF71
:103B300010BD10B52648016829480068FEF776FCDC
:103B4000642800D210BD2248006825490860212160
:103B5000244802F0DBF92348FFF7CDFF2122214959
:103B6000214802F009F958B121221E491E4802F0ED
:103B70004EF901201D490870154800681C4908606D
:103B80001A480078C8B11248016819480068FEF761
:103B90004DFC43F6982188420FD921220F49124843
:103BA00002F0EAF830B121220F490C4802F02FF957
:103BB000FFF7BBF900200D49087000BFC2E7000005
:103BC000A0000020D000002090680008E200002043
:103BD0008C00002024010020F4000020920B002023
:103BE000300100200E0C0020ED0B002028010020E9
:103BF0002C01002031490143314A1160704770B5F2
:103C0000002100230F22C47804B32D4C246804F44F
:103C1000E064C4F5E064210AC1F10403CA404478B9
:103C200004FA03F18478144021430901254C0678F5
:103C3000A155047804F01F050124AC4005786D11EE
:103C4000AD0005F1E025C5F8004109E0047804F075
:103C50001F050124AC401C4D0678761145F826401E
:103C600070BD1A4A0A400243154B1B1F1A60704769
:103C700039B1134A121D12680243114B1B1D1A6001
:103C800006E00F4A121D126882430D4B1B1D1A607D
:103C90007047042808D14FF0E021096941F0040180
:103CA0004FF0E022116107E04FF0E021096921F0B7
:103CB00004014FF0E0221161704700000000FA0596
:103CC0000CED00E000E400E080E100E080FFFF1F79
:103CD000002044490860091D0860091D0860091D8D
:103CE000086041483F4914310860704700213D4950
:103CF0008279002A3AD00A46126803689A430B4632
:103D00001A600A1D126803689A430B1D1A60027933
:103D100011440A6803681A430A60324A083212687A
:103D200003689A432F4B08331A601A1D1268036800
:103D30009A432C4B0C331A604279102A0ED11A1F69
:103D4000126803681A43274B08331A601A1D126859
:103D500003681A43234B0C331A600DE02149427962
:103D600011440A6803681A430A6005E002791144A5
:103D70000A6803689A430A60704700210160017174
:103D80000C21417100218171704716491031096879
:103D90000143144A10321160704701460020114A55
:103DA000143212680A400AB1012000E00020704776
:103DB0000C49143108607047014600200022094B6D
:103DC0001B6803EA0102074B14331B680B4013B155
:103DD0000AB1012000E00020704702491431086058
:103DE0007047000000040140FFFF0F000146002063
:103DF000FE4A106800F03800084310607047FB4925
:103E0000096821F00801F94A116011460968014367
:103E100011607047F549096821F01001F34A1160FB
:103E200011460968014311607047F148EF49486045
:103E3000F04848607047EE48EC494860ED484860FB
:103E40007047EA48006940F08000E849086170471F
:103E5000E648006940F08000E449086170470420AA
:103E6000E249C96801F0010109B101200EE0DF4912
:103E7000C96801F0040109B1022007E0DB49C96803
:103E800001F0100109B1032000E00420704700B5E3
:103E900002460423FFF7E3FF034603E0FFF7DFFFDB
:103EA0000346521E012B01D1002AF7D102B9052386
:103EB000184600BD30B5044604254FF43020FFF706
:103EC000E6FF0546042D17D1C848006940F00200FE
:103ED000C649086108464461006940F04000086135
:103EE0004FF43020FFF7D3FF0546C048006941F684
:103EF000FD710840BD490861284630BD10B5042455
:103F00004FF43020FFF7C3FF0446042C16D1B74806
:103F1000006940F00400B54908610846006940F0B6
:103F2000400008614FF43020FFF7B1FF0446AF486E
:103F3000006941F6FB710840AC490861204610BD9C
:103F400000B502460423FFF78AFF034603E0FFF7AC
:103F500086FF0346521E012B01D1002AF7D102B978
:103F60000523184600BD10B504244FF43020FFF798
:103F7000E7FF0446042C16D19C48006940F0040079
:103F80009A4908610846006940F0400008614FF412
:103F90003020FFF7D5FF04469448006941F6FB71D5
:103FA000084092490861204610BD00208F49C96928
:103FB00001F0020109B1012000E00020704730B596
:103FC000A5250424FFF7F1FF00B100254FF43020B0
:103FD000FFF75DFF0446042C3AD185488349886089
:103FE000844888600846006940F02000086108465F
:103FF000006940F0400008614FF43020FFF747FFB0
:104000000446042C1BD17948006941F6DF71084051
:10401000764908610846006940F01000086176485A
:104020000580E002FFF733FF0446052C10D06F48EF
:10403000006941F6EF7108406C49086108E0052C01
:1040400006D06A48006941F6EF7108406749086187
:10405000204630BD78B506460C4604250020009069
:10406000E802FFF714FF0546042D24D15F480069DC
:1040700040F001005D4908613480E802FFF707FF66
:104080000546042D10D1B01C0090200C009908802A
:10409000E802FFF7FCFE05465448006941F6FE7150
:1040A00008405249086106E05048006941F6FE7137
:1040B00008404E490861284678BD70B504460D4653
:1040C0000426F002FFF7E3FE0646042E11D147480E
:1040D000006940F00100454908612580F002FFF7C2
:1040E000D6FE06464148006941F6FE7108403F4948
:1040F0000861304670BD70B505460E460424E002E6
:10410000FFF7C5FE0446042C17D1394837498860AB
:10411000384888600846006940F0100008612E8029
:10412000E002FFF7B4FE0446052C06D02F480069D4
:1041300041F6EF7108402D490861204670BD2DE918
:10414000F04304464FF6FF763746B046B1460425A5
:10415000E443E6B2C4F30727C4F307484FEA1469FF
:10416000E802FFF794FE0546042D49D120481F4977
:104170008860204888600846006940F010000861A7
:10418000FF2E06D01C4808300680E802FFF77FFEAD
:104190000546042D08D1FF2F06D017480A300780A6
:1041A000E802FFF774FE0546042D0AD1B8F1FF0FAF
:1041B00007D011480C30A0F80080E802FFF767FE36
:1041C0000546042D0AD1B9F1FF0F07D00A480E3079
:1041D000A0F80090E802FFF75AFE0546052D0FD023
:1041E0000248006941F6EF71084007E000200240F4
:1041F00023016745AB89EFCD00F8FF1F66490861D1
:104200002846BDE8F08330B5054604244FF430203D
:10421000FFF73DFE0446042C41D160485E498860AA
:104220005F4888600846006940F020000861084641
:10423000006940F0400008614FF43020FFF727FE8E
:104240000446042C22D15448006941F6DF7108402D
:10425000514908610846006940F0100008611DB12D
:1042600000205049088002E0A5204E4908804FF404
:104270003020FFF70CFE0446052C10D0464800699C
:1042800041F6EF7108404449086108E0052C06D06A
:104290004148006941F6DF7108403F490861204606
:1042A00030BDF0B505460E46174604243B483A4952
:1042B00088603B488860E002FFF7E9FD0446042C73
:1042C00019D13548006940F010003349086147F0C2
:1042D000F800304328433349891C0880E002FFF787
:1042E000D6FD0446052C06D02B48006941F6EF7137
:1042F0000840294908612046F0BD2748C069800868
:1043000070472548006A704700202349096801F07A
:10431000200109B1012000E00020704729B11E4AA8
:10432000126902431C4B1A6104E01B4A1269824362
:10433000194B1A61704701460020012908D1164A1D
:10434000D26902F001020AB1012008E0002006E073
:10435000114AD2680A400AB1012000E000207047EB
:104360000D49C860704704200B49C96801F001017C
:1043700009B101200EE00849C96801F0040109B142
:10438000022007E00449C96801F0100109B10320C7
:1043900000E0042070470000002002402301674530
:1043A000AB89EFCD00F8FF1F10B50446CC4884421E
:1043B00008D10121042000F02DFB0021042000F091
:1043C00029FB46E0C748844208D10121082000F0BB
:1043D00021FB0021082000F01DFB3AE0C248844286
:1043E00008D10121102000F015FB0021102000F061
:1043F00011FB2EE0BD48844208D10121202000F0AD
:1044000009FB0021202000F005FB22E0B84884428F
:1044100008D10121402000F0FDFA0021402000F0E9
:10442000F9FA16E0B348844208D10121802000F057
:10443000F1FA0021802000F0EDFA0AE0AE48844253
:1044400007D10121801500F0E5FA0021A01500F048
:10445000E1FA10BD10B50121084600F0DBFA002199
:10446000012000F0D7FA10BD2DE9F04102460025E9
:104470000026002000230024002791F803C00CF040
:104480000F0591F803C00CF0100CBCF1000F03D025
:1044900091F802C04CEA050591F800C0BCF1000F8C
:1044A00031D0146800202BE04FF0010C0CFA00F31F
:1044B000B1F800C00CEA03069E4220D183004FF001
:1044C0000F0C0CFA03F7BC4305FA03FC4CEA040496
:1044D00091F803C0BCF1280F06D14FF0010C0CFA83
:1044E00000FCC2F814C00AE091F803C0BCF1480F08
:1044F00005D14FF0010C0CFA00FCC2F810C0401CB2
:104500000828D1D31460B1F800C0BCF1FF0F34DD2E
:10451000546800202EE000F1080C4FF0010808FA62
:104520000CF3B1F800C00CEA03069E4221D18300CF
:104530004FF00F0C0CFA03F7BC4305FA03FC4CEAEE
:10454000040491F803C0BCF1280F05D100F1080C58
:1045500008FA0CF8C2F8148091F803C0BCF1480FB7
:1045600007D100F1080C4FF0010808FA0CF8C2F866
:104570001080401C0828CED35460BDE8F0814FF66F
:10458000FF710180022181700421C17070470246D1
:10459000002093680B400BB1012000E00020704721
:1045A0000146886880B2704702460020D3680B40FD
:1045B0000BB1012000E0002070470146C86880B2BE
:1045C000704701617047416170470AB1016100E0C5
:1045D00041617047C16070474FF480320A43826185
:1045E0008161826182698269704702460020434B83
:1045F00018684FF68073184040EA021008433F4B9A
:10460000186070473E49C8617047F0B50A460023FC
:1046100000240021002500F00046B6F1004F02D131
:10462000364EF16901E0354E7168C0F3034583B23F
:1046300000F44016B6F5401F08D121F070612F4EEE
:10464000766826F070662D4F7E6012E000F48016CA
:10465000B6F5801F06D1032606FA05F4A14341F002
:10466000706106E0460D360103FA06F6B14341F0EB
:10467000706122B1460D360103FA06F6314300F0AF
:104680000046B6F1004F02D11C4EF16101E01B4E15
:104690007160F0BD30B500228B071C0F0F2303FAA9
:1046A00004F2164B08338C1053F824309343134C08
:1046B00008348D1044F8253023468C1053F82430EC
:1046C0008C07240F00FA04F423430C4C08348D109B
:1046D00044F8253030BD0A49DC31086070470000DD
:1046E00000080140000C014000100140001401408E
:1046F00000180140001C0140002001400000014062
:1047000000002042DF48006840F00100DD490860F9
:1047100008464068DC490840DA49486008460068B5
:10472000DA490840D74908600846006820F480202C
:1047300008600846406820F4FE0048604FF41F00FF
:1047400088607047CF49096821F48031CD4A1160F3
:104750001146096821F480211160B0F5803F03D033
:10476000B0F5802F0ED106E0C649096841F48031CA
:10477000C44A116007E0C349096841F4A021C14A55
:10478000116000E000BF00BF704710B50146002275
:10479000002300204A11012A02D1BA4C236806E006
:1047A000022A02D1B74C236A01E0B64C636A01F0D9
:1047B0001F02012494401C400CB1012000E00020A5
:1047C00010BD38B5002000900024002500BF312026
:1047D000FFF7DBFF05460098401C00900098B0F5FD
:1047E000A06F01D0002DF2D03120FFF7CEFF08B12D
:1047F000012400E00024204638BD01460020A14AE3
:10480000106820F0F80040EAC10010607047A0492D
:1048100008607047024600209A4B586820F47C10CC
:1048200042EA01031843974B58607047984908665D
:10483000704701460020934A506820F00300084367
:10484000506070478F48406800F00C007047014688
:1048500000208C4A506820F0F000084350607047F8
:1048600001460020874A506820F4E0600843506009
:10487000704701460020834A506820F4605040EAA7
:10488000C1005060704729B17E4A527A02437D4B85
:104890005A7204E07B4A527A82437A4B5A727047CA
:1048A0007B49D8310860704701460020754A50683E
:1048B00020F440400843506070470021714A203284
:1048C0001170704A82F82010012802D004280AD101
:1048D00004E001216B4A2032117005E00521694A8C
:1048E0002032117000E000BF00BF704769490860C6
:1048F00070476449096A0143624A11627047654919
:1049000044390860704730B500210022002400239C
:104910005C4D6D6805F00C0121B1042905D0082912
:1049200023D105E05C4D056022E05B4D05601FE092
:10493000544D6D6805F47012524D6D6805F4803465
:10494000022505EB92421CB9544D554305600BE01E
:104950004C4D6D6805F400351DB1504D5543056053
:1049600002E04D4D5543056002E04B4D056000BF30
:1049700000BF444D6D6805F0F0010909484D6B5CBE
:104980000568DD4045603F4D6D6805F4E061090A4A
:10499000434D6B5C4568DD4085603A4D6D6805F4BC
:1049A0006051C90A3E4D6B5C4568DD40C560354DC0
:1049B0006D6805F44041890B3A4D6B5CC568B5FBE9
:1049C000F3F5056130BD29B12E4A526902432D4BE2
:1049D0005A6104E02B4A526982432A4B5A6170475C
:1049E00029B1284A92690243264B9A6104E0254A7C
:1049F00092698243234B9A61704729B1214AD26957
:104A00000243204BDA6104E01E4AD26982431D4B07
:104A1000DA61704729B11B4AD2680243194BDA6048
:104A200004E0184AD2688243164BDA60704729B115
:104A3000144A12690243134B1A6104E0114A1269C5
:104A40008243104B1A617047124940390860704721
:104A50000F49C86470470B49C87170470948406ADC
:104A600040F0807007494862704701460020054ABF
:104A700092680A400AB1012000E000207047014915
:104A800088727047001002400000FFF8FFFFF6FE3A
:104A9000000042428004424200127A0000093D00B8
:104AA000340100204401002010B50446FE48844231
:104AB00008D10121C014FFF7ADFF0021E014FFF77A
:104AC000A9FFC4E0B4F1804F08D101210846FFF7E7
:104AD000AEFF00210120FFF7AAFFB8E0F3488442AF
:104AE00008D101210220FFF7A2FF00210220FFF7D9
:104AF0009EFFACE0EE48844208D101210420FFF77C
:104B000096FF00210420FFF792FFA0E0E9488442CD
:104B100008D101210820FFF78AFF00210820FFF7B4
:104B200086FF94E0E448844208D101211020FFF779
:104B30007EFF00211020FFF77AFF88E0DF488442E3
:104B400008D101212020FFF772FF00212020FFF76C
:104B50006EFF7CE0DA48844208D101214014FFF75F
:104B600059FF00216014FFF755FF70E0D5488442DB
:104B700009D10121C804FFF74DFF00214FF40020A7
:104B8000FFF748FF63E0D048844209D101210805BE
:104B9000FFF740FF00214FF48010FFF73BFF56E086
:104BA000CA48844209D101214805FFF733FF00219B
:104BB0004FF40010FFF72EFF49E0C548844208D1AA
:104BC00001214020FFF733FF00214020FFF72FFF96
:104BD0003DE0C048844208D101218020FFF727FF33
:104BE00000218020FFF723FF31E0BB48844208D139
:104BF00001218015FFF71BFF0021A015FFF717FF0C
:104C000025E0B648844209D101210804FFF702FFDC
:104C100000214FF48030FFF7FDFE18E0B0488442D9
:104C200009D101214804FFF7F5FE00214FF40030BF
:104C3000FFF7F0FE0BE0AB48844208D10121880465
:104C4000FFF7E8FE00214FF48020FFF7E3FE10BDE0
:104C500000220288944B98420ED0994B98420BD078
:104C6000B0F1804F08D0914B984205D0904B9842BC
:104C700002D0904B984204D14FF68F731A404B8864
:104C80001A438D4B984207D08C4B984204D04FF674
:104C9000FF431A40CB881A4302808B8883850B8898
:104CA0000385814B98420BD0854B984208D08B4BA3
:104CB000984205D08A4B984202D08A4B984201D143
:104CC0000B7A038601238382704770B5002400228B
:104CD0000023058C4FF6FE7635400584028C8388D0
:104CE000048B4FF68F752C40B51E2C400D882C433D
:104CF000751E2A400D892A434D882A436A4DA842D1
:104D00000BD06F4DA84208D0744DA84205D0744D09
:104D1000A84202D0734DA84213D14FF6F7752A402E
:104D20004D892A434FF6FB752A408D882A434FF65A
:104D3000FF652B404FF6FF552B408D892B43CD89C6
:104D40002B4383800483CD888586028470BD70B533
:104D5000002400220023058C4FF6EF7635400584B1
:104D6000028C8388048B48F6FF752C404FF6FF4574
:104D70002C400D884FF6FF7606EA05252C434FF6AA
:104D8000DF752A400D8906EA05152A434D8806EA93
:104D900005152A43444DA84202D0494DA8421DD1D1
:104DA0004FF67F752A404D894FF6FF7606EA0515C6
:104DB0002A434FF6BF752A408D8806EA05152A4317
:104DC0004FF6FF352B404FF2FF752B408D8906EAD9
:104DD00085052B43CD8906EA85052B438380048313
:104DE000CD880587028470BD70B5002400220023A1
:104DF000058C4FF6FF6635400584028C8388848BD2
:104E00004FF68F752C404FF6FC752C400D882C43C7
:104E10004FF6FF552A400D894FF6FF7606EA052525
:104E20002A434D8806EA05252A431F4DA84202D091
:104E3000234DA8421DD14FF2FF752A404D894FF6F0
:104E4000FF7606EA05252A434FF6FF352A408D886E
:104E500006EA05252A434EF6FF752B404DF6FF75F1
:104E60002B408D8906EA05152B43CD8906EA0515E9
:104E70002B4383808483CD888587028470BD70B581
:104E8000002200230024058C4EF6FF763540058471
:104E9000038C8488828B48F6FF752A404FF6FF45C5
:104EA0002A400D8820E00000002C01400004004052
:104EB00000080040000C00400010004000140040BA
:104EC00000340140004C01400050014000540140BA
:104ED00000180040001C004000200040004001403D
:104EE00000440140004801404FF6FF7606EA0525E0
:104EF0002A434DF6FF752B400D8906EA05352B43F5
:104F00004D8806EA05352B43FA4DA84202D0FA4DEA
:104F1000A84208D14BF6FF752C408D894FF6FF76DD
:104F200006EA85152C4384808283CD88A0F8405002
:104F3000038470BD828B4FF2FF331A408283828BD1
:104F40004FF6FF7303EA01231A4382837047F0B5DB
:104F50000C461546002200210026078C4EF6FF7CE9
:104F600007EA0C070784828B018C4FF6FF7707EA6C
:104F7000043640F6FF473A404FF6FF7707EA052729
:104F80003A434FF6FF7707EA03373A43D94FB8421F
:104F90000ED0D94FB8420BD0B0F1804F08D0D74FC8
:104FA000B84205D0D64FB84202D0D64FB84206D14B
:104FB0004DF6FF77394046F48057394305E047F610
:104FC000FF57394044F48057394382830184F0BD50
:104FD000828B4FF6F3731A408283828B0A4382835B
:104FE0007047F0B50C461546002200210026078CBC
:104FF0004FF6FF6C07EA0C070784828B018C4FF693
:10500000FF7707EA04264FF60C773A404FF6FF7712
:1050100007EA03172F433A43B64FB8420ED0B64FB4
:10502000B8420BD0B0F1804F08D0B44FB84205D091
:10503000B34FB84202D0B34FB84206D14FF6FF5734
:10504000394046F48077394305E04FF2FF57394045
:1050500044F48077394382830184F0BD028B4FF2A0
:10506000FF331A400283028B4FF6FF7303EA0123DA
:105070001A4302837047F0B50C4615460022002102
:105080000026078C4FF6EF7C07EA0C070784028B9B
:10509000018C4FF6FF7707EA041640F6FF473A40C7
:1050A0004FF6FF7707EA03373A434FF6FF7707EAF1
:1050B00005273A438F4FB8420ED08F4FB8420BD0DE
:1050C000B0F1804F08D08D4FB84205D08C4FB84218
:1050D00002D08C4FB84206D14FF6DF77394046F008
:1050E0001007394305E04FF65F77394044F0100769
:1050F000394302830184F0BD028B4FF6F3731A40EB
:105100000283028B0A4302837047F0B50C461546B2
:1051100000220021068C4FF6FE773E400684028B6B
:10512000018C4FF60C7632407E1C06EA03162E43A5
:105130003243704EB0420ED06F4EB0420BD0B0F141
:10514000804F08D06D4EB04205D06D4EB04202D0B7
:105150006C4EB04206D14FF6FD76314044F0010668
:10516000314305E04FF6F576314044F00106314316
:1051700002830184F0BD70B505460C465D4885424A
:105180000ED05D4885420BD0B5F1804F08D05B480A
:10519000854205D05A48854202D05A48854200D1FE
:1051A00000E000BF208850B92389A2886188284682
:1051B000FFF7ABFFE1882846FFF79EFF25E0208838
:1051C00004280AD12389A28861882846FFF753FF63
:1051D000E1882846FFF742FF17E0208808280AD117
:1051E0002389A28861882846FFF7FBFEE1882846CC
:1051F000FFF7EEFE09E02389A28861882846FFF7C1
:10520000A6FEE1882846FFF795FE70BD2DE9F04126
:1052100005460C4600260127608808B9022600E0F2
:105220000026A088012801D1022700E0012720885C
:10523000A0B92389A28861882846FFF766FFE18824
:105240002846FFF759FF23893A4631462846FFF79B
:1052500012FFE1882846FFF701FF13E02389A288A7
:1052600061882846FFF707FFE1882846FFF7F6FE2A
:1052700023893A4631462846FFF747FFE18828460A
:10528000FFF73AFFBDE8F0810A884B881A438B8804
:105290001A43CB881A430B891A434B891A438B89CB
:1052A0001A43A0F8442070474FF6FF718180002117
:1052B0000180C180418001727047002101804180DE
:1052C0008180C180018141818181C181704700213C
:1052D00001804180012181800021C18001817047CE
:1052E0000021018041808180C180018141818181D3
:1052F00070470000002C01400034014000040040D1
:1053000000080040000C004021B1028842F0010278
:10531000028004E002884FF6FE731A400280704754
:1053200031B1B0F8442042F40042A0F8442005E036
:10533000B0F84420C2F30E02A0F8442070471AB11E
:1053400083890B43838102E083898B438381704788
:105350008182704741EA0203A0F8483070471AB1D1
:1053600083890B43838102E083898B438381704768
:1053700001894FF6F8721140018170470A460021F9
:1053800001894FF68F73194011430181704730B581
:1053900004460D4629462046FFF7F0FF208940F0DD
:1053A0000700208130BD2DE9F04104460D46164628
:1053B0001F46602D06D13B46012231462046FFF7AD
:1053C0005AFE05E03B46012231462046FFF79DFE8E
:1053D00029462046FFF7D2FF208940F007002081B0
:1053E000BDE8F08130B50C4600210189C9B24FF605
:1053F000FF7505EA0325154325432943018130BD87
:105400002DE9F04105460E461746984600244346CE
:105410003A4631462846FFF7E5FF2C894FF6F870EB
:10542000044044F007044FF68F70044044F07004C9
:105430002C81BDE8F081F0B504460D4616461F46A6
:105440003B46324629462046FFF7CCFF208940F4F0
:1054500080402081F0BD0185828270470A4600218C
:1054600001884FF68F731940114301807047F0B5E2
:105470000C4615461E460021002200230189028B9E
:10548000038C4FF6F877394021434FF6FC473A40FA
:1054900040F201173A434FF6DD773B404FF6FF7776
:1054A00007EA06172F433B43018102830384F0BDC3
:1054B0000A460021018B4FF68F7319401143018377
:1054C00070470A460021018B48F6FF7319404FF6DA
:1054D000FF7303EA02231943018370470A46002140
:1054E000818B4FF68F7319401143818370470A46B1
:1054F0000021818B48F6FF7319404FF6FF7303EAD2
:10550000022319438183704721B1028842F080024F
:10551000028004E002884FF67F731A4002807047D1
:1055200021B1828842F00402828004E082884FF632
:10553000FB731A408280704721B1828842F00802D2
:10554000828004E082884FF6F7731A4082807047A9
:1055500021B1828842F00102828004E082884FF605
:10556000FE731A40828070470A460021018B4FF675
:10557000F77319401143018370470A460021018BDC
:105580004FF2FF7319404FF6FF7303EA02231943EA
:10559000018370470A460021818B4FF6F77319404B
:1055A0001143818370470A460021818B4FF2FF73BC
:1055B00019404FF6FF7303EA0223194381837047B2
:1055C0000A460021018B4FF6FB73194011430183FA
:1055D00070470A460021018B4FF6FF3319404FF602
:1055E000FF7303EA02231943018370470A4600212F
:1055F000818B4FF6FB7319401143818370470A4634
:105600000021818B4FF6FF3319404FF6FF7303EAF9
:1056100002231943818370470A460021018B4FF60C
:105620007F7319401143018370470A460021018BA3
:10563000C1F30E014FF6FF7303EA022319430183FE
:1056400070470A460021818B4FF67F731940114342
:10565000818370470A460021818BC1F30E014FF60A
:10566000FF7303EA02231943818370470A4600212E
:10567000018C4FF6FD7319401143018470470A46AF
:105680000021018C4FF6F7731940114301847047D4
:105690000A460021018C4FF6DF7319404FF6FF7365
:1056A00003EA02131943018470470A460021018C62
:1056B0004FF67F7319404FF6FF7303EA0213194345
:1056C000018470470A460021018C4FF6FF531940B0
:1056D0004FF6FF7303EA02231943018470470A4619
:1056E0000021018C4FF2FF7319404FF6FF7303EA5C
:1056F00002231943018470470A460021018C4DF6AC
:10570000FF7319404FF6FF7303EA02331943018414
:10571000704730B5002301248C40A3B2048C9C4315
:105720000484048C02FA01F5ADB22C43048430BD2C
:1057300030B5002304248C40A3B2048C9C43048421
:10574000048C02FA01F5ADB22C43048430BD70B56F
:105750000346002000241846183001258D40ACB2C5
:105760001D8CA5431D8409B1082909D100EB6100F6
:10577000056825F0700505600568154305600EE0B5
:105780000D1FC5F34E052844056825F4E045056066
:1057900005684FF6FF7606EA02263543056070BDC0
:1057A00021B1028842F00202028004E002884FF632
:1057B000FD731A400280704721B1028842F0040252
:1057C000028004E002884FF6FB731A4002807047A3
:1057D00021B1828842F08002828004E082884FF604
:1057E0007F731A408280704702884FF6F7731A4021
:1057F000028002880A430280704782884FF68F73C6
:105800001A40828082880A438280704702894FF65C
:10581000F8731A40028102890A43028170470289A3
:105820004FF67F731A40028102890A430281704752
:1058300081847047818570478186704701877047F2
:1058400081877047A0F84010704702884FF6FF43E9
:105850001A40028002880A43028070470146888EFF
:1058600070470146088F70470146888F7047014690
:10587000B1F8400070470146888C70470146088D9A
:10588000704702460020138A0B400BB1012000E054
:1058900000207047CA430282704730B5024600209C
:1058A00000230024158A05EA0103958905EA01040D
:1058B00013B10CB1012000E0002030BDCA430282C8
:1058C0007047000010B50446FB48844209D101210D
:1058D0008803FFF79FF800214FF48040FFF79AF804
:1058E00032E0F648844209D101214804FFF79FF8CD
:1058F00000214FF40030FFF79AF825E0F048844289
:1059000009D101218804FFF792F800214FF480208B
:10591000FFF78DF818E0EB48844209D10121C80453
:10592000FFF785F800214FF40020FFF780F80BE027
:10593000E548844208D101210805FFF778F80021E5
:105940004FF48010FFF773F810BD2DE9F04786B0D3
:1059500005460E460024A24600BFA1460027B08996
:1059600000B100BF2F462C8A4CF6FF700440F0882F
:1059700004432C82AC894EF6F3100440B088318980
:105980000843718908430443AC81AC8A4FF6FF4059
:105990000440B0890443AC8201A8FEF7B4FFC648B6
:1059A000874202D1DDF810A001E0DDF80CA0A88943
:1059B00000F4004040B10AEBCA0000EB0A10316865
:1059C0004900B0FBF1F807E00AEBCA0000EB0A104F
:1059D00031688900B0FBF1F86420B8FBF0F00401F5
:1059E0002009642101FB1089A88900F4004040B11E
:1059F000322000EBC900B0FBF1F000F007000443D7
:105A000008E0322000EB09106421B0FBF1F000F057
:105A10000F0004432C8106B0BDE8F0874FF4165107
:105A2000016000218180C18001810C214181002120
:105A30008181704710B502460020108A4FF2FF03A3
:105A400018400B884C8823438C882343CC882343FD
:105A50001843108210BD0021018041808180C180E7
:105A6000704721B1828942F40052828104E0828928
:105A70004DF6FF731A4082817047F0B5034600244B
:105A800000260025002040F66A17B94200D100BF69
:105A90001846C1F3421401F01F06012707FA06F564
:105AA000012C01D10C3004E0022C01D1103000E0B7
:105AB00014301AB107682F43076002E00768AF434C
:105AC0000760F0BD1AB1838A0B43838202E0838AA8
:105AD0008B4383827047028A4FF6F0731A4002822A
