:020000040800F2
:1000000058190020E1010008E9010008EB0100088F
:10001000ED010008EF010008F101000800000000F8
:10002000000000000000000000000000F3010008D4
:10003000F501000800000000F7010008B7240008DF
:10004000FB010008FB010008FB010008FB010008A0
:10005000FB010008FB010008FB010008FB01000890
:10006000FB010008FB010008FB010008FB01000880
:10007000FB010008FB010008FB010008FB01000870
:10008000FB010008FB010008FB010008FB01000860
:10009000FB010008FB010008FB010008FB01000850
:1000A000FB010008FB010008FB010008FB01000840
:1000B000FB010008FB010008FB010008FB01000830
:1000C000FB010008FB010008FB010008FB01000820
:1000D000FB0100084F0F00087B440008FB010008EB
:1000E000FB010008FB010008FB01000800F002F81A
:1000F00000F05EF80AA090E8000C82448344AAF164
:100100000107DA4501D100F053F8AFF2090EBAE861
:100110000F0013F0010F18BFFB1A43F0010318473B
:10012000C87B0000E87B00000A444FF0000C10F888
:10013000013B13F0070408BF10F8014B1D1108BF65
:1001400010F8015B641E05D010F8016B641E01F805
:10015000016BF9D113F0080F1EBF10F8014BAD1C55
:100160000C1B09D16D1E58BF01F801CBFAD505E073
:1001700014F8016B01F8016B6D1EF9D59142D6D3CD
:10018000704700000023002400250026103A28BFF5
:1001900078C1FBD8520728BF30C148BF0B607047F9
:1001A0001FB59DE8030007F0D1F81FBD10B510BDC5
:1001B00007F028F91146FFF7F3FF00F0BBFD07F049
:1001C00046F903B4FFF7F2FF03BC07F077F900002C
:1001D000EFF3108072B6704780F31088704700000C
:1001E0000948804709480047FEE7FEE7FEE7FEE7CB
:1001F000FEE7FEE7FEE7FEE7FEE7FEE70448054907
:10020000054A064B70470000FF020008ED00000899
:1002100058130020581900205815002058150020A8
:100220000CB50020019000906D48006840F48030CB
:100230006B49086000BF6A48006800F40030009015
:100240000198401C0190009818B90198B0F5A06F72
:10025000F1D16348006800F4003010B10120009033
:1002600001E0002000900098012843D15D4800681B
:1002700040F010005B4908600846006820F0030069
:1002800008600846006840F0020008605448406872
:10029000534948600846406848600846406840F452
:1002A000806048600846406820F47C10486008463A
:1002B000406840F4E81048600846006840F08070EC
:1002C000086000BF4648006800F000700028F9D0C0
:1002D0004348406820F003004149486008464068B0
:1002E00040F00200486000BF3D48406800F00C004C
:1002F0000828F9D10CBD10B5FFF792FF10BD10B55D
:100300003748006840F001003549086008464068F9
:10031000354908403249486008460068334908407A
:100320002F4908600846006820F4802008600846CD
:10033000406820F4FE0048604FF41F008860FFF71B
:10034000DAFF4FF000602A4908602A48091D08605A
:1003500010BD10B5002100200022214B5B6803F086
:100360000C0121B1042906D0082928D107E0224B2D
:10037000224C236027E0204B204C236023E0184BC5
:100380005B6803F47010164B5B6803F48032022341
:1003900003EB904022B91A4B4343184C23600DE005
:1003A0000F4B5B6803F4003323B1154B4343134CED
:1003B000236003E0104B4343104C236003E00E4BDB
:1003C0000E4C236000BF00BF054B5B68C3F30313F3
:1003D0000C4CE15C094B1B68CB40084C236010BD02
:1003E00000100240002002400000FFF8FFFFF6FE70
:1003F00008ED00E00003FA0500127A00000000207A
:1004000000093D000400002038B500208DF80300ED
:10041000002410E004EB44005F4901EB8000808879
:10042000ADF8000004EB44015B4A52F82100694634
:1004300005F04CF8641C0C2CECD338BD10B590B012
:100440000BA804F0FDF9684604F098FC4FF4004056
:1004500005F05CFA0121084605F0E7FA012148029F
:1004600005F0F0FA4D4804F0C9FB4D4800904D48A6
:100470000190002002900C20039000200490802026
:100480000590400006908000079020200890000210
:10049000099000200A906946404804F051FC01216F
:1004A0003E4804F078FC00200B9001208DF83000CD
:1004B0008DF831004FF460200D9000200E900C203C
:1004C0008DF83C000BA936484C3804F096F900240E
:1004D0000DE0601CC2B204EB44002F4B03EB800024
:1004E000017A00232E484C3804F01FFA641C0C2CAF
:1004F000EFD301212A484C3804F0B6F901212848ED
:100500004C3804F0A6F926484C3804F0C4F900BF72
:1005100023484C3804F0C4F90028F9D120484C385D
:1005200004F0C8F900BF1E484C3804F0C8F9002890
:10053000F9D101211A484C3804F0CBF910B010BDA4
:1005400010B5014600220C2091FBF0F400FB1410C2
:10055000C1B20B4604E0134830F8130002440C33D8
:100560000C2BF8D300BF90B210BD10B5FFF74CFFB5
:10057000FFF764FF10BD10B504460C2C02DD4FF6EA
:10058000FF7010BD0C2C03DAE0B2FFF7D9FFF8E7DB
:100590004FF6FF70F5E700000875000808000240FC
:1005A0004C240140380100202DE9F041024692F828
:1005B000644004F00706002009E0FC4C215CFC4C80
:1005C00034F81140FB4D55F821502C61401C0A288D
:1005D000F3D300233CE0F54FF95CF54F37F8117089
:1005E000DFF8D0C35CF821C0CCF81470002000E024
:1005F000401C2828FCD300BF00BF00BF00240020FF
:1006000013E0ED4F57F82070BF68DFF8B0C33CF837
:1006100010C007EA0C050DB1012700E000273D4698
:1006200005FA00F72743BCB2401C0828E9D3E04F85
:1006300037F81170DFF87CC35CF821C0CCF810707B
:1006400006EB860802F1140707EB4807FC545B1C15
:100650000A2BC0D3546E641C5466BDE8F081F0B51B
:1006600003460C46FF250026002118E000220FE07B
:1006700001EB810003EB4000875C481C00EB80002D
:1006800003EB4000805C874201D0761C02E0521CE4
:100690000A2AEDDB00BF0A2A00D10D46491C0729B2
:1006A000E4DB052E01DD0020F0BD082D01DB00207C
:1006B000FAE705EB850003EB400007682760476811
:1006C0006760008920810120EEE770B502460D4683
:1006D000002366E0581CC4B25FE002EB8300407860
:1006E00000F0F00002EB8406767806F0F006B042E7
:1006F00051D100210FE002EB8300407800F00F00A1
:1007000002EB8106767806F00F06B04201D1012097
:1007100070BD481CC1B29942EDDB581CC1B20FE05C
:1007200002EB8300407800F00F0002EB8106767840
:1007300006F00F06B04201D10120E9E7481CC1B222
:10074000A942EDDB00210FE002EB8400407800F0CD
:100750000F0002EB8106767806F00F06B04201D159
:100760000120D5E7481CC1B2A142EDDB601CC1B23B
:100770000FE002EB8400407800F00F0002EB8106EE
:10078000767806F00F06B04201D10120C0E7481C80
:10079000C1B2A942EDDB601CC4B2AC429DDB581C67
:1007A000C3B2681E984295DC0020B1E72DE9F05FE6
:1007B000074697F8640000F0070007287DD1394606
:1007C00007F11400FFF74BFF8346BBF1000F02D186
:1007D0000020BDE8F09FB94607F10A0A07F1680852
:1007E000002400255DE00020002119F805201AF8FA
:1007F000053082EA030019F805201AF8053002EAEC
:10080000030158B3002627E00122B240024012B390
:10081000082C00DB48E0F02202EA051206F00F0384
:100820001A4308EB84035A70654A02EBC502925DD5
:1008300008F8242019F805200123B3401A4022B1FA
:10084000022208EB84039A7003E0012208EB840380
:100850009A70621CD4B2761C082ED5DB01B3002638
:100860001CE00122B2400A40BAB1082C00DB1BE0B8
:10087000F02202EA051206F00F031A4308EB840384
:100880005A704F4A02EBC502925D08F82420EE220E
:1008900008EB84039A70621CD4B2761C082EE0DB4D
:1008A0006D1C0A2D9FDB00BFD9F80000CAF80000BC
:1008B000D9F80400CAF8040000E00FE0B9F8080015
:1008C000AAF80800042C07DB214607F16800FFF7AF
:1008D000FCFE08B100207CE720467AE7002078E79C
:1008E00038B503208DF8020010208DF80300002495
:1008F00012E0324830F81400ADF800002E4951F8EB
:100900002400694604F0E2FD2C4830F814002A491E
:1009100051F824104861641C082CEAD300BF282039
:100920008DF8030000240BE0244830F81400ADF8E3
:100930000000214951F82400694604F0C7FD641CF9
:10094000082CF1D300BF38BD38B503208DF8020064
:1009500010208DF8030000240BE01A4830F8140032
:10096000ADF80000184951F82400694604F0AEFDC6
:10097000641C082CF1D338BD38B503208DF8020073
:1009800010208DF8030000240BE0094830F8140013
:10099000ADF80000074951F82400694604F096FDBF
:1009A000641C0A2CF1D300241CE0000034760008FB
:1009B000F0750008C875000898750008B87500083B
:1009C000190000202476000804760008A44830F8B6
:1009D0001400ADF80000A34951F82400694604F062
:1009E00075FD641C0A2CF1D338BD002007E09E4938
:1009F00031F810109D4A52F820205161401C0828FF
:100A0000F5D37047002007E0954931F81010954A5A
:100A100052F820201161401C0A28F5D370470020AD
:100A200007E08F4931F810108E4A52F820201161EA
:100A3000401C0A28F5D3704710B5FFF7F0FFFFF709
:100A4000E1FF10BD2DE9F04105460A21E868B0FB41
:100A5000F1F201FB1206AF5DFFF7C7FFFFF7D2FF10
:100A600000240BE00120A040384030B17E4830F82F
:100A700014007E4951F824100861641C082CF1D33D
:100A8000774830F81600774951F826104861701CF5
:100A9000E860BDE8F08110B5FFF722FFFFF754FFD3
:100AA000FFF76AFFFFF7C8FF8821714806F008FCCE
:100AB00070480021016041608160C1600A216E4878
:100AC00006F0FEFB6D4800210160416001810A21B2
:100AD0006B4806F0F5FB10BD30B50B4600F0070083
:100AE0000A24B3FBF4F504FB1533624CE1182AB178
:100AF0000C78012585402C430C7004E00C7801250E
:100B00008540AC430C7030BD10B5024602F00702C0
:100B10000A20B1FBF0F400FB14115648435C01209D
:100B20009040184008B1012010BD0020FCE730B50E
:100B30000B4600F007000A24B3FBF4F504FB153361
:100B40004D4CE1182AB10C78012585402C430C70DE
:100B500004E00C7801258540AC430C7030BD10B525
:100B6000484801684848006801F090FCB0F5FA7FF9
:100B70001ED900210FE03F4B58183F4B5A5C4AB139
:100B8000424B1B781BB103781343037002E00378D8
:100B900093430370491C0A29EDD33A4B1B683A4C26
:100BA00023603A4B1B7883F00103384C237000BF5D
:100BB00010BD70B50446002504B1FF250A212E485A
:100BC00006F07EFB2A460A212A4806F04FFB70BD3C
:100BD00010B50A2228492A4806F016FB274825495D
:100BE0000A6802604A6842600989018110BD10B537
:100BF0000A222349204806F007FB1E481F490A68BD
:100C000002604A6842600989018110BD10B58AB04E
:100C10001C48007800F00100D0B90024FFF7E5FE81
:100C20001348FFF7C1FC1248FFF7C0FD0446002C33
:100C30000DDD019401208DF80000A2000C496831FF
:100C400002A806F0E1FA684600F052F800BF00BFC3
:100C5000FFF785FF0748FFF7F5FE0AB010BD00005B
:100C6000F0750008C87500082476000804760008AE
:100C700050010020D8010020E8010020F2010020EE
:100C8000FC01002084000020140000201800002037
:100C900010B5032308222449244801F093FD0024C1
:100CA00016E0002004EB44011F4A02EBC101087268
:100CB00004EB84001E4901EBC00004EB440142F840
:100CC0003100282004EB440102EBC1014860641CA0
:100CD000082CE6D310BD10B50121144801F0F5FD34
:100CE00010BD10B504462146104801F025FE10BD88
:100CF00070B50446002504B970BD0C4801F0A2FD92
:100D0000054675B128222146286806F038FA0122E6
:100D10002946064801F0ADFD18B12946034801F007
:100D20000BFE00BFE8E70000480300200804002095
:100D30000802002008B500BFFFF7AAFF01F091F8F4
:100D400001F0D0FB01F0D8FB01F006FC02F055F9F0
:100D500000F00FF903F0A3FB01F0D4FB01F085F8DC
:100D600002F0E3FB4948076800BF4848016838467D
:100D700001F08CFBB0F5FA6FF7D302F0DCFE03F064
:100D80000DF9FFF7F2FB03F0C2F900BF03208DF865
:100D9000020010208DF803000120ADF80000694624
:100DA0003B4804F093FB0220ADF800006946384848
:100DB00004F08CFB00BF0020FFF7FBFE01F051F8B0
:100DC00000BFFFF788FF044604B903E02046FFF7A1
:100DD00088FFF6E700BF03F0D9F92C48076854E014
:100DE000002000F0DBF80446002003F06DFB054610
:100DF000FFF771FF064616B1304601F08BF844B19B
:100E00002449204600F0C7FE18B12249204601F0CF
:100E10001DFB45B12049284600F0BDFE18B11E4912
:100E2000284601F013FB3046FFF75BFF204600F039
:100E300057F9284603F0F3FB03F0B3F903F02FF85A
:100E400003F00BFA02F0D1FB10480168384601F0BC
:100E50001DFBB0F5FA7F17D90C4807680F480078DA
:100E600080F0010201210A4804F0E1FB0B48007800
:100E700080F001020221064804F0D9FB07480078FF
:100E800080F001000549087000BFA9E78400002038
:100E90000008014040760008D07C0008690000206E
:100EA00000B587B00121880304F0CCFD03A805F04C
:100EB0006DFF4FF4E130039003A9AB4805F0FDFE50
:100EC0000121A94805F085FF4FF40070ADF8080036
:100ED00003208DF80A0018208DF80B0002A9A34802
:100EE00004F0F4FA4FF48060ADF8080004208DF8A7
:100EF0000B0002A99D4804F0E9FA25208DF80400B2
:100F000004208DF8050000208DF8060001208DF8E2
:100F1000070001A803F0E1FB012240F225519248AD
:100F200005F063FF0121084604F07FFD43F29000C5
:100F30008F4948648C48001DC86400208864086597
:100F400001228021884805F075FF07B000BD38B543
:100F50008548048804F0200050B18348001D0088B3
:100F6000C0B2009001226946824801F017FD00BF1F
:100F700038BD10B5002310227F49804801F022FCC3
:100F800080227F497B4801F0EBFC4FF480627D4971
:100F90007D4800F0FFF8FFF783FF10BDF0B585B086
:100FA000054600BF00270020049004A9714801F005
:100FB0003DFD074607B92CE028E0002600200390FD
:100FC0000290002402A903ABCDE9001039466E4817
:100FD000049A00F0F1F8064606B918E0674801F0F7
:100FE00031FC04461CB9304606F057F80FE0266085
:100FF00003986060012020720298A07201222146AD
:101000005E4801F036FC0020049000BFD5E700BF29
:1010100000BF00BF00BF00245C480078E8B154481E
:10102000006800F4005010B905B149E049E04E48AD
:10103000008800F0400010B905B141E041E04FF4F4
:1010400080504B4948605248007A18B150490868AE
:1010500006F023F800204D4908700021474801F0B0
:1010600034FC04465CB36068002801DD206848B9A0
:10107000207A20B1206810B1206806F00EF805B182
:101080001EE01EE03A48406C20F0010038494864F8
:1010900060688864206808650846406C40F001007C
:1010A000486401203949087018222146384806F062
:1010B000ABF82146314801F03FFC05B100E000E00B
:1010C000A9E700BF00BF002401212C4801F0FDFB6F
:1010D000044614B1204605B0F0BD00BF0020FAE779
:1010E00010B5044644B1207A10B1206805F0D5FF50
:1010F0002146224801F020FC10BD2DE9F0410546B3
:101100000E4690461F46002415B9601EBDE8F081CA
:101110001A4801F097FB044614B94FF0FF30F5E789
:1011200025606760267200222146144801F0A1FB69
:101130000020EBE710B504461CB121460F4801F032
:10114000FBFB10BD4FF48060704710B5044604B936
:1011500010BD0020A0810C2060812146024805F0CE
:10116000ACFD00BFF4E7000000380140000801407A
:1011700000000240300600201C0400209C050020D6
:10118000B005002048060020480A00206A00002020
:10119000600A002070B504460E4615460CB106B133
:1011A00015B94FF0FF3070BD1821204606F088F8C1
:1011B000266065600020F6E72DE9FF4F8DB00446FC
:1011C00091469A46DDF86880002700200C9014B103
:1011D000BAF1000F03D14FF0FF300C9023E22169E8
:1011E0006068401A484502D24FF0FF300C90B9F1C8
:1011F000000F2ED00E9818B94FF0FF300C90EDE78D
:10120000A06800EB09066068B04214D2D4E901017D
:10121000451AA268216888182A460E9905F0AFFF82
:10122000A9EB05020E9B5919206805F0A8FFA9EB50
:101230000500A06009E0A268216888184A460E9956
:1012400005F09DFFA0684844A060206948442061E3
:1012500000BF00BF00200B900025BDE3E0682844DC
:101260000A9061680A98B0FBF1F201FB12000A9043
:1012700021680A98085C09900998AA287DD100265F
:10128000002008902069401B07900798072806DB7C
:10129000606928B1A08AC0F30726207D089085E008
:1012A000E26850192168821C6368B2FBF3FC03FBFF
:1012B0001C228A5C042A78D1C21C6368B2FBF3FC4E
:1012C00003FB1C228A5C002A6FD1421D6368B2FBBB
:1012D000F3FC03FB1C228E5C821D6368B2FBF3FCF3
:1012E00003FB1C228A5C0892079A082A5DDBD4F86B
:1012F0000CC0AC44CDF818C005F1070CD4F80CB004
:101300000CEB0B034FF0000CCDF814C0069A10E064
:10131000D4F804C0B2FBFCFB0CFB1B2CD4F800B0CF
:101320001BF80CC0DDF814B08CEA0B0CCDF814C01F
:10133000521C9A42ECD3D4F804C0B3FBFCFB0CFB68
:101340001B3CD4F800B01BF80CC0CDF810C0DDE990
:1013500004CBE3451BD005F1010CD4F810B0ABEB86
:101360000C0CC4F810C005F1010CD4F80CB0DC442E
:10137000C4F80CC0D4F80CC000E03FE1D4F804B0CD
:10138000BCFBFBFE0BFB1ECCC4F80CC028E3F6B282
:10139000DDF820C00CF0FF0CCDF820C0DDF820C037
:1013A0000CEB062CC4F814C000BF00BFF6B20898BE
:1013B000C0B20890089800EB062608366068B6EBC5
:1013C000500F11D9681C2169081A2061681CE16856
:1013D0000844E0606168E068B0FBF1F201FB1200D4
:1013E000E0600020606108E10798864275DC082E05
:1013F00075D1002006900196019805F01FFE074662
:101400001FB94FF0FF300C9007E30597E0682844C0
:101410000390701E2844E1680844029003980490E9
:1014200015E061680498B0FBF1F201FB120021683D
:1014300011F800B0069880EA0B000690059880F835
:1014400000B00598401C05900498401C0490029937
:1014500004988842E5D361680298B0FBF1F201FB81
:101460001200216811F800B0069858451FD10120DC
:101470000B90059880F800B0216901982844081A5B
:101480002061E068411901980844E0606168E06803
:10149000B0FBF1F201FB1200E0600198CAF8000015
:1014A000B8F1000F18D00120C8F8000014E0384649
:1014B00005F0F3FD0027681C2169081A2061681CEB
:1014C000E1680844E0606168E068B0FBF1F201FBAC
:1014D0001200E060002060618FE07FE0FFE705968A
:1014E000059805F0ABFD07461FB94FF0FF300C9093
:1014F00093E2E06828446168B0FBF1F201FB120B53
:101500007019E16808446168B0FBF1F201FB120058
:1015100006900698584507D9206800EB0B01324623
:10152000384605F02CFE11E06068A0EB0B0002903D
:10153000206800EB0B013846029A05F020FE029B62
:10154000F21AF818216805F01AFE00BF0020606149
:10155000A6F10A0081B207F1080001F04FF80490EB
:1015600000200390B819811E022203A801F022F87E
:10157000BDF80C10049881421CD101200B90216908
:1015800005982844081A2061E06841190598084424
:10159000E0606168E068B0FBF1F201FB1200E0601E
:1015A0000598CAF80000B8F1000F16D00120C8F85D
:1015B000000012E0384605F070FD0027681C216924
:1015C000081A2061681CE1680844E0606168E0680E
:1015D000B0FBF1F201FB1200E0600EE02069401B5D
:1015E0002061E0682844E0606168E068B0FBF1F2E7
:1015F00001FB1200E06001200B90F1E10998FA284C
:1016000070D12069A0EB050BBBF1070F6BDB00204D
:10161000089007200390039805F010FD07461FB9B6
:101620004FF0FF300C90F8E13E46E068284405900A
:10163000A81DE16808440490059806900FE06068D2
:101640000699B1FBF0F200FB12102168085C0790CC
:101650009DF81C0006F8010B0698401C06900499A2
:1016600006988842EBD30220069009E00698385C81
:101670009DF820100844C0B208900698401C0690BF
:1016800006980628F2D360680499B1FBF0F200FBDB
:1016900012102168085C07909DF820009DF81C102E
:1016A000884221D101200B909DF81C0030702069E8
:1016B00003992944401A2061E068284403990844AA
:1016C000E0606168E068B0FBF1F201FB1200E060ED
:1016D0000398CAF80000B8F1000F18D00520C8F828
:1016E000000014E024E013E0384605F0D6FC0027A3
:1016F000681C2169081A2061681CE1680844E060E0
:101700006168E068B0FBF1F201FB1200E0600EE0FE
:101710002069401B2061E0682844E0606168E0685F
:10172000B0FBF1F201FB1200E06001200B9057E1E9
:10173000099800F0F000802879D12069401B0890BA
:101740000898032874DBE06828440790D4E9031064
:1017500000EB010B002006900798861C0DE06068E6
:10176000B6FBF0F100FB11602168085C069006985A
:10177000FF2801D1B34602E0761C5E45EFD300BFDF
:101780000698FF2855D10798ABEB0000401C1028A5
:1017900010D90027681C2169081A2061681CE168BB
:1017A0000844E0606168E068B0FBF1F201FB120000
:1017B000E06063E00798ABEB0000401C04900498E5
:1017C00005F03CFC07461FB94FF0FF300C9024E1B8
:1017D000059701200B90079E0CE06068B6FBF0F1C6
:1017E00000FB11612068415C059801700598401C60
:1017F0000590761C5E45F0D9216904982844081AA2
:101800002061E068411904980844E0606168E0687C
:10181000B0FBF1F201FB1200E0600498CAF800008E
:10182000B8F1000F02D00420C8F8000026E036E02E
:1018300025E00798ABEB0000102810D30027681CA8
:101840002169081A2061681CE1680844E060616849
:10185000E068B0FBF1F201FB1200E0600EE02069ED
:10186000401B2061E0682844E0606168E068B0FBEC
:10187000F1F201FB1200E06001200B900EE0206904
:10188000401B2061E0682844E0606168E068B0FBCC
:10189000F1F201FB1200E06001200B90A0E009983A
:1018A000A52871D12069A0EB050BBBF10B0F6CDBF8
:1018B000002008900B200390039805F0BFFB07461B
:1018C0001FB94FF0FF300C90A7E03E46E068284477
:1018D000059005F10A00E168084404900598069017
:1018E0000FE060680699B1FBF0F200FB121120686E
:1018F000405C07909DF81C0006F8010B0698401C00
:101900000690049906988842EBD30120069009E0DE
:101910000698385C9DF820100844C0B208900698DC
:10192000401C069006980A28F2D360680499B1FB1F
:10193000F0F200FB12102168085C07909DF820006F
:101940009DF81C10884221D101200B909DF81C00AD
:101950003070206903992944401A2061E0682844C6
:1019600003990844E0606168E068B0FBF1F201FBB4
:101970001200E0600398CAF80000B8F1000F18D018
:101980000620C8F8000014E024E013E0384605F013
:1019900084FB0027681C2169081A2061681CE16823
:1019A0000844E0606168E068B0FBF1F201FB1200FE
:1019B000E0600EE02069401B2061E0682844E060A0
:1019C0006168E068B0FBF1F201FB1200E060012009
:1019D0000B9005E000BF6D1C2069A8423FF63EACAD
:1019E00000BF2069A8420FD10B9868B90020206180
:1019F000E0682844E0606168E068B0FBF1F201FB58
:101A00001200E060002060610B9800B103E02069E3
:101A100000283FF71FAC00BF00BF1B9810B11B99F7
:101A20000C980860384611B0BDE8F08F10B501463B
:101A30000B78FC4C24680CB1092200E0072201203D
:101A400002E00C5C6340401C9042FADB0B5410BD7A
:101A50002DE9FF4381B08846DDF830900024B8F1CD
:101A6000000F03D1002005B0BDE8F083DDE90301DC
:101A700000FB01F707F11006304605F0DFFA0446D7
:101A80000CB90020EFE73146204605F0F7FBAA200D
:101A900020700420A0700020E070A6F108000090E3
:101AA00002226946601D00F085FD2046FFF7BEFF5B
:101AB00004F10805022201A9284600F07BFD02225C
:101AC00003A9A81C00F076FD022204A9281D00F03D
:101AD00071FD3A464146A81D05F051FBB81D81B283
:101AE000284600F08BFD0090A91DC8190222694606
:101AF00000F060FDB9F1000F01D0C9F80060204688
:101B0000B1E7F8B506460F4614461D4623460122A6
:101B1000394630460095FFF79BFFF8BD70B5054686
:101B20000C46ADB1A4B1204605F088FA064676B160
:101B300022462946304605F022FB23460322012196
:101B40003046FFF7DAFA10B1304605F0A6FA00BFCA
:101B500070BD704770472DE9F04105460E461446AA
:101B6000BDB1B6B1ACB1204605F068FA07467FB109
:101B700022463146384605F002FB23460322012166
:101B80003846D5F814C0E04710B1384605F085FA5C
:101B900000BFBDE8F0812DE9F04F8FB007460C463D
:101BA00001200E901FB9801E0FB0BDE8F08F3D6878
:101BB0002878AA2802D04FF0FF30F5E7A8780C2843
:101BC0007AD1E878802878D100200C900D900026FA
:101BD0000B904FF001094FF0010A8346AA208DF8BF
:101BE00030000C208DF8320080208DF83300012069
:101BF0008DF83400A8790D2860D2DFE800F05F0787
:101C000008165F245F5F5F385F3A4B0000BFA8791A
:101C10008DF83600082005F011FA064616B94FF087
:101C2000000950E008200B904DE008A800F0C9FF23
:101C30004FF0000A0BAB0C2208A948F20300FFF793
:101C400060FF06463FE000200A902CB1206918B1E1
:101C50002069804780B20A904FF0000A0BAB022245
:101C60000AA948F20500FFF74CFF06462BE000F0FA
:101C7000FAFB4FF0FF300A9000F0AEFF0A904FF0F1
:101C8000000A0BAB04220AA948F20B00FFF739FF48
:101C9000064618E00FF290184FF0000A404605F093
:101CA0004FFA401C0BAB024641460A9048F20C002A
:101CB000FFF727FF064606E030E0CBE04FF00009D3
:101CC00000200E9000BF00BFB9F1000F20D0FEB180
:101CD000BAF1000F06D00CA8FFF7A8FE0C983060F0
:101CE0000D9870601CB9304605F0D7F910E06069B6
:101CF00018B9304605F0D1F90AE0D4F814C003222F
:101D0000012130460B9BE04710B1304605F0C5F984
:101D1000BBF1000F01D000F0A6FB9BE0A8780428DF
:101D20007ED100200D9080460E900222691D0DA8E4
:101D300000F040FC05F108060D98801E0D9082E031
:101D40004FF0000900200C904FF0010A0B900A9010
:101D50000990022231460BA800F02CFC0222B11C93
:101D60000AA800F027FC0222311D09A800F022FC7D
:101D7000BDF82C00A0F500400A3858BB06F1060B50
:101D800001A800F01EFF4FF0FF3000F025FF00908B
:101D9000012301A904A8009A00F044FF102259462B
:101DA00004A805F0A1F938B900200890002201210B
:101DB00004A800F05DFF02E04FF0FF3008900CAB8C
:101DC000042208A948F20A00FFF79BFE8146012081
:101DD0000E9000E000BF00BFBAF1000F18D0B9F1BB
:101DE000000F15D01CB9484605F057F910E060699E
:101DF00018B9484605F051F90AE0D4F814C0032296
:101E0000012148460C9BE04710B1484605F045F9D2
:101E1000BDF82800BDF824104843801D80440DE023
:101E200016E000008800002059415F5553425F4191
:101E30005544494F5F3138303731340005F10800DF
:101E400000EB080600BF0D988045FFF479AF01E074
:101E500000200E900E9808B10020A5E64FF0FF304C
:101E6000A2E60020FA490870704770477047704733
:101E700001460022012003E00B5C1344DAB2401C4F
:101E80000628F9DB0A5470472DE9F0410546002782
:101E900026E005F1080000EB8706B078EE2800D1B7
:101EA0001DE096F80080EB4C0020206060602081EF
:101EB000AA202070E648007860700720A070B078F3
:101EC000012800D1207100BF00BF00BF2046FFF7EE
:101ED000ADFD082221460020FFF73DFE00BF7F1C1C
:101EE0006868B842D5D80120BDE8F08170B50546D4
:101EF000D84C0CB9002070BD0020206060602081AB
:101F00002046FFF793FD082221460020FFF723FE1D
:101F10000120F0E770B505462C682078052801DB24
:101F2000002070BD2078CC4951F8200030B12078D5
:101F30000A4652F8201020468847F2E70020F0E7D2
:101F40002DE9F04F87B081468846B9F1000F03D1E3
:101F5000002007B0BDE8F08FD9F80040A07806282F
:101F600073D1BC4E4FF0000A002006904FF0010BD9
:101F700001200590AA2030700620B0708020F070FB
:101F800001203071E078462870D008DC40280DD060
:101F9000412832D0432859D0442868D168E05028DD
:101FA00071D0802870D08128F7D1FFE0142005F08F
:101FB00045F8074600200590F7B100250CE004A97C
:101FC000284601F07AFC07F815509DF8100007EB41
:101FD00045014870681C85B2072DF0DB06A8022376
:101FE0000722394600904FF4C860FFF731FD824662
:101FF000384605F052F800BF3BE1062005F01EF818
:10200000074600200590FFB100250DE004A9E81D5A
:1020100001F053FCE81D07F815009DF8100007EBD0
:1020200045014870681C85B2032DEFDB06A802232A
:1020300003223946009040F24160FFF709FD8246D5
:10204000384605F02AF800BF13E13DE165794FF00D
:10205000000B082D00DB0CE105EB05127F4901EBBD
:10206000420002F079F800F090FF02E115E0FBE099
:1020700065794FF0000BFF2D02D102F08CF8F8E0EB
:10208000082D02DBF5E040E061E005EB0512734945
:1020900001EB420002F04AF8EBE0A079FF2826D1DC
:1020A00000200490042004F0C9FF0746002005909A
:1020B000E7B104A802F008F8002507E007F815507A
:1020C00004A8405D07EB450148706D1C022DF5DB4F
:1020D00006A8032302223946009040F24660FFF72B
:1020E000B7FC8246384604F0D8FF00BF0CE02079E8
:1020F0000511607908B9012000E000200746394643
:10210000284602F094F800BFB3E0207940B9607926
:1021100001F02EFAA07901F03FFA0020059015E0B9
:10212000207901280AD15020F0708120307101F00F
:1021300042FA707101F045FAB07107E05020F0707A
:10214000A2796179207901F0E4F8707191E01E20A4
:1021500004F074FF07460020059037B3002514E013
:1021600004A9284601F033FA05EB45017D549DF89A
:10217000100005EB4501394448709DF8110005EB4E
:10218000450139448870681C85B20A2DE8DB06A831
:1021900003230A22394600904FF4D060FFF758FC21
:1021A0008246384604F079FF00BF62E02CA103C9E3
:1021B000CDE903012A2004F041FF074600200590E5
:1021C000F7B300251DE003A8405D05EB450107F8C6
:1021D0001100002101EB450188B2FEF7CCF905EBB7
:1021E000450107EB41014880012101EB450188B21F
:1021F000FEF7C1F905EB450107EB41018880681C3A
:1022000085B2062DDFDB05EB450007EB400105EB52
:10221000450007EB400050F8062D0A608088888052
:1022200003A8405D05EB450107F8110006A8062349
:1022300007223946009040F28160FFF709FC00E078
:1022400004E08246384604F028FF00BF11E0000099
:102250006C000020780A002070000020920A002004
:1022600000010203040809004FF0000B0020059054
:1022700000BF00BF059838B13046FFF7D7FB0822F2
:1022800031464046FFF767FCBBF1000F1BD0BAF1A7
:10229000000F18D0B8F1000F03D1504604F0FDFE36
:1022A00011E0D8F8140018B9504604F0F6FE0AE020
:1022B000D8F81450032201215046069BA84710B1BC
:1022C000504604F0EAFEBFE0A0780428FBD10020CD
:1022D000069000270222611D06A800F06BF904F1A8
:1022E00008050698801E0690A9E04FF0000A00201D
:1022F000059001200490002003900290019002229A
:10230000294603A800F056F90222A91C02A800F0F1
:1023100051F90222291D01A800F04CF9BDF80C006A
:10232000B0F5C86F07D0A0F24160B0B1052826D043
:102330003F2859D13AE005F1060B002608E00BEBE7
:10234000460251781BF8160001F0E5FA701C86B2BF
:10235000BDF808008642F2DB47E005F1060B0026D7
:1023600008E00BEB460251781BF8160001F0D3FA97
:10237000701C86B2BDF808008642F2DB35E005F13C
:10238000060B00260DE00BEB460252780AB1012243
:1023900000E0002211461BF8160001F048FF701CF7
:1023A00086B2BDF808008642EDDB1EE005F1060BA3
:1023B000002614E006EB4600584440788DF80000F3
:1023C00006EB4600584480788DF8010006EB460184
:1023D0001BF80100009901F053FD701C86B2BDF896
:1023E00008008642E6DB00E000BF00BF0498D8B1D9
:1023F000BAF1000F18D0B8F1000F03D1504604F025
:102400004CFE11E0D8F8140018B9504604F045FE0F
:102410000AE0D8F81460032201215046059BB0471A
:1024200010B1504604F039FEBDF80800BDF80410A4
:102430004843801D074404F10800C51900BF0698F1
:102440008742FFF452AF00BF012082E570B5044619
:102450000D46A07A012804D129462046FFF770FDD9
:1024600070BD0020FCE70648006800F4E060054904
:102470000843001D02490860BFF34F8F00BFFEE70D
:102480000CED00E00000FA0500BFFEE702469142B5
:1024900001D3881A7047C2F1FF300844FAE70246B8
:1024A000914202DB881A80B270474FF6FF70801AA3
:1024B000084480B2F8E70A480068401C08490860F0
:1024C000704710B503464FF08040848C00BF4FF03A
:1024D0008040818C2046FFF7E2FF9842F7DB10BD79
:1024E0008400002010B50121080703F0B8FA01218B
:1024F0007D2003F0A7FA10BD10B50121284803F094
:10250000B6F810BD30B5274800684FF47A72B0FBBA
:10251000F2F1B1F1807F00D31DE021F07F40401E39
:102520004FF0E022506150170F22002807DA1307FE
:102530001D0E1D4B00F00F04241F1D5503E0130753
:102540001C0E1A4B1C5400BF00204FF0E02290617B
:102550000720106100BF30BD3EB512480068144925
:10256000B0FBF1F0401E84B20121084603F077FA77
:10257000684604F051F84FF6FF70ADF80400ADF86E
:1025800000400020ADF80600ADF8020069464FF0AB
:10259000804003F015FD0121880704F06DF83EBD71
:1025A000000230000000002018ED00E000E400E030
:1025B00040420F0010B50346002004E0141A641EC8
:1025C0000C5D1C54401C9042F8D310BD30B502463F
:1025D0000B464FF0FF3002B103B930BD002108E0D7
:1025E000C4B2555C6C40734D55F8244084EA102009
:1025F000491C9942F4D3C04300BFEEE770B50246D0
:102600000C46FF25FF2312B94FF6FF7070BD09E09D
:1026100012F8010B80EA03016748405C80EA050379
:102620006648455C201EA4F10106B4B2F0D143EA2D
:102630000520EBE72DE9F04F03460C4694460022B7
:102640001D680026DFF87891012C57DD601E53F8D5
:102650002020342090FBF4F000F1060846E04E44C0
:10266000C6F3810700211FE0481C53F82050500991
:1026700080EA85004FEAD50A8AEA021A504486EABF
:10268000050A01F0030B8BEA070B5CF82BB08BEA11
:10269000020BDA4480EA0A0053F821A0504443F8C0
:1026A000210053F82120491C601E8842DCDC1D6893
:1026B000500980EA85004FEAD50A8AEA021A824464
:1026C00086EA050001F0030B8BEA070B5CF82BB0E0
:1026D0008BEA020B58448AEA000A601E53F8200075
:1026E0008244601E43F820A053F82020B8F1000077
:1026F000A8F10108B3DC0020BDE8F08FB4F1FF3F82
:1027000056DA6442601E53F82020342090FBF4F027
:1027100000F1060808FB09F646E0C6F38107611ED2
:1027200020E0481E53F82020500980EA85004FEA37
:10273000D50A8AEA021A504486EA050A01F0030B18
:102740008BEA070B5CF82BB08BEA020BDA4480EAC9
:102750000A0053F821A0AAEB000043F8210053F827
:102760002150491E0029DCDC601E53F8202050094E
:1027700080EA85004FEAD50A8AEA021A504486EABE
:10278000050A01F0030B8BEA070B5CF82BB08BEA10
:10279000020BDA4480EA0A00D3F800A0AAEB00009A
:1027A00018601D68A6EB0906002EB6D10020A3E72D
:1027B0000120A1E768760008687A0008687B0008B5
:1027C000B979379E2DE9F04707460C4616469846DC
:1027D0004FF0000917B10CB1002E03DA4FF0FF30B3
:1027E000BDE8F087FDF7F4FC814606EB4600C1002A
:1027F000204604F065FD1421384604F061FD0025F3
:1028000010E005EB450004EBC000A0F80C8005EBE0
:10281000450004EBC000183005EB450104EBC10195
:1028200008616D1C701EA842EBDC002005EB450121
:1028300004EBC10108617E603C604846FDF7CCFCBA
:102840000020CDE770B50446002600250CB9002015
:1028500070BDFDF7BDFC0646206828B125682869D3
:1028600020600020686128613046FDF7B5FC2846ED
:10287000EEE72DE9F04106460C46174606B11CB9B5
:102880004FF0FF30BDE8F0814FF0000817B106F1BE
:102890000C0001E006F110000546FDF799FC8046AA
:1028A000286818B92C606461246109E028682061F7
:1028B000286840690461286840696061286844614B
:1028C0004046FDF789FC0020DCE72DE9F041054694
:1028D0000F464FF00008002615B90020BDE8F08132
:1028E00017B105F10C0001E005F110000446FDF7F9
:1028F0006FFC8046206808B9002618E0266820682A
:1029000000692168884202D1002020600CE0206824
:10291000406921680969486120680069216849693E
:1029200008612068006920600020706130614046C5
:10293000FDF752FC3046D1E770B504460D4604B1B0
:1029400015B94FF0FF3070BD0026FDF741FC06467B
:102950002068286125603046FDF73EFC0020F2E744
:102960002DE9F04104460D461646002704B11DB975
:102970004FF0FF30BDE8F081FDF72AFC0746182133
:10298000204604F09DFC25607008A060A0682844E3
:1029900060603846FDF720FC0020EBE72DE9F047AA
:1029A00004460F4615464FF00008C14604B11FB952
:1029B0004FF0FF30BDE8F087FDF70AFC8046616903
:1029C000A068461AB54202D94FF0FF3929E0E06805
:1029D0002844A16888420FD9D4E90201461AE26866
:1029E000216888183246394604F0C9FBAA1BB91978
:1029F000206804F0C4FB06E0E268216888182A46D3
:102A0000394604F0BCFBE0682844E060D4E90210D9
:102A1000B0FBF1F201FB1200E060606928446061E4
:102A200000BF4046FDF7D8FB4846C3E72DE9F0411B
:102A300004460D46002714B90020BDE8F081606906
:102A400008B90020F9E7FDF7C3FB0746D4E9040104
:102A50000844A168884211D92169A068461A2369EF
:102A60002268D1183246606804F089FB63699A1BBA
:102A7000D4E90013981904F082FB06E02669236864
:102A800099196269606804F07AFBD4E9040108448A
:102A90002061A1682069B0FBF1F201FB1200206106
:102AA0000DB160692860002060613846FDF794FB35
:102AB0006068C2E72DE9F0410646042702F0E7F915
:102AC00002F051FC04466EB1FE4961EA0405084675
:102AD000A043884217D002F0A4FA284602F061FB16
:102AE00000F0BCFAF7482043C543F649C94344EA1D
:102AF0000100401C38B102F094FA15B1284602F0EA
:102B000050FB00F0ABFA02F0CEF9BDE8F0812DE900
:102B1000F74F044690460426DDF804B028F0030081
:102B2000404502D0701FBDE8FE8FA40AA40204EB4A
:102B3000080902F0ACF908F2FF304FEA902A35207C
:102B400002F040FC002707E04FF4806101FB0740E2
:102B500002F0E2F906467F1C574501D2042EF3D05D
:102B6000042E00D026E02546002708E038467F1CCA
:102B70005BF82010284602F09FFA06462D1D4D45B1
:102B800001D2042EF2D0042E00D013E025460426F4
:102B9000002708E02A6838467F1C5BF82000824244
:102BA00000D002262D1D4D4501D2042EF2D102F097
:102BB0006EF900BF042E02D04FF0FF30B3E70020C3
:102BC000B1E770B5044634B10C252A46BE4920460B
:102BD00004F01AFB00BF70BD2DE9F0410746002646
:102BE000BA4D002415E055F82400401C78B9601C4B
:102BF00055F82000401C50B9A01C55F82000401C7E
:102C000028B9E01C55F82000401C00B903E0361D2F
:102C1000641CBE42E7D300BF3146AC48FFF7D6FC88
:102C2000BDE8F0812DE9FF4104460D4616461F46DA
:102C300004B125B94FF0FF3004B0BDE8F08195E84C
:102C400007008DE8070003964FB19DE80F0084E868
:102C50000F006A4604212046FFF7ECFC06E09C4882
:102C600020606A4601212046FFF7E4FC0020E3E7EC
:102C70002DE9F0438BB006460F46154626B94FF0B6
:102C8000FF300BB0BDE8F0834FF00409E84696E84A
:102C90000F0001AC0FC417B18E48009009E08C48BA
:102CA00000900020CDE9065001AA022106A8FFF7F6
:102CB000C1FC00200890002405E058F82410089872
:102CC00048400890641C082CF7D302F0E0F8342048
:102CD00002F078FB804802F01FF98146E8460024A4
:102CE00010E058F824107C4A02EB840002F0E4F96A
:102CF0008146B9F1040F04D002F0D5F84FF0FF304F
:102D0000BFE7641C0A2CECD302F0CDF80020B8E732
:102D10002DE9F04387B0054688466F4C6F48006840
:102D2000401CB0B96E48FFF74CFF4FF0FF30FFF783
:102D300053FF6A49086000230846694902686948E8
:102D4000FFF770FF01236548654902686648FFF791
:102D500069FF6648007800287CD15D492068884278
:102D600003D05C492068884267D1DFF86C91002766
:102D7000002603E059F826004740761C082EF9D3B8
:102D8000206AB84258D152492068884238D1554803
:102D900000686168884224D1D4E90601CDE90401C4
:102DA000221D6FF0010104A8FFF744FC0020DDE9BB
:102DB0000421D2F10302884103D204204B49087058
:102DC0000EE0484B0FCB8DE80F0004994A1C4FF0E2
:102DD00000016846FFF74CFF01204449087000BF1E
:102DE0002AE0404B0FCBCDE90423CDE902010422B8
:102DF000002102A8FFF73CFF04203C4908701BE0BB
:102E00001022211D384804F06FF918B90320374902
:102E1000087011E0334BD3E901211868DB68CDE974
:102E20000413CDE902020422002102A8FFF720FFCB
:102E300004202E49087000BF0CE02A4B0FCB02AED5
:102E40000FC60022114602A8FFF712FF01202749F2
:102E5000087000BF25480078012831D12448016856
:102E600024480068FFF712FB44F62061884227D906
:102E7000D4E90601CDE90401201D0FC88DE80F003B
:102E80001B4800681B490860221D6FF0010104A85F
:102E9000FFF7D0FB0498421C4FF000016846FFF793
:102EA000E7FE0020DDE90421D2F10302884102D2CD
:102EB00004200E49087015B141460220A84700BF02
:102EC0000A4819E0F8FFFF01E8F7FF1F003000088B
:102ED00067452301EFCDAB890090010894000020E5
:102EE000E80B0020040C0020F40B00208C000020D4
:102EF00084000020900000200078042821D11022B6
:102F0000211D5D4804F0F0F828B903205B490870E2
:102F100007B0BDE8F08315B141460420A8475848E2
:102F2000016858480068FFF7B1FA44F6206188420A
:102F300007D9534800685349086015B14146052038
:102F4000A84700BFE4E770B50446042501F09FFFE1
:102F500000BF342002F036FA02F063F80546042D73
:102F600000D005E02146484802F0F7F8054600BFCA
:102F700000BF01F098FF042D01D1002070BD4FF07B
:102F8000FF30FBE74048007870472DE9F0414FF0F3
:102F9000040800253D4E3E4F4AF2A55031460880B8
:102FA000002404E036F81400284485B2641CAB2CDD
:102FB000F8D33648A0F8565101F069FF342002F0EA
:102FC00001FA334801F0A8FF804600240FE036F8EC
:102FD0001410384602F0A3F88046B8F1040F04D06C
:102FE00001F061FF0020BDE8F081BF1C641CAC2C27
:102FF000EDD301F058FF0120F5E770B50025234E11
:103000004FF4AC722249304604F0B9F830460088DB
:103010004AF2A551884200D00FE0002404E036F8BF
:103020001400284485B2641CAB2CF8D31748B0F8C0
:103030005601A84200D170BD00BF002408E004EB97
:1030400004121249891C01EB420001F085F8641C4E
:103050000A2CF4D3FFF799FF00BFECE70D48006896
:1030600000F4E0600C490843001D0A490860BFF302
:103070004F8F00BFFEE70000F40B00208C00002003
:10308000840000209000002004F8FF1F900A002018
:10309000009401080CED00E00000FA0508B50720D7
:1030A000009002E00098401E009000980028F9D19E
:1030B00008BD10B58020C949086040200860FFF7AE
:1030C000EDFFC6480838006808B9012000E000207C
:1030D00000F0800008B1002010BD8020BF49091D0C
:1030E0000860FFF7DBFFBD480838006800F080008B
:1030F00008B10020F0E78020B849091D0860FFF7FB
:10310000CDFF0120E8E710B54020B449091D086053
:10311000FFF7C4FF8020B149091D0860FFF7BEFF1B
:103120004020AE490860FFF7B9FF8020AB49086036
:10313000FFF7B4FF10BD10B54020A849091D086075
:10314000FFF7ACFF8020A549091D0860FFF7A6FF27
:103150004020A2490860FFF7A1FF40209F49091DB8
:103160000860FFF79BFF10BD10B540209B49091D6B
:103170000860FFF793FF802098490860FFF78EFFF3
:10318000402096490860FFF789FF40209349091DB8
:103190000860FFF783FF10BD10B540208F49091D5F
:1031A0000860FFF77BFF80208C490860FFF776FFFF
:1031B00040208A490860FFF771FF88480838006896
:1031C00000F0800028B140208449091D08600020DB
:1031D00010BD40208149091D08600120F8E770B545
:1031E0000446082519E040207C49091D0860FFF7C6
:1031F00055FF04F0800018B180207849086003E092
:1032000080207649091D08606006040EFFF746FF1E
:10321000402072490860FFF741FF281EA5F1010117
:10322000CDB2E0D140206D49091D086070BD70B578
:103230000825002480206949086014E06006040E17
:1032400040206649091D0860FFF728FF40206349B8
:103250000860FFF723FF61480838006800F080002D
:1032600008B144F00104281EA5F10101CDB2E5D159
:1032700040205A49091D0860204670BD08B502204B
:103280008DF8020014208DF803004020ADF80000F6
:1032900069465248103802F019F98020ADF8000054
:1032A00069464E48103802F011F908BD70472DE903
:1032B000F04105460E4617469846FFF7FAFE10B94C
:1032C0000020BDE8F081002141EA4501C8B2FFF7C6
:1032D00086FFFFF761FF18B9FFF715FF0020F0E741
:1032E0003046FFF77CFFFFF757FF00240BE018F88C
:1032F0000400FFF774FFFFF74FFF18B9FFF703FF54
:103300000020DEE7641CBC42F1DBFFF7FCFE01207D
:10331000D7E770B504460D461646FFF7CAFE10B94A
:103320004FF0FF3070BD002141EA4401C8B2FFF701
:1033300056FFFFF731FF20B9FFF7E5FE6FF0010000
:10334000F0E72846FFF74BFFFFF726FF3046FFF771
:1033500046FFFFF721FFFFF7D6FE0020E2E72DE949
:10336000F04105460F4614461E46FFF7A2FE10B96F
:103370000020BDE8F081002141EA4501C8B2FFF715
:103380002EFFFFF709FF18B9FFF7BDFE0020F0E799
:103390003846FFF724FFFFF7FFFEFFF78AFE012103
:1033A00001EB4501C8B2FFF71AFFFFF7F5FE0CE08D
:1033B000FFF73DFF3070012C02D1FFF7D5FE01E091
:1033C000FFF7B9FE761C601EC4B2002CF0D1FFF7E7
:1033D0009AFE0120CDE7002070470000100C01404C
:1033E0002DE9FC4104460D461A26C5F30805EFB247
:1033F000600040EA2520C4B2002000900190AA207D
:103400008DF8000006208DF8020050208DF8030092
:103410008DF804608DF805408DF806706846FEF75B
:1034200005FB08226946F848FEF795FB3A46214617
:103430003046FFF76EFFBDE8FC8110B586B0012174
:10344000880302F00CFB01A802F015FC4FF4827017
:10345000ADF806004FF40060ADF808001820ADF894
:1034600010004FF40070ADF80E0001A9E74802F01B
:1034700073FB0121E54802F014FC4FF42040ADF845
:10348000000003208DF8020018208DF80300694623
:10349000DF4802F01BF84FF48040ADF80000042034
:1034A0008DF803006946DA4802F010F84020ADF8C4
:1034B000000010208DF803006946D64802F006F897
:1034C00001224021D34802F0B2F88020ADF800007C
:1034D00010208DF803006946CE4801F0F7FF4FF445
:1034E0008050ADF8000010208DF803006946C848F0
:1034F00001F0ECFF01221103C54802F098F8002208
:103500008021C44802F093F8C348046800BFC24851
:1035100001682046FEF7BAFF6428F8D30122802113
:10352000BC4802F084F806B010BD08B503208DF841
:10353000020010208DF80300ADF800006946B44881
:1035400001F0C4FF2020ADF800006946B04801F04A
:10355000BDFF00221021AE4802F069F800222021B0
:10356000AB4802F064F8FFF789FEFFF766FF08BD7D
:1035700070B505460026A948448D05F01F0504F0E6
:10358000C0042C4321461520FFF72AFF06460EB93A
:10359000A2484485304670BD70B50446002504F04D
:1035A000070421461620FFF71BFF05460DB99B486F
:1035B0008485284670BD994890F82A0000F01F00C5
:1035C0007047964890F82C0000F0070070470246BC
:1035D0000A2A00D211B94FF0FF307047904800EB33
:1035E0004200008808800020F7E72DE9FC418D4863
:1035F000007800287ED00025B0E08B4E00224FF4EA
:103600008051834802F013F800BF02217F4802F086
:10361000CCFB0028F9D0002418E0C4F1060036F8ED
:1036200010107A4802F06EFB00BF0221774802F0CA
:10363000BCFB0028F9D000BF0121744802F0B5FBA3
:103640000028F9D0714802F05FFB641C072CE4D31A
:10365000012211036E4801F0EAFF002D7DD1002701
:10366000002474E00020019080466F4800EB440085
:1036700040788DF805006C4810F814008DF80400AF
:10368000694800EB4400407800F0200098B3674898
:1036900000EB4400407800F0200060B3624800EB8B
:1036A0004400407800F00300032837D05E4800EB68
:1036B0004400407800F003005C4901EB4401497884
:1036C00001F00301884229D05948035D4FF00108F9
:1036D0005848C35C69461846FFF779FF524800EB2B
:1036E0004400407800F0010068B112204E4901EB1F
:1036F000440101E03EE011E048709DF801004A49B4
:1037000001F8140009E01120474901EB4401487019
:103710009DF80000444901F8140000BF9DF8050021
:10372000424901EB440148709DF804003F4901F80B
:103730001400B8F1000F01D0012707E000203A493A
:1037400001EB44014870384901F81400641C072C4F
:1037500088D30FB905E000E000BF6D1C022DFFF417
:103760004CAF00BF0E21304803F0AAFD00202D49C8
:10377000087000BFBDE8FC81F0B50246072A02DBF5
:103780004FF0FF30F0BD032902DD4FF0FF30F9E7C5
:103790002848845C2848055D8D4201D10120F1E76D
:1037A000012D01D1022903D0012904D1022D02D11A
:1037B0004FF0FF30E6E72148835C59B913201A4ED9
:1037C00006EB43067070164810F81400164E06F803
:1037D000130009E0084600F00F0646F02006124FDD
:1037E00007EB43077E7000BF1348015501200D4EC3
:1037F00030700020C6E7F0B504460A46072C1FDBF0
:103800004FF0FF30F0BD0000407600080038004067
:10381000000C0140001001408400002098000020AE
:10382000C8000020F0000020140C00202C0C002008
:103830006F7C0008767C0008220C0020687C000861
:10384000FE48015DFE4810F81160964201D101204A
:10385000F0BDFC48455C032D08D1F94800EB410060
:103860004270F74800F811200120F1E7F648035DA7
:10387000F64800F81320012D05D11220F34F07EB75
:10388000430778700CE0022D05D11120EF4F07EBB4
:103890004307787004E01320EC4F07EB4307787080
:1038A000E74800EB41004270E54800F81120012094
:1038B000E74F38700020CBE7704702460A2A00D253
:1038C00011B94FF0FF307047DE48805C087000206F
:1038D000F9E770B504460A252A46DA49204603F07E
:1038E0004EFC70BD70B504460D4616460A2C01D23A
:1038F000072D02DB4FF0FF3070BDD64850F8240092
:1039000030B1D44850F82420314628469047F3E798
:103910004FF0FF30F0E770B504460D46002229460F
:103920002046FFF7DFFF70BD70B50546002404E0B8
:10393000295D2046FFF7EFFF641C0A2CF8DB70BD01
:1039400070B505460E46C448448D032D02DD4FF088
:10395000FF3070BD2EB9BB484079A84201D100208C
:10396000F7E704F03F0435B1012D05D0022D06D054
:10397000032D0AD106E00BE044F0800408E044F097
:10398000400405E044F0C00402E04FF0FF30E0E7FF
:1039900000BF21461520FFF723FD10B14FF0FF3087
:1039A000D7E7AD484485A74845710020D1E770B5F9
:1039B00005460E46A848C489072D02DB4FF0FF30AC
:1039C00070BD2EB99F488079A84201D10020F7E749
:1039D00004F00F04072D18D2DFE805F004070A0DE4
:1039E0000E11140044F0900412E044F080040FE043
:1039F00044F010040CE00BE044F0D00408E044F084
:103A0000B00405E044F0F00402E04FF0FF30D7E7E7
:103A100000BF21460720FFF7E3FC10B14FF0FF3055
:103A2000CEE78D48C481874885710020C8E770B50E
:103A300004460E468848458B042C02DB4FF0FF30CD
:103A400070BD2EB97F48C079A04201D10020F7E7B0
:103A500005F0F70514B1032C04D100E005E045F0B2
:103A6000080502E04FF0FF30EAE700BF29460D20CD
:103A7000FFF7B6FC10B14FF0FF30E1E77648458321
:103A80007048C4710020DBE7F0B504460D461746C8
:103A9000072C02DB4FF0FF30F0BD6848065D1FB910
:103AA0006848805DA84203D029462046FFF764FE9F
:103AB000644885550020EFE730B504460D462A4698
:103AC00021460020FFF7E0FF30BD30B504460D462B
:103AD0002A4621460120FFF7D7FF30BD30B5044606
:103AE0000D462A4621460220FFF7CEFF30BD30B5F5
:103AF00004460D462A4621460320FFF7C5FF30BD88
:103B000030B504460D462A4621460420FFF7BCFF87
:103B100030BD30B504460D462A4621460520FFF744
:103B2000B3FF30BD30B504460D462A462146062077
:103B3000FFF7AAFF30BD10B5FFF7BEFE002405E079
:103B4000012200212046FFF7CDFE641C0A2CF7D38A
:103B500010BD704773B50D462DB99DF8000038496A
:103B6000897A884215D03C48848B9DF8006004F423
:103B70007F44344321460E20FFF732FC10B14FF052
:103B8000FF307CBD344884839DF800002C49887246
:103B900000BF2DB99DF801102948C07A814215D087
:103BA0002D48C48B9DF8016004F47F4434432146C2
:103BB0000F20FFF715FC10B14FF0FF30E1E726486A
:103BC000C4839DF801101E48C17200BF0020D8E7D1
:103BD00073B50D469DF800009DF80110884219D17B
:103BE0001D48448904F47F4444F480749DF8000027
:103BF000044321460520FFF7F3FB10B14FF0FF30DF
:103C00007CBD154844819DF800100D480173417337
:103C10000020F5E72DB99DF800000949097B88428D
:103C200029D00D48C48804F47F4444F480749DF87E
:103C3000000004432146032010E00000767C0008C9
:103C4000C8000020220C0020687C0008140C002012
:103C5000F0000020807C000898000020FFF7C0FBE7
:103C600010B14FF0FF30CBE7FE48C4809DF8000054
:103C7000FD49087300BF2DB99DF80110FA48407B3B
:103C8000814217D0F748048904F47F4444F48074D7
:103C90009DF80100044321460420FFF7A1FB10B169
:103CA0004FF0FF30ACE7EF4804819DF80110EE487B
:103CB000417300BF0020A3E773B50D469DF80000D7
:103CC0009DF8011088421BD1E64884884FF6807029
:103CD000044044F480749DF8000044EA60042146E6
:103CE0000220FFF77DFB10B14FF0FF307CBDDD48B7
:103CF00084809DF80010DC488173C1730020F5E7D3
:103D00002DB99DF80000D849897B884219D0D54843
:103D100004884FF68070044044F480749DF80000DD
:103D200044EA600421460020FFF75AFB10B14FF02F
:103D3000FF30DBE7CB4804809DF80000CA49887358
:103D400000BF2DB99DF80110C748C07B814219D032
:103D5000C44844884FF68070044044F480749DF851
:103D6000010044EA600421460120FFF739FB10B14D
:103D70004FF0FF30BAE7BB4844809DF80110BA48C5
:103D8000C17300BF0020B1E7F7B5054616469DF8A0
:103D900004009DF8051008444708072D02DB4FF08A
:103DA000FF30FEBDB148445D3EB99DF80500AE4907
:103DB00001EB44014978884203D039462846FFF791
:103DC0001AFDA94800EB44004770A74800F814709A
:103DD0000020E6E713B50C46224600200099FFF7C5
:103DE000D3FF1CBD13B50C46224601200099FFF7F6
:103DF000CBFF1CBD13B50C46224602200099FFF7ED
:103E0000C3FF1CBD13B50C46224603200099FFF7E3
:103E1000BBFF1CBD13B50C46224604200099FFF7DA
:103E2000B3FF1CBD13B50C46224605200099FFF7D1
:103E3000ABFF1CBD13B50C46224606200099FFF7C8
:103E4000A3FF1CBD37B5044615460A2C02D34FF01C
:103E5000FF303EBD864850F8240030B1844850F809
:103E60002420294601989047F3E74FF0FF30F0E710
:103E700013B50446002220460199FFF7E3FF1CBD5D
:103E800003B502460A2A02D34FF0FF300CBD794831
:103E900000EB4200BDF8041001800020F6E738B5C1
:103EA0007548016875480068FEF7F0FA0A2853D98A
:103EB000714800687149086000244AE000200090C1
:103EC00069462046FFF783FB6A4800EB4401022263
:103ED000684603F009F9D8B39DF80000654911F868
:103EE0001410884206DD9DF80000401EC0B28DF817
:103EF00000000CE09DF800005E4911F814108842A3
:103F000005DA9DF80000401CC0B28DF800009DF855
:103F10000100584901EB44014978884206DD9DF8CB
:103F20000100401EC0B28DF801000DE09DF80100B7
:103F3000504901EB44014978884205DA9DF80100B7
:103F4000401CC0B28DF8010020460099FFF790FF99
:103F5000641C0A2CB2D300BF38BD70B504461425CA
:103F60002A464149204603F00AF970BD38B5054696
:103F7000002410E005EB4400008801460090204634
:103F8000FFF776FF05EB44000088014600902046CD
:103F9000FFF776FF641C0A2CECDB38BD38B5FFF761
:103FA000D8FD00240AE0304800EB440000880122DC
:103FB000014600902046FFF745FF641C0A2CF2D30F
:103FC00038BD38B503208DF8020010208DF80300AD
:103FD00000242AE004EB4402294B03EB820291887F
:103FE00004EB440253F82200002201F020FB04EB12
:103FF0004400234901EB80008088ADF8000004EB09
:1040000044011F4A52F82100694601F05FFA04EBAF
:1040100044021B4B03EB8202918804EB440253F8E9
:104020002200002201F003FB641C022CD2DB38BD0D
:10403000704770B504460D46022C02D34FF0FF3096
:1040400070BD04EB44000E4901EB8000457204EBA7
:10405000440001EB8000007AA84223D004EB440224
:104060000B460FE098000020C8000020767C000876
:10407000A87C0008DC000020840000201001002043
:10408000F400002003EB8202918804EB440253F811
:1040900022002A4601F0CBFA04EB4400BD4901EBB3
:1040A000800005720020CBE70246022A00D211B937
:1040B0004FF0FF30704702EB4200B64B03EB80003D
:1040C000407A08700020F5E730B50546002404E08A
:1040D00029192046FFF7E8FF641C022CF8DB30BDED
:1040E00070B50546002404E0295D2046FFF7A1FFD6
:1040F000641C022CF8DB70BD0020A749C8700121A8
:10410000A54801710221C17303210174704710B5E4
:10411000FFF757FFFFF7F0FF002404E000212046DF
:10412000FFF787FF641C022CF8D310BD70B505465D
:104130002C4604B970BD04F11400FFF7F5FB2046CE
:10414000FFF714FF94F82000FFF712FA94F821000B
:10415000FFF722FA00BFEDE770B505462C4604B91B
:1041600070BD04F11400FFF7B4FB2046FFF7F5FE25
:1041700004F11E00FFF7A8FFFFF71DFA84F82000E6
:10418000FFF71FFA84F8210000BFE9E710B5834864
:10419000FFF7CCFF10BD10B580482230FFF7C6FFF7
:1041A00010BD10B57E4801687E480068FEF76EF9C4
:1041B000642800D210BD7A4800687A49086022213C
:1041C000794803F05BF87848FFF7C6FF222276496A
:1041D000764802F089FF58B122227349734802F0F1
:1041E000CEFF0120724908706D480068714908606F
:1041F0006F480078C8B16A4801686E480068FEF7E9
:1042000045F943F6982188420FD92222634967482D
:1042100002F06AFF30B122226449604802F0AFFF29
:10422000FEF7B3FE00206249087000BFC2E710B578
:10423000022811D2002200EB4003574C04EB830309
:104240009A7000EB4002234603EB82025170012278
:1042500000EB400304F8232010BD2DE9F0410027B6
:10426000002486E004EB44004B4911F820000028AC
:104270007ED0012704EB440001EB8000807820B160
:10428000012836D0022871D158E00025FFF793F9B4
:1042900004EB4401404A02EB81014871064646485E
:1042A0000078FF2804D14548067000204249087074
:1042B00000250AE004EB4400374901EB8000C01CF4
:1042C000415D0120884086436D1C022DF2DB3046A3
:1042D000FFF74EF93248006804EB44012E4A02EB26
:1042E00081018860012004EB440102EB81018870A8
:1042F0003DE004EB4401284A02EB8101886828492B
:104300000968FEF7C3F8282800D230E004EB440027
:10431000214A02EB800041782046FFF78AFE2048C0
:10432000006804EB44011C4A02EB81018860022012
:1043300004EB440102EB8101887018E004EB4401B6
:10434000154A02EB8101886815490968FEF79EF855
:1043500041F28831884202D209E009E006E00020FB
:1043600004EB44010C4A02F8210000E000BF00BF4A
:10437000641C022CFFF676AF57B90F480078FF286F
:1043800006D00E480078FFF7F3F8FF200A490870BE
:10439000BDE8F081F40000203C0C0020A20B0020BE
:1043A000840000201C010020760C0020540C00200A
:1043B00014010020180100200C0100200D01002034
:1043C00000B587B00121480401F049FB03A802F0C1
:1043D000DDFC4FF4E130039003A9B24802F06DFC1C
:1043E0000121B04802F0F5FC0420ADF808000320DC
:1043F0008DF80A0018208DF80B0002A9AA4801F0D8
:1044000065F80820ADF8080004208DF80B0002A91B
:10441000A54801F05BF826208DF8040004208DF8F3
:10442000050000208DF8060001208DF8070001A886
:1044300000F053F9012240F225519A4802F0D5FCD0
:104440000121084601F0F1FA43F290009749086013
:104450009448001D95498039C1F88800002093498F
:10446000091D086091498039C1F88C000122802122
:104470008C4802F0DFFC07B000BD38B589480488DD
:1044800004F0200050B18748001D0088C0B20090A1
:10449000012269468648FEF781FA00BF38BD10B593
:1044A0000123102283498448FEF78CF98022834936
:1044B0007F48FEF755FA4FF4806281498148FCF746
:1044C00069FEFFF77DFF10BDF0B585B0054600BF62
:1044D00000270020049004A97548FEF7A7FA0746B4
:1044E00007B92CE028E00026002003900290002469
:1044F00002A903ABCDE9001039467248049AFCF7D3
:104500005BFE064606B918E06B48FEF79BF90446C9
:104510001CB9304602F0C1FD0FE0266003986060D0
:10452000012020720298A072012221466248FEF703
:10453000A0F90020049000BFD5E700BF00BF00BF76
:1045400000BF002460480078F8B1584880380068FF
:1045500000F0007010B905B151E051E051480088F9
:1045600000F0400010B905B149E049E04FF080701B
:104570004E49803948605548007A18B15349086857
:1045800002F08BFD00205049087000214A48FEF7D8
:104590009CF904468CB36068002801DD206848B9A6
:1045A000207A20B1206810B1206802F076FD05B1B4
:1045B00025E025E03D48006820F001003B49086007
:1045C000091D60680860394980392068C1F88C008D
:1045D0000846D0F8800040F001003449086001200E
:1045E0003949087018222146384802F00DFE21464C
:1045F0003148FEF7A1F905B101E0FFE700E0A0E7CF
:1046000000BF00BF002401212B48FEF75EF90446DD
:1046100014B1204605B0F0BD00BF0020FAE710B588
:10462000044644B1207A10B1206802F036FD2146DC
:104630002148FEF781F910BD2DE9F04105460E46EF
:1046400090461F46002415B9601EBDE8F0811A4847
:10465000FEF7F8F8044614B94FF0FF30F5E725608F
:1046600067602672002221461348FEF702F90020F7
:10467000EBE710B504461CB121460F48FEF75CF984
:1046800010BD4FF48060704710B5044604B910BDEA
:104690000020A0810C2060812146024802F00DFB21
:1046A00000BFF4E7004400400008014080000240E1
:1046B000AC0E0020980C0020180E00202C0E0020BC
:1046C000C40E0020C412002020010020DC120020B3
:1046D00031490143314A1160704770B50021002310
:1046E0000F22C47804B32D4C246804F4E064C4F5AC
:1046F000E064210AC1F10403CA40447804FA03F1DA
:104700008478144021430901254C0678A15504788A
:1047100004F01F050124AC4005786D11AD0005F1D2
:10472000E025C5F8004109E0047804F01F050124E4
:10473000AC401C4D0678761145F8264070BD1A4AEB
:104740000A400243154B1B1F1A60704739B1134AC8
:10475000121D12680243114B1B1D1A6006E00F4A1E
:10476000121D126882430D4B1B1D1A6070470428EE
:1047700008D14FF0E021096941F004014FF0E02237
:10478000116107E04FF0E021096921F004014FF0C9
:10479000E0221161704700000000FA050CED00E016
:1047A00000E400E080E100E080FFFF1F10B5044658
:1047B000FA48844208D10121401501F05DF9002139
:1047C000601501F059F917E0F548844208D101213C
:1047D000001501F051F90021201501F04DF90BE011
:1047E000F048844208D10121C80301F045F90021B5
:1047F0004FF4004001F040F910BD30B502460020F2
:1048000000235068E84C20400D790C6844EA0524E8
:10481000204350609068E54C2040D1E902542C437D
:104820004D7944EA450420439060D06A20F470003A
:104830000C7C641EE4B2234340EA0350D06230BDD6
:1048400000210160017141718160C1600121017429
:10485000704721B1826842F00102826003E0826801
:1048600022F001028260704721B1826842F48072B6
:10487000826003E0826822F480728260704710B523
:104880000023CBB21AB144681C43446002E0446880
:104890009C43446010BD816841F00801816070470D
:1048A000014600208A6802F008020AB1012000E0F7
:1048B00000207047816841F0040181607047014623
:1048C00000208A6802F004020AB1012000E0002002
:1048D000704721B1826842F4A002826003E08268DE
:1048E00022F4A00282607047014600208A6802F428
:1048F00080020AB1012000E00020704710B50A468E
:1049000000210023416821F46041531E41EA4331F4
:10491000416010BD21B1426842F40062426003E090
:10492000426822F4006242607047F0B504460D46CA
:1049300000200021092D11DDE068A5F10A0606EB33
:104940004607072606FA07F18843A5F10A0606EB93
:10495000460603FA06F10843E0600CE0206905EB27
:104960004507072606FA07F1884305EB450603FAD3
:1049700006F108432061072A0FDA606B561E06EB2A
:1049800086071F2606FA07F18843561E06EB8606A1
:1049900005FA06F10843606322E00D2A0FDA206B66
:1049A000D61F06EB86071F2606FA07F18843D61F97
:1049B00006EB860605FA06F10843206310E0E06A7C
:1049C000A2F10D0606EB86071F2606FA07F18843BB
:1049D000A2F10D0606EB860605FA06F10843E06231
:1049E000F0BD21B1826842F48012826003E08268E7
:1049F00022F48012826070470146C86C80B2704712
:104A000066484C300068704721B1426842F48062C9
:104A1000426003E0426822F480624260704721B144
:104A2000426842F48052426003E0426822F48052BD
:104A3000426070470A460021816821F4E041114339
:104A40008160704721B1826842F40042826003E0D5
:104A5000826822F400428260704721B1826842F489
:104A60000212826003E0826822F4021282607047C0
:104A7000014600208A6802F400120AB1012000E019
:104A800000207047F0B5044615460020002200269D
:104A9000092911DDE068A1F10A0707EB470C072798
:104AA00007FA0CF29043A1F10A0707EB470703FA54
:104AB00007F21043E0600CE0206901EB410C07278E
:104AC00007FA0CF2904301EB410703FA07F2104397
:104AD0002061A06BC0F30156EF1C06F1010CA7EB9F
:104AE0000C0707EB870C1F2707FA0CF29043EF1C0B
:104AF00006F1010CA7EB0C0707EB870701FA07F299
:104B00001043A063F0BD10B50A4600210023816B5D
:104B100021F44011531E41EA0351816310BD08B5D1
:104B2000002300930090009B0B440093009B1A60AD
:104B300008BD08B5024600200090009201F128004F
:104B4000009B184400900098006880B208BD0A4697
:104B500000214168164B1940114341607047416282
:104B6000826270470A460021416821F01F0111430B
:104B70004160704740B109490831096841F40001BA
:104B8000064A0832116007E004490831096821F437
:104B90000001024A08321160704700000024014001
:104BA00000280140003C0140FFFEF0FFFDF7F1FF4F
:104BB000FFFD3FFF0246002013680B400BB10120B0
:104BC00000E000207047CA430260704770B502469B
:104BD0000020002300240B125568CEB205EA06041B
:104BE00015681D4015B10CB1012000E0002070BD1A
:104BF00000220A12D34303607047000001684FF699
:104C0000FE72114001600021016041608160C1605D
:104C10008D49884208D18C490839496841F00F0113
:104C2000894A083A51608AE087491431884208D19C
:104C300085490839496841F0F001834A083A5160D2
:104C40007DE081492831884208D17F490839496887
:104C500041F470617C4A083A516070E07A493C3115
:104C6000884208D178490839496841F47041764A48
:104C7000083A516063E074495031884208D1724962
:104C80000839496841F470216F4A083A516056E08A
:104C90006D496431884208D16B490839496841F44B
:104CA0007001694A083A516049E0674978318842A1
:104CB00008D165490839496841F07061624A083A8B
:104CC00051603CE06149884206D1011F096841F00A
:104CD0000F01021F116032E05C491431884208D193
:104CE0005A49091F096841F0F001584A121F116022
:104CF00025E056492831884208D15449091F0968DE
:104D000041F47061514A121F116018E04F493C3163
:104D1000884208D14D49091F096841F470414B4A46
:104D2000121F11600BE049495031884207D14749B1
:104D3000091F096841F47021444A121F116070472D
:104D400010B50022026847F6F0739A430C6A8B682C
:104D500023430C6923434C6923438C692343CC6967
:104D600023434C6A23438C6A23431A430260CB6873
:104D700043600B6883604B68C36010BD0021016015
:104D800041608160C160016141618161C161016215
:104D900041628162704721B1026842F00102026003
:104DA00004E002684FF6FE731A40026070471AB1C1
:104DB00003680B43036002E003688B4303607047A2
:104DC000416070470146486880B270470146002044
:104DD000002201F080531BB11C4B083B1A6802E013
:104DE000194B083B1A6802EA01030BB1012000E0ED
:104DF0000020704700F0805119B11449091F086064
:104E000002E011490839486070470146002000223D
:104E100001F080531BB10D4B083B1A6802E00A4BAE
:104E2000083B1A6802EA01030BB1012000E00020F0
:104E3000704700F0805119B10449091F086002E071
:104E400001490839486070470800024008040240E0
:104E500001460020FE4A106800F038000843106048
:104E60007047FB49096821F00801F94A11601146B1
:104E70000968014311607047F549096821F0100184
:104E8000F34A116011460968014311607047F14807
:104E9000EF494860F04848607047EE48EC49486088
:104EA000ED4848607047EA48006940F08000E849F2
:104EB00008617047E648006940F08000E4490861F5
:104EC00070470420E249C96801F0010109B10120DD
:104ED0000EE0DF49C96801F0040109B1022007E0D2
:104EE000DB49C96801F0100109B1032000E004208A
:104EF000704700B502460423FFF7E3FF034603E0D3
:104F0000FFF7DFFF0346521E012B01D1002AF7D124
:104F100002B90523184600BD30B5044604254FF4F8
:104F20003020FFF7E6FF0546042D17D1C848006979
:104F300040F00200C649086108464461006940F03B
:104F4000400008614FF43020FFF7D3FF0546C0480A
:104F5000006941F6FD710840BD490861284630BD31
:104F600010B504244FF43020FFF7C3FF0446042C8F
:104F700016D1B748006940F00400B54908610846F9
:104F8000006940F0400008614FF43020FFF7B1FFA6
:104F90000446AF48006941F6FB710840AC4908611E
:104FA000204610BD00B502460423FFF78AFF0346E2
:104FB00003E0FFF786FF0346521E012B01D1002AB2
:104FC000F7D102B90523184600BD10B504244FF4EB
:104FD0003020FFF7E7FF0446042C16D19C480069F7
:104FE00040F004009A4908610846006940F040001A
:104FF00008614FF43020FFF7D5FF0446944800695C
:1050000041F6FB71084092490861204610BD00201E
:105010008F49C96901F0020109B1012000E00020B7
:10502000704730B5A5250424FFF7F1FF00B1002536
:105030004FF43020FFF75DFF0446042C3AD1854839
:1050400083498860844888600846006940F02000F1
:1050500008610846006940F0400008614FF43020C4
:10506000FFF747FF0446042C1BD17948006941F63D
:10507000DF710840764908610846006940F0100079
:10508000086176480580E002FFF733FF0446052CEF
:1050900010D06F48006941F6EF7108406C49086113
:1050A00008E0052C06D06A48006941F6EF71084017
:1050B00067490861204630BD78B506460C46042590
:1050C00000200090E802FFF714FF0546042D24D1CC
:1050D0005F48006940F001005D4908613480E802E2
:1050E000FFF707FF0546042D10D1B01C0090200CDF
:1050F00000990880E802FFF7FCFE05465448006965
:1051000041F6FE7108405249086106E050480069C6
:1051100041F6FE7108404E490861284678BD70B5D9
:1051200004460D460426F002FFF7E3FE0646042E71
:1051300011D14748006940F00100454908612580C8
:10514000F002FFF7D6FE06464148006941F6FE71BF
:1051500008403F490861304670BD70B505460E46AF
:105160000424E002FFF7C5FE0446042C17D1394899
:1051700037498860384888600846006940F0100068
:1051800008612E80E002FFF7B4FE0446052C06D02D
:105190002F48006941F6EF7108402D49086120460B
:1051A00070BD2DE9F04304464FF6FF763746B04612
:1051B000B1460425E443E6B2C4F30727C4F3074825
:1051C0004FEA1469E802FFF794FE0546042D49D121
:1051D00020481F498860204888600846006940F0E0
:1051E00010000861FF2E06D01C4808300680E80237
:1051F000FFF77FFE0546042D08D1FF2F06D0174884
:105200000A300780E802FFF774FE0546042D0AD134
:10521000B8F1FF0F07D011480C30A0F80080E80269
:10522000FFF767FE0546042D0AD1B9F1FF0F07D03D
:105230000A480E30A0F80090E802FFF75AFE054633
:10524000052D0FD00248006941F6EF71084007E0D4
:105250000020024023016745AB89EFCD00F8FF1F16
:10526000664908612846BDE8F08330B50546042448
:105270004FF43020FFF73DFE0446042C41D1604836
:105280005E4988605F4888600846006940F02000F9
:1052900008610846006940F0400008614FF4302082
:1052A000FFF727FE0446042C22D15448006941F63A
:1052B000DF710840514908610846006940F010005C
:1052C00008611DB100205049088002E0A5204E4928
:1052D00008804FF43020FFF70CFE0446052C10D058
:1052E0004648006941F6EF7108404449086108E00A
:1052F000052C06D04148006941F6DF7108403F495E
:105300000861204630BDF0B505460E461746042418
:105310003B483A4988603B488860E002FFF7E9FD76
:105320000446042C19D13548006940F01000334977
:10533000086147F0F800304328433349891C08804E
:10534000E002FFF7D6FD0446052C06D02B48006985
:1053500041F6EF710840294908612046F0BD274811
:10536000C069800870472548006A704700202349BB
:10537000096801F0200109B1012000E00020704718
:1053800029B11E4A126902431C4B1A6104E01B4AF0
:1053900012698243194B1A617047014600200129A6
:1053A00008D1164AD26902F001020AB1012008E0D0
:1053B000002006E0114AD2680A400AB1012000E04C
:1053C000002070470D49C860704704200B49C96828
:1053D00001F0010109B101200EE00849C96801F09E
:1053E000040109B1022007E00449C96801F0100175
:1053F00009B1032000E004207047000000200240B3
:1054000023016745AB89EFCD00F8FF1F10B50446B7
:10541000CC48844208D10121042000F02DFB00215A
:10542000042000F029FB46E0C748844208D101214E
:10543000082000F021FB0021082000F01DFB3AE0CD
:10544000C248844208D10121102000F015FB002140
:10545000102000F011FB2EE0BD48844208D101214C
:10546000202000F009FB0021202000F005FB22E0B5
:10547000B848844208D10121402000F0FDFA002103
:10548000402000F0F9FA16E0B348844208D1012127
:10549000802000F0F1FA0021802000F0EDFA0AE00F
:1054A000AE48844207D10121801500F0E5FA0021C1
:1054B000A01500F0E1FA10BD10B50121084600F07A
:1054C000DBFA0021012000F0D7FA10BD2DE9F041F0
:1054D000024600250026002000230024002791F822
:1054E00003C00CF00F0591F803C00CF0100CBCF1D8
:1054F000000F03D091F802C04CEA050591F800C0F6
:10550000BCF1000F31D0146800202BE04FF0010CEB
:105510000CFA00F3B1F800C00CEA03069E4220D159
:1055200083004FF00F0C0CFA03F7BC4305FA03FCA1
:105530004CEA040491F803C0BCF1280F06D14FF0E7
:10554000010C0CFA00FCC2F814C00AE091F803C088
:10555000BCF1480F05D14FF0010C0CFA00FCC2F869
:1055600010C0401C0828D1D31460B1F800C0BCF1B1
:10557000FF0F34DD546800202EE000F1080C4FF0DE
:10558000010808FA0CF3B1F800C00CEA03069E42C9
:1055900021D183004FF00F0C0CFA03F7BC4305FA3E
:1055A00003FC4CEA040491F803C0BCF1280F05D1B8
:1055B00000F1080C08FA0CF8C2F8148091F803C046
:1055C000BCF1480F07D100F1080C4FF0010808FAB0
:1055D0000CF8C2F81080401C0828CED35460BDE8F7
:1055E000F0814FF6FF710180022181700421C170AA
:1055F00070470246002093680B400BB1012000E089
:10560000002070470146886880B27047024600203B
:10561000D3680B400BB1012000E000207047014629
:10562000C86880B2704701617047416170470AB134
:10563000016100E041617047C16070474FF4803202
:105640000A43826181618261826982697047024690
:105650000020434B18684FF68073184040EA021050
:1056600008433F4B186070473E49C8617047F0B52A
:105670000A46002300240021002500F00046B6F170
:10568000004F02D1364EF16901E0354E7168C0F32A
:10569000034583B200F44016B6F5401F08D121F04F
:1056A00070612F4E766826F070662D4F7E6012E096
:1056B00000F48016B6F5801F06D1032606FA05F41D
:1056C000A14341F0706106E0460D360103FA06F68B
:1056D000B14341F0706122B1460D360103FA06F67E
:1056E000314300F00046B6F1004F02D11C4EF1618B
:1056F00001E01B4E7160F0BD30B500228B071C0F1E
:105700000F2303FA04F2164B08338C1053F824309D
:105710009343134C08348D1044F8253023468C10E5
:1057200053F824308C07240F00FA04F423430C4C64
:1057300008348D1044F8253030BD0A49DC3108604A
:105740007047000000080140000C014000100140BB
:105750000014014000180140001C014000200140DD
:105760000000014000002042DF48006840F00100D6
:10577000DD49086008464068DC490840DA4948606D
:1057800008460068DA490840D749086008460068BA
:1057900020F4802008600846406820F4FE0048603D
:1057A0004FF41F0088607047CF49096821F48031A9
:1057B000CD4A11601146096821F480211160B0F5CD
:1057C000803F03D0B0F5802F0ED106E0C6490968AE
:1057D00041F48031C44A116007E0C349096841F4CB
:1057E000A021C14A116000E000BF00BF704710B5A2
:1057F00001460022002300204A11012A02D1BA4C9E
:10580000236806E0022A02D1B74C236A01E0B64CB5
:10581000636A01F01F02012494401C400CB1012076
:1058200000E0002010BD38B50020009000240025C5
:1058300000BF3120FFF7DBFF05460098401C0090B9
:105840000098B0F5A06F01D0002DF2D03120FFF705
:10585000CEFF08B1012400E00024204638BD0146F7
:105860000020A14A106820F0F80040EAC100106052
:105870007047A04908607047024600209A4B58685C
:1058800020F47C1042EA01031843974B586070479C
:1058900098490866704701460020934A506820F0F6
:1058A00003000843506070478F48406800F00C00C8
:1058B0007047014600208C4A506820F0F0000843F1
:1058C0005060704701460020874A506820F4E0602D
:1058D00008435060704701460020834A506820F416
:1058E000605040EAC1005060704729B17E4A527A48
:1058F00002437D4B5A7204E07B4A527A82437A4BD0
:105900005A7270477B49D8310860704701460020C1
:10591000754A506820F440400843506070470021A9
:10592000714A20321170704A82F82010012802D08A
:1059300004280AD104E001216B4A2032117005E0ED
:105940000521694A2032117000E000BF00BF704796
:105950006949086070476449096A0143624A1162F3
:105960007047654944390860704730B5002100220E
:10597000002400235C4D6D6805F00C0121B1042961
:1059800005D0082923D105E05C4D056022E05B4D80
:1059900005601FE0544D6D6805F47012524D6D683E
:1059A00005F48034022505EB92421CB9544D554351
:1059B00005600BE04C4D6D6805F400351DB1504D90
:1059C0005543056002E04D4D5543056002E04B4DE7
:1059D000056000BF00BF444D6D6805F0F001090986
:1059E000484D6B5C0568DD4045603F4D6D6805F4D2
:1059F000E061090A434D6B5C4568DD4085603A4DC6
:105A00006D6805F46051C90A3E4D6B5C4568DD4028
:105A1000C560354D6D6805F44041890B3A4D6B5CAE
:105A2000C568B5FBF3F5056130BD29B12E4A526951
:105A300002432D4B5A6104E02B4A526982432A4BA0
:105A40005A61704729B1284A92690243264B9A61EC
:105A500004E0254A92698243234B9A61704729B139
:105A6000214AD2690243204BDA6104E01E4AD2691E
:105A700082431D4BDA61704729B11B4AD268024349
:105A8000194BDA6004E0184AD2688243164BDA6098
:105A9000704729B1144A12690243134B1A6104E09A
:105AA000114A12698243104B1A61704712494039FA
:105AB000086070470F49C86470470B49C871704748
:105AC0000948406A40F080700749486270470146C3
:105AD0000020054A92680A400AB1012000E0002037
