:020000040800F2
:1000000058190020E1010008E9010008EB0100088F
:10001000ED010008EF010008F101000800000000F8
:10002000000000000000000000000000F3010008D4
:10003000F501000800000000F70100080325000892
:10004000FB010008FB010008FB010008FB010008A0
:10005000FB010008FB010008FB010008FB01000890
:10006000FB010008FB010008FB010008FB01000880
:10007000FB010008FB010008FB010008FB01000870
:10008000FB010008FB010008FB010008FB01000860
:10009000FB010008FB010008FB010008FB01000850
:1000A000FB010008FB010008FB010008FB01000840
:1000B000FB010008FB010008FB010008FB01000830
:1000C000FB010008FB010008FB010008FB01000820
:1000D000FB0100085B0F0008F7440008FB01000863
:1000E000FB010008FB010008FB01000800F002F81A
:1000F00000F05EF80AA090E8000C82448344AAF164
:100100000107DA4501D100F053F8AFF2090EBAE861
:100110000F0013F0010F18BFFB1A43F0010318473B
:10012000B47D0000D47D00000A444FF0000C10F8AC
:10013000013B13F0070408BF10F8014B1D1108BF65
:1001400010F8015B641E05D010F8016B641E01F805
:10015000016BF9D113F0080F1EBF10F8014BAD1C55
:100160000C1B09D16D1E58BF01F801CBFAD505E073
:1001700014F8016B01F8016B6D1EF9D59142D6D3CD
:10018000704700000023002400250026103A28BFF5
:1001900078C1FBD8520728BF30C148BF0B607047F9
:1001A0001FB59DE8030007F0C7F91FBD10B510BDCE
:1001B00007F01EFA1146FFF7F3FF00F0BBFD07F052
:1001C0003CFA03B4FFF7F2FF03BC07F06DFA00003E
:1001D000EFF3108072B6704780F31088704700000C
:1001E0000948804709480047FEE7FEE7FEE7FEE7CB
:1001F000FEE7FEE7FEE7FEE7FEE7FEE70448054907
:10020000054A064B70470000FF020008ED00000899
:1002100058130020581900205815002058150020A8
:100220000CB50020019000906D48006840F48030CB
:100230006B49086000BF6A48006800F40030009015
:100240000198401C0190009818B90198B0F5A06F72
:10025000F1D16348006800F4003010B10120009033
:1002600001E0002000900098012843D15D4800681B
:1002700040F010005B4908600846006820F0030069
:1002800008600846006840F0020008605448406872
:10029000534948600846406848600846406840F452
:1002A000806048600846406820F47C10486008463A
:1002B000406840F4E81048600846006840F08070EC
:1002C000086000BF4648006800F000700028F9D0C0
:1002D0004348406820F003004149486008464068B0
:1002E00040F00200486000BF3D48406800F00C004C
:1002F0000828F9D10CBD10B5FFF792FF10BD10B55D
:100300003748006840F001003549086008464068F9
:10031000354908403249486008460068334908407A
:100320002F4908600846006820F4802008600846CD
:10033000406820F4FE0048604FF41F008860FFF71B
:10034000DAFF4FF000602A4908602A48091D08605A
:1003500010BD10B5002100200022214B5B6803F086
:100360000C0121B1042906D0082928D107E0224B2D
:10037000224C236027E0204B204C236023E0184BC5
:100380005B6803F47010164B5B6803F48032022341
:1003900003EB904022B91A4B4343184C23600DE005
:1003A0000F4B5B6803F4003323B1154B4343134CED
:1003B000236003E0104B4343104C236003E00E4BDB
:1003C0000E4C236000BF00BF054B5B68C3F30313F3
:1003D0000C4CE15C094B1B68CB40084C236010BD02
:1003E00000100240002002400000FFF8FFFFF6FE70
:1003F00008ED00E00003FA0500127A00000000207A
:1004000000093D000400002038B500208DF80300ED
:10041000002410E004EB44005F4901EB8000808879
:10042000ADF8000004EB44015B4A52F82100694634
:1004300005F042F9641C0C2CECD338BD10B590B01B
:100440000BA804F0F3FA684604F08EFD4FF4004068
:1004500005F052FB0121084605F0DDFB01214802B1
:1004600005F0E6FB4D4804F0BFFC4D4800904D48B8
:100470000190002002900C20039000200490802026
:100480000590400006908000079020200890000210
:10049000099000200A906946404804F047FD012178
:1004A0003E4804F06EFD00200B9001208DF83000D6
:1004B0008DF831004FF460200D9000200E900C203C
:1004C0008DF83C000BA936484C3804F08CFA002417
:1004D0000DE0601CC2B204EB44002F4B03EB800024
:1004E000017A00232E484C3804F015FB641C0C2CB8
:1004F000EFD301212A484C3804F0ACFA01212848F6
:100500004C3804F09CFA26484C3804F0BAFA00BF84
:1005100023484C3804F0BAFA0028F9D120484C3866
:1005200004F0BEFA00BF1E484C3804F0BEFA0028A2
:10053000F9D101211A484C3804F0C1FA10B010BDAD
:1005400010B5014600220C2091FBF0F400FB1410C2
:10055000C1B20B4604E0134830F8130002440C33D8
:100560000C2BF8D300BF90B210BD10B5FFF74CFFB5
:10057000FFF764FF10BD10B504460C2C02DD4FF6EA
:10058000FF7010BD0C2C03DAE0B2FFF7D9FFF8E7DB
:100590004FF6FF70F5E70000F4760008080002400F
:1005A0004C240140380100202DE9F041024692F828
:1005B000644004F00706002009E0FC4C215CFC4C80
:1005C00034F81140FB4D55F821502C61401C0A288D
:1005D000F3D300233CE0F54FF95CF54F37F8117089
:1005E000DFF8D0C35CF821C0CCF81470002000E024
:1005F000401C2828FCD300BF00BF00BF00240020FF
:1006000013E0ED4F57F82070BF68DFF8B0C33CF837
:1006100010C007EA0C050DB1012700E000273D4698
:1006200005FA00F72743BCB2401C0828E9D3E04F85
:1006300037F81170DFF87CC35CF821C0CCF810707B
:1006400006EB860802F1140707EB4807FC545B1C15
:100650000A2BC0D3546E641C5466BDE8F081F0B51B
:1006600003460C46FF250026002118E000220FE07B
:1006700001EB810003EB4000875C481C00EB80002D
:1006800003EB4000805C874201D0761C02E0521CE4
:100690000A2AEDDB00BF0A2A00D10D46491C0729B2
:1006A000E4DB052E01DD0020F0BD082D01DB00207C
:1006B000FAE705EB850003EB400007682760476811
:1006C0006760008920810120EEE770B502460D4683
:1006D000002366E0581CC4B25FE002EB8300407860
:1006E00000F0F00002EB8406767806F0F006B042E7
:1006F00051D100210FE002EB8300407800F00F00A1
:1007000002EB8106767806F00F06B04201D1012097
:1007100070BD481CC1B29942EDDB581CC1B20FE05C
:1007200002EB8300407800F00F0002EB8106767840
:1007300006F00F06B04201D10120E9E7481CC1B222
:10074000A942EDDB00210FE002EB8400407800F0CD
:100750000F0002EB8106767806F00F06B04201D159
:100760000120D5E7481CC1B2A142EDDB601CC1B23B
:100770000FE002EB8400407800F00F0002EB8106EE
:10078000767806F00F06B04201D10120C0E7481C80
:10079000C1B2A942EDDB601CC4B2AC429DDB581C67
:1007A000C3B2681E984295DC0020B1E72DE9F05FE6
:1007B000074697F8640000F0070007287DD1394606
:1007C00007F11400FFF74BFF8346BBF1000F02D186
:1007D0000020BDE8F09FB94607F10A0A07F1680852
:1007E000002400255DE00020002119F805201AF8FA
:1007F000053082EA030019F805201AF8053002EAEC
:10080000030158B3002627E00122B240024012B390
:10081000082C00DB48E0F02202EA051206F00F0384
:100820001A4308EB84035A70654A02EBC502925DD5
:1008300008F8242019F805200123B3401A4022B1FA
:10084000022208EB84039A7003E0012208EB840380
:100850009A70621CD4B2761C082ED5DB01B3002638
:100860001CE00122B2400A40BAB1082C00DB1BE0B8
:10087000F02202EA051206F00F031A4308EB840384
:100880005A704F4A02EBC502925D08F82420EE220E
:1008900008EB84039A70621CD4B2761C082EE0DB4D
:1008A0006D1C0A2D9FDB00BFD9F80000CAF80000BC
:1008B000D9F80400CAF8040000E00FE0B9F8080015
:1008C000AAF80800042C07DB214607F16800FFF7AF
:1008D000FCFE08B100207CE720467AE7002078E79C
:1008E00038B503208DF8020010208DF80300002495
:1008F00012E0324830F81400ADF800002E4951F8EB
:100900002400694604F0D8FE2C4830F814002A4927
:1009100051F824104861641C082CEAD300BF282039
:100920008DF8030000240BE0244830F81400ADF8E3
:100930000000214951F82400694604F0BDFE641C02
:10094000082CF1D300BF38BD38B503208DF8020064
:1009500010208DF8030000240BE01A4830F8140032
:10096000ADF80000184951F82400694604F0A4FECF
:10097000641C082CF1D338BD38B503208DF8020073
:1009800010208DF8030000240BE0094830F8140013
:10099000ADF80000074951F82400694604F08CFEC8
:1009A000641C0A2CF1D300241CE00000207800080D
:1009B000DC770008B477000884770008A477000883
:1009C0001900002010780008F0770008A44830F8DB
:1009D0001400ADF80000A34951F82400694604F062
:1009E0006BFE641C0A2CF1D338BD002007E09E4941
:1009F00031F810109D4A52F820205161401C0828FF
:100A0000F5D37047002007E0954931F81010954A5A
:100A100052F820201161401C0A28F5D370470020AD
:100A200007E08F4931F810108E4A52F820201161EA
:100A3000401C0A28F5D3704710B5FFF7F0FFFFF709
:100A4000E1FF10BD2DE9F04105460A21E868B0FB41
:100A5000F1F201FB1206AF5DFFF7C7FFFFF7D2FF10
:100A600000240BE00120A040384030B17E4830F82F
:100A700014007E4951F824100861641C082CF1D33D
:100A8000774830F81600774951F826104861701CF5
:100A9000E860BDE8F08110B5FFF722FFFFF754FFD3
:100AA000FFF76AFFFFF7C8FF8821714806F0FEFCD8
:100AB00070480021016041608160C1600A216E4878
:100AC00006F0F4FC6D4800210160416001810A21BB
:100AD0006B4806F0EBFC10BD30B50B4600F007008C
:100AE0000A24B3FBF4F504FB1533624CE1182AB178
:100AF0000C78012585402C430C7004E00C7801250E
:100B00008540AC430C7030BD10B5024602F00702C0
:100B10000A20B1FBF0F400FB14115648435C01209D
:100B20009040184008B1012010BD0020FCE730B50E
:100B30000B4600F007000A24B3FBF4F504FB153361
:100B40004D4CE1182AB10C78012585402C430C70DE
:100B500004E00C7801258540AC430C7030BD10B525
:100B6000484801684848006801F0B6FCB0F5FA7FD3
:100B70001ED900210FE03F4B58183F4B5A5C4AB139
:100B8000424B1B781BB103781343037002E00378D8
:100B900093430370491C0A29EDD33A4B1B683A4C26
:100BA00023603A4B1B7883F00103384C237000BF5D
:100BB00010BD70B50446002504B1FF250A212E485A
:100BC00006F074FC2A460A212A4806F045FC70BD4E
:100BD00010B50A2228492A4806F00CFC2748254966
:100BE0000A6802604A6842600989018110BD10B537
:100BF0000A222349204806F0FDFB1E481F490A68C7
:100C000002604A6842600989018110BD10B58AB04E
:100C10001C48007800F00100D0B90024FFF7E5FE81
:100C20001348FFF7C1FC1248FFF7C0FD0446002C33
:100C30000DDD019401208DF80000A2000C496831FF
:100C400002A806F0D7FB684600F052F800BF00BFCC
:100C5000FFF785FF0748FFF7F5FE0AB010BD00005B
:100C6000DC770008B477000810780008F0770008F7
:100C700050010020D8010020E8010020F2010020EE
:100C8000FC01002084000020140000201800002037
:100C900010B5032308222449244801F0B9FD00249B
:100CA00016E0002004EB44011F4A02EBC101087268
:100CB00004EB84001E4901EBC00004EB440142F840
:100CC0003100282004EB440102EBC1014860641CA0
:100CD000082CE6D310BD10B50121144801F01BFE0D
:100CE00010BD10B504462146104801F04BFE10BD62
:100CF00070B50446002504B970BD0C4801F0C8FD6C
:100D0000054675B128222146286806F02EFB0122EF
:100D10002946064801F0D3FD18B12946034801F0E1
:100D200031FE00BFE8E7000048030020080400206F
:100D30000802002008B500BFFFF7AAFF01F097F8EE
:100D400001F0F6FB01F0FEFB01F02CFC02F07BF958
:100D500000F015F903F0E1FB03F0F8FC03F07AFD75
:100D600001F0F6FB01F087F802F005FC4A4807683D
:100D700000BF49480168384601F0AEFBB0F5FA6F94
:100D8000F7D302F0FEFE03F02FF9FFF7EEFB03F0BE
:100D9000F8F900BF03208DF8020010208DF8030041
:100DA0000120ADF8000069463C4804F085FC0220B3
:100DB000ADF800006946394804F07EFC00BF002011
:100DC000FFF7F7FE01F053F800BFFFF784FF04467A
:100DD00004B903E02046FFF784FFF6E700BF03F005
:100DE00013FA2D48076856E0002000F0DDF80446AD
:100DF000002003F0A7FB0546FFF76DFF064616B17E
:100E0000304601F08DF844B12549204600F0C9FE76
:100E100018B12349204601F03DFB45B12149284640
:100E200000F0BFFE18B11F49284601F033FB3046E1
:100E3000FFF757FF204600F059F9284603F02DFC34
:100E400003F0EDF903F051F803F045FA02F0F3FB7B
:100E500003F0B9FC10480168384601F03DFBB0F5DD
:100E6000FA7F17D90C4807680F48007880F0010214
:100E700001210A4804F0D1FC0B48007880F00102FF
:100E80000221064804F0C9FC0748007880F0010000
:100E90000549087000BFA7E7840000200008014052
:100EA0002C780008BC7E00086900002000B587B0DF
:100EB0000121880304F0BCFE03A806F05DF84FF49E
:100EC000E130039003A9AB4805F0EDFF0121A948EB
:100ED00006F075F84FF40070ADF8080003208DF8A7
:100EE0000A0018208DF80B0002A9A34804F0E4FBC7
:100EF0004FF48060ADF8080004208DF80B0002A9C3
:100F00009D4804F0D9FB25208DF8040004208DF8BD
:100F1000050000208DF8060001208DF8070001A8CB
:100F200003F0D1FC012240F22551924806F053F81B
:100F30000121084604F06FFE43F290008F49486497
:100F40008C48001DC8640020886408650122802147
:100F5000884806F065F807B000BD38B585480488B4
:100F600004F0200050B18348001D0088C0B20090FA
:100F700001226946824801F037FD00BF38BD10B537
:100F8000002310227F49804801F042FC80227F49E3
:100F90007B4801F00BFD4FF480627D497D4800F0F5
:100FA000FFF8FFF783FF10BDF0B585B0054600BF21
:100FB00000270020049004A9714801F05DFD074658
:100FC00007B92CE028E000260020039002900024BE
:100FD00002A903ABCDE9001039466E48049A00F02F
:100FE000F1F8064606B918E0674801F051FC0446DE
:100FF0001CB9304606F047F90FE0266003986060A0
:10100000012020720298A072012221465E4801F060
:1010100056FC0020049000BFD5E700BF00BF00BF12
:1010200000BF00245C480078E8B15448006800F430
:10103000005010B905B149E049E04E48008800F081
:10104000400010B905B141E041E04FF480504B49F8
:1010500048605248007A18B15049086806F013F900
:1010600000204D4908700021474801F054FC044617
:101070005CB36068002801DD206848B9207A20B19F
:10108000206810B1206806F0FEF805B11EE01EE0F1
:101090003A48406C20F00100384948646068886430
:1010A000206808650846406C40F001004864012053
:1010B0003949087018222146384806F09BF9214624
:1010C000314801F05FFC05B100E000E0A9E700BF96
:1010D00000BF002401212C4801F01DFC044614B17E
:1010E000204605B0F0BD00BF0020FAE710B5044669
:1010F00044B1207A10B1206806F0C5F82146224894
:1011000001F040FC10BD2DE9F04105460E46904629
:101110001F46002415B9601EBDE8F0811A4801F091
:10112000B7FB044614B94FF0FF30F5E72560676060
:10113000267200222146144801F0C1FB0020EBE793
:1011400010B504461CB121460F4801F01BFC10BD30
:101150004FF48060704710B5044604B910BD0020FC
:10116000A0810C2060812146024805F09CFE00BF52
:10117000F4E7000000380140000801400000024090
:10118000300600201C0400209C050020B005002033
:1011900048060020480A00206A000020600A00205B
:1011A00070B504460E4615460CB106B115B94FF0A0
:1011B000FF3070BD1821204606F078F92660656082
:1011C0000020F6E72DE9FF4F8DB0044691469A4680
:1011D000DDF86880002700200C9014B1BAF1000FF0
:1011E00003D14FF0FF300C9023E221696068401A70
:1011F000484502D24FF0FF300C90B9F1000F2ED0CD
:101200000E9818B94FF0FF300C90EDE7A06800EB96
:1012100009066068B04214D2D4E90101451AA268F7
:10122000216888182A460E9906F09FF8A9EB050256
:101230000E9B5919206806F098F8A9EB0500A060EC
:1012400009E0A268216888184A460E9906F08DF8D0
:10125000A0684844A06020694844206100BF00BFE6
:1012600000200B900025BDE3E06828440A906168E7
:101270000A98B0FBF1F201FB12000A9021680A986B
:10128000085C09900998AA287DD1002600200890C2
:101290002069401B07900798072806DB606928B182
:1012A000A08AC0F30726207D089085E0E2685019E7
:1012B0002168821C6368B2FBF3FC03FB1C228A5C7E
:1012C000042A78D1C21C6368B2FBF3FC03FB1C2226
:1012D0008A5C002A6FD1421D6368B2FBF3FC03FBFA
:1012E0001C228E5C821D6368B2FBF3FC03FB1C2294
:1012F0008A5C0892079A082A5DDBD4F80CC0AC44DB
:10130000CDF818C005F1070CD4F80CB00CEB0B03AA
:101310004FF0000CCDF814C0069A10E0D4F804C0C9
:10132000B2FBFCFB0CFB1B2CD4F800B01BF80CC070
:10133000DDF814B08CEA0B0CCDF814C0521C9A42A4
:10134000ECD3D4F804C0B3FBFCFB0CFB1B3CD4F87F
:1013500000B01BF80CC0CDF810C0DDE904CBE345AC
:101360001BD005F1010CD4F810B0ABEB0C0CC4F899
:1013700010C005F1010CD4F80CB0DC44C4F80CC06A
:10138000D4F80CC000E03FE1D4F804B0BCFBFBFE95
:101390000BFB1ECCC4F80CC028E3F6B2DDF820C06D
:1013A0000CF0FF0CCDF820C0DDF820C00CEB062CB3
:1013B000C4F814C000BF00BFF6B20898C0B20890CD
:1013C000089800EB062608366068B6EB500F11D976
:1013D000681C2169081A2061681CE1680844E06003
:1013E0006168E068B0FBF1F201FB1200E0600020F0
:1013F000606108E10798864275DC082E75D10020EF
:1014000006900196019805F00FFF07461FB94FF0AF
:10141000FF300C9007E30597E06828440390701EA6
:101420002844E168084402900398049015E061683C
:101430000498B0FBF1F201FB1200216811F800B032
:10144000069880EA0B000690059880F800B0059891
:10145000401C05900498401C04900299049888420E
:10146000E5D361680298B0FBF1F201FB120021683C
:1014700011F800B0069858451FD101200B9005982F
:1014800080F800B0216901982844081A2061E068BA
:10149000411901980844E0606168E068B0FBF1F22E
:1014A00001FB1200E0600198CAF80000B8F1000FDB
:1014B00018D00120C8F8000014E0384605F0E3FE1B
:1014C0000027681C2169081A2061681CE16808442B
:1014D000E0606168E068B0FBF1F201FB1200E060DF
:1014E000002060618FE07FE0FFE70596059805F03A
:1014F0009BFE07461FB94FF0FF300C9093E2E06867
:1015000028446168B0FBF1F201FB120B7019E1682D
:1015100008446168B0FBF1F201FB120006900698E6
:10152000584507D9206800EB0B013246384605F0D4
:101530001CFF11E06068A0EB0B000290206800EB3C
:101540000B013846029A05F010FF029BF21AF818B8
:10155000216805F00AFF00BF00206061A6F10A00C3
:1015600081B207F1080001F06FF8049000200390A9
:10157000B819811E022203A801F042F8BDF80C1030
:10158000049881421CD101200B90216905982844C0
:10159000081A2061E068411905980844E060616814
:1015A000E068B0FBF1F201FB1200E0600598CAF8B8
:1015B0000000B8F1000F16D00120C8F8000012E0BA
:1015C000384605F060FE0027681C2169081A206172
:1015D000681CE1680844E0606168E068B0FBF1F213
:1015E00001FB1200E0600EE02069401B2061E06812
:1015F0002844E0606168E068B0FBF1F201FB120092
:10160000E06001200B90F1E10998FA2870D120697F
:10161000A0EB050BBBF1070F6BDB00200890072048
:101620000390039805F000FE07461FB94FF0FF3006
:101630000C90F8E13E46E06828440590A81DE1685A
:1016400008440490059806900FE060680699B1FB85
:10165000F0F200FB12102168085C07909DF81C0056
:1016600006F8010B0698401C0690049906988842DB
:10167000EBD30220069009E00698385C9DF8201014
:101680000844C0B208900698401C069006980628A8
:10169000F2D360680499B1FBF0F200FB12102168EC
:1016A000085C07909DF820009DF81C10884221D10D
:1016B00001200B909DF81C0030702069039929448B
:1016C000401A2061E068284403990844E06061689A
:1016D000E068B0FBF1F201FB1200E0600398CAF889
:1016E0000000B8F1000F18D00520C8F8000014E081
:1016F00024E013E0384605F0C6FD0027681C216988
:10170000081A2061681CE1680844E0606168E068CC
:10171000B0FBF1F201FB1200E0600EE02069401B1B
:101720002061E0682844E0606168E068B0FBF1F2A5
:1017300001FB1200E06001200B9057E1099800F0D6
:10174000F000802879D12069401B08900898032870
:1017500074DBE06828440790D4E9031000EB010B28
:10176000002006900798861C0DE06068B6FBF0F13B
:1017700000FB11602168085C06900698FF2801D1E3
:10178000B34602E0761C5E45EFD300BF0698FF2803
:1017900055D10798ABEB0000401C102810D900274A
:1017A000681C2169081A2061681CE1680844E0602F
:1017B0006168E068B0FBF1F201FB1200E06063E0F9
:1017C0000798ABEB0000401C0490049805F02CFD3A
:1017D00007461FB94FF0FF300C9024E10597012018
:1017E0000B90079E0CE06068B6FBF0F100FB116106
:1017F0002068415C059801700598401C0590761C96
:101800005E45F0D9216904982844081A2061E068EF
:10181000411904980844E0606168E068B0FBF1F2A7
:1018200001FB1200E0600498CAF80000B8F1000F54
:1018300002D00420C8F8000026E036E025E0079832
:10184000ABEB0000102810D30027681C2169081A90
:101850002061681CE1680844E0606168E068B0FBF2
:10186000F1F201FB1200E0600EE02069401B2061F4
:10187000E0682844E0606168E068B0FBF1F201FBD9
:101880001200E06001200B900EE02069401B2061F7
:10189000E0682844E0606168E068B0FBF1F201FBB9
:1018A0001200E06001200B90A0E00998A52871D1FA
:1018B0002069A0EB050BBBF10B0F6CDB002008903F
:1018C0000B200390039805F0AFFC07461FB94FF0BB
:1018D000FF300C90A7E03E46E0682844059005F1F3
:1018E0000A00E16808440490059806900FE06068DB
:1018F0000699B1FBF0F200FB12112068405C0790E2
:101900009DF81C0006F8010B0698401C06900499EF
:1019100006988842EBD30120069009E00698385CCF
:101920009DF820100844C0B208900698401C06900C
:1019300006980A28F2D360680499B1FBF0F200FB24
:1019400012102168085C07909DF820009DF81C107B
:10195000884221D101200B909DF81C003070206935
:1019600003992944401A2061E068284403990844F7
:10197000E0606168E068B0FBF1F201FB1200E0603A
:101980000398CAF80000B8F1000F18D00620C8F874
:10199000000014E024E013E0384605F074FC002752
:1019A000681C2169081A2061681CE1680844E0602D
:1019B0006168E068B0FBF1F201FB1200E0600EE04C
:1019C0002069401B2061E0682844E0606168E068AD
:1019D000B0FBF1F201FB1200E06001200B9005E08A
:1019E00000BF6D1C2069A8423FF63EAC00BF2069D5
:1019F000A8420FD10B9868B900202061E068284404
:101A0000E0606168E068B0FBF1F201FB1200E060A9
:101A1000002060610B9800B103E0206900283FF7C7
:101A20001FAC00BF00BF1B9810B11B990C98086039
:101A3000384611B0BDE8F08F10B501460B78FC4C6C
:101A400024680CB1092200E00722012002E00C5CAE
:101A50006340401C9042FADB0B5410BD2DE9FF435C
:101A600081B08846DDF830900024B8F1000F03D132
:101A7000002005B0BDE8F083DDE9030100FB01F7BC
:101A800007F11006304605F0CFFB04460CB90020E4
:101A9000EFE73146204605F0E7FCAA20207004203D
:101AA000A0700020E070A6F10800009002226946B4
:101AB000601D00F0A5FD2046FFF7BEFF04F10805FC
:101AC000022201A9284600F09BFD022203A9A81CBE
:101AD00000F096FD022204A9281D00F091FD3A466F
:101AE0004146A81D05F041FCB81D81B2284600F012
:101AF000ABFD0090A91DC8190222694600F080FDC7
:101B0000B9F1000F01D0C9F800602046B1E7F8B57F
:101B100006460F4614461D462346012239463046E6
:101B20000095FFF79BFFF8BD70B505460C46ADB1BB
:101B3000A4B1204605F078FB064676B12246294638
:101B4000304605F012FC2346032201213046FFF700
:101B5000DAFA10B1304605F096FB00BF70BD704751
:101B600070472DE9F04105460E461446BDB1B6B1A9
:101B7000ACB1204605F058FB07467FB122463146FE
:101B8000384605F0F2FB2346032201213846D5F8FA
:101B900014C0E04710B1384605F075FB00BFBDE842
:101BA000F0812DE9F04F8FB007460C4601200E90D2
:101BB0001FB9801E0FB0BDE8F08F3D682878AA28B5
:101BC00002D04FF0FF30F5E7A8780C287AD1E878FA
:101BD000802878D100200C900D9000260B904FF0BB
:101BE00001094FF0010A8346AA208DF830000C202D
:101BF0008DF8320080208DF8330001208DF83400FC
:101C0000A8790D2860D2DFE800F05F0708165F248E
:101C10005F5F5F385F3A4B0000BFA8798DF83600F0
:101C2000082005F001FB064616B94FF0000950E008
:101C300008200B904DE008A800F0E9FF4FF0000AE3
:101C40000BAB0C2208A948F20300FFF760FF064621
:101C50003FE000200A902CB1206918B1206980472C
:101C600080B20A904FF0000A0BAB02220AA948F298
:101C70000500FFF74CFF06462BE000F018FC4FF084
:101C8000FF300A9000F0CEFF0A904FF0000A0BAB35
:101C900004220AA948F20B00FFF739FF064618E0B4
:101CA0000FF290184FF0000A404605F03FFB401C31
:101CB0000BAB024641460A9048F20C00FFF727FFA3
:101CC000064606E030E0CBE04FF0000900200E9021
:101CD00000BF00BFB9F1000F20D0FEB1BAF1000F74
:101CE00006D00CA8FFF7A8FE0C9830600D98706025
:101CF0001CB9304605F0C7FA10E0606918B93046E3
:101D000005F0C1FA0AE0D4F814C0032201213046DC
:101D10000B9BE04710B1304605F0B5FABBF1000F60
:101D200001D000F0C4FB9BE0A87804287ED10020FD
:101D30000D9080460E900222691D0DA800F060FCF7
:101D400005F108060D98801E0D9082E04FF0000905
:101D500000200C904FF0010A0B900A90099002228B
:101D600031460BA800F04CFC0222B11C0AA800F07E
:101D700047FC0222311D09A800F042FCBDF82C00EE
:101D8000A0F500400A3858BB06F1060B01A800F088
:101D90003EFF4FF0FF3000F045FF0090012301A906
:101DA00004A8009A00F064FF1022594604A805F028
:101DB00091FA38B9002008900022012104A800F00F
:101DC0007DFF02E04FF0FF3008900CAB042208A921
:101DD00048F20A00FFF79BFE814601200E9000E0CA
:101DE00000BF00BFBAF1000F18D0B9F1000F15D035
:101DF0001CB9484605F047FA10E0606918B9484632
:101E000005F041FA0AE0D4F814C003220121484643
:101E10000C9BE04710B1484605F035FABDF82800A4
:101E2000BDF824104843801D80440DE016E00000FA
:101E30008800002059415F5553425F415544494F46
:101E40005F3139313131300005F1080000EB08060F
:101E500000BF0D988045FFF479AF01E000200E909F
:101E60000E9808B10020A5E64FF0FF30A2E6002052
:101E7000FD4908707047704770477047014600225F
:101E8000012003E00B5C1344DAB2401C0628F9DBA6
:101E90000A5470472DE9F0410546002726E005F178
:101EA000080000EB8706B078EE2800D11DE096F818
:101EB0000080EE4C0020206060602081AA2020700D
:101EC000E948007860700720A070B078012800D140
:101ED000207100BF00BF00BF2046FFF7ADFD082204
:101EE00021460020FFF73DFE00BF7F1C6868B84216
:101EF000D5D80120BDE8F08170B50546DB4C0CB9A2
:101F0000002070BD00202060606020812046FFF727
:101F100093FD082221460020FFF723FE0120F0E771
:101F200070B505462C682078052801DB002070BDBF
:101F30002078CF4951F8200030B120780A4652F875
:101F4000201020468847F2E70020F0E72DE9F04F07
:101F500087B081468846B9F1000F03D1002007B051
:101F6000BDE8F08FD9F80040A078062875D1BF4EA3
:101F70004FF0000A002006904FF0010B0120059061
:101F8000AA2030700620B0708020F07001203071DF
:101F9000E078462872D008DC40280FD0412834D0A1
:101FA00043285BD044286AD16CE0502868D0802850
:101FB00067D0812871D0C128F5D161E1142005F0E6
:101FC00033F9074600200590F7B100250CE004A97D
:101FD000284601F098FC07F815509DF8100007EB13
:101FE00045014870681C85B2072DF0DB06A8022366
:101FF0000722394600904FF4C860FFF72FFD824654
:10200000384605F040F900BF4EE1062005F00CF916
:10201000074600200590FFB100250DE004A9E81D4A
:1020200001F071FCE81D07F815009DF8100007EBA2
:1020300045014870681C85B2032DEFDB06A802231A
:1020400003223946009040F24160FFF707FD8246C7
:10205000384605F018F900BF26E153E165794FF0E5
:10206000000B082D00DB1FE105EB0512814901EB98
:10207000420002F0AFF800F0AEFF15E116E00EE10D
:102080004CE070E065794FF0000BFF2D02D102F0BB
:10209000C0F809E1082D01DB06E193E005EB05122C
:1020A000744901EB420002F07BF8FDE0A079FF28C3
:1020B00026D100200490042005F0B6F80746002041
:1020C0000590E7B104A802F039F8002507E007F809
:1020D000155004A8405D07EB450148706D1C022DAA
:1020E000F5DB06A8032302223946009040F2466041
:1020F000FFF7B4FC8246384605F0C5F800BF0CE097
:1021000020790511607908B9012000E00020074618
:102110003946284602F0C9F800BFC5E0207910B161
:102120002079812808D1607901F048FAA07901F07E
:1021300059FA0020059015E0207901280AD1502095
:10214000F0708120307101F05CFA707101F05FFA7B
:10215000B07107E05020F070A2796179207901F028
:10216000FEF87071A0E01E2005F05EF80746002022
:10217000059037B3002514E004A9284601F04DFA74
:1021800005EB45017D549DF8100005EB45013944F0
:1021900048709DF8110005EB450139448870681CB2
:1021A00085B20A2DE8DB06A803230A2239460090EF
:1021B0004FF4D060FFF752FC8246384605F063F8D2
:1021C00000BF71E02CA103C9CDE903012A2005F06D
:1021D0002BF8074600200590F7B300251DE003A863
:1021E000405D05EB450107F81100002101EB4501B9
:1021F00088B2FEF7C0F905EB450107EB41014880C5
:10220000012101EB450188B2FEF7B5F905EB450167
:1022100007EB41018880681C85B2062DDFDB05EBEA
:10222000450007EB400105EB450007EB400050F887
:10223000062D0A608088888003A8405D05EB450173
:1022400007F8110006A8062307223946009040F23D
:102250008160FFF703FC00E004E08246384605F0A9
:1022600012F800BF20E000006C000020780A002077
:1022700070000020920A00200001020304080900F7
:102280002079152806D1A07908B9012000E00020A6
:102290008D4908704FF0000B0020059004E04FF0CE
:1022A000000B0020059000BF00BFBBF1000F09D05C
:1022B000059838B13046FFF7BFFB0822314640464B
:1022C000FFF74FFCBBF1000F1BD0BAF1000F18D085
:1022D000B8F1000F03D1504604F0D5FF11E0D8F853
:1022E000140018B9504604F0CEFF0AE0D8F8145094
:1022F000032201215046069BA84710B1504604F026
:10230000C2FFC5E0A0780428FBD1002006908246D9
:102310000222611D06A800F073F904F10805069871
:10232000801E0690AFE04FF0000B002005900120CA
:10233000049000200390029001900222294603A8F5
:1023400000F05EF90222A91C02A800F059F902224D
:10235000291D01A800F054F9BDF80C00B0F5C86FB4
:1023600007D0A0F24160A8B1052824D03F285ED153
:1023700037E0AF1D002608E007EB4602517817F85A
:10238000160001F0EEFA701C86B2BDF80800864215
:10239000F2DB4DE0AF1D002608E007EB4602517866
:1023A00017F8160001F0DDFA701C86B2BDF80800BF
:1023B0008642F2DB3CE0AF1D00260DE007EB460253
:1023C00052780AB1012200E00022114617F81600E7
:1023D00001F06BFF701C86B2BDF808008642EDDB91
:1023E00026E0AF1D00261DE03748007828B906EB2F
:1023F0004600385C052800D112E006EB4600384460
:1024000040788DF8000006EB4600384480788DF85F
:10241000010006EB4601785C009901F057FD00BF12
:10242000701C86B2BDF808008642DDDB00E000BF0C
:1024300000BF0498D8B1BBF1000F18D0B8F1000F5D
:1024400003D1584604F01FFF11E0D8F8140018B962
:10245000584604F018FF0AE0D8F81460032201215E
:102460005846059BB04710B1584604F00CFFBDF824
:102470000800BDF804104843801D824404F10800A0
:1024800000EB0A0500BF06988245FFF44CAF00BF81
:10249000012064E570B504460D46A07A012804D1F8
:1024A00029462046FFF752FD70BD0020FCE7074893
:1024B000006800F4E06006490843001D0349086015
:1024C000BFF34F8F00BFFEE76E0000200CED00E071
:1024D0000000FA0500BFFEE70246914201D3881AC8
:1024E0007047C2F1FF300844FAE70246914202DB2E
:1024F000881A80B270474FF6FF70801A084480B285
:10250000F8E70A480068401C08490860704710B5A1
:1025100003464FF08040848C00BF4FF08040818C98
:102520002046FFF7E2FF9842F7DB10BD8400002051
:1025300010B50121080703F088FB01217D2003F07D
:1025400077FB10BD10B50121284803F086F910BDB6
:1025500030B5274800684FF47A72B0FBF2F1B1F160
:10256000807F00D31DE021F07F40401E4FF0E0222D
:10257000506150170F22002807DA13071D0E1D4B5C
:1025800000F00F04241F1D5503E013071C0E1A4B07
:102590001C5400BF00204FF0E02290610720106122
:1025A00000BF30BD3EB5124800681449B0FBF1F0E1
:1025B000401E84B20121084603F047FB684604F040
:1025C00021F94FF6FF70ADF80400ADF8004000208F
:1025D000ADF80600ADF8020069464FF0804003F008
:1025E000E5FD0121880704F03DF93EBD0002300001
:1025F0000000002018ED00E000E400E040420F0081
:1026000010B50346002004E0141A641E0C5D1C542F
:10261000401C9042F8D310BD30B502460B464FF037
:10262000FF3002B103B930BD002108E0C4B2555CEF
:102630006C40734D55F8244084EA1020491C99429F
:10264000F4D3C04300BFEEE770B502460C46FF2549
:10265000FF2312B94FF6FF7070BD09E012F8010BAD
:1026600080EA03016748405C80EA05036648455CF0
:10267000201EA4F10106B4B2F0D143EA0520EBE735
:102680002DE9F04F03460C46944600221D680026B3
:10269000DFF87891012C57DD601E53F8202034209C
:1026A00090FBF4F000F1060846E04E44C6F38107C3
:1026B00000211FE0481C53F82050500980EA850093
:1026C0004FEAD50A8AEA021A504486EA050A01F05E
:1026D000030B8BEA070B5CF82BB08BEA020BDA4496
:1026E00080EA0A0053F821A0504443F8210053F82F
:1026F0002120491C601E8842DCDC1D68500980EAEC
:1027000085004FEAD50A8AEA021A824486EA050061
:1027100001F0030B8BEA070B5CF82BB08BEA020B82
:1027200058448AEA000A601E53F820008244601E62
:1027300043F820A053F82020B8F10000A8F10108C8
:10274000B3DC0020BDE8F08FB4F1FF3F56DA6442FD
:10275000601E53F82020342090FBF4F000F10608AE
:1027600008FB09F646E0C6F38107611E20E0481E1B
:1027700053F82020500980EA85004FEAD50A8AEAFA
:10278000021A504486EA050A01F0030B8BEA070B94
:102790005CF82BB08BEA020BDA4480EA0A0053F8AB
:1027A00021A0AAEB000043F8210053F82150491E54
:1027B0000029DCDC601E53F82020500980EA8500E7
:1027C0004FEAD50A8AEA021A504486EA050A01F05D
:1027D000030B8BEA070B5CF82BB08BEA020BDA4495
:1027E00080EA0A00D3F800A0AAEB000018601D6878
:1027F000A6EB0906002EB6D10020A3E70120A1E731
:1028000054780008547C0008547D0008B979379E3C
:102810002DE9F04707460C46164698464FF000094A
:1028200017B10CB1002E03DA4FF0FF30BDE8F0878E
:10283000FDF7CEFC814606EB4600C100204604F0C1
:1028400035FE1421384604F031FE002510E005EB7A
:10285000450004EBC000A0F80C8005EB450004EB3C
:10286000C000183005EB450104EBC10108616D1C87
:10287000701EA842EBDC002005EB450104EBC10112
:1028800008617E603C604846FDF7A6FC0020CDE76D
:1028900070B50446002600250CB9002070BDFDF778
:1028A00097FC0646206828B125682869206000202A
:1028B000686128613046FDF78FFC2846EEE72DE978
:1028C000F04106460C46174606B11CB94FF0FF30E2
:1028D000BDE8F0814FF0000817B106F10C0001E0EF
:1028E00006F110000546FDF773FC8046286818B90C
:1028F0002C606461246109E02868206128684069CF
:102900000461286840696061286844614046FDF7B9
:1029100063FC0020DCE72DE9F04105460F464FF04F
:102920000008002615B90020BDE8F08117B105F1B7
:102930000C0001E005F110000446FDF749FC80465B
:10294000206808B9002618E0266820680069216818
:10295000884202D1002020600CE020684069216894
:10296000096948612068006921684969086120682F
:10297000006920600020706130614046FDF72CFC4A
:102980003046D1E770B504460D4604B115B94FF095
:10299000FF3070BD0026FDF71BFC0646206828614D
:1029A00025603046FDF718FC0020F2E72DE9F041E4
:1029B00004460D461646002704B11DB94FF0FF30FE
:1029C000BDE8F081FDF704FC07461821204604F01D
:1029D0006DFD25607008A060A068284460603846DE
:1029E000FDF7FAFB0020EBE72DE9F04704460F4620
:1029F00015464FF00008C14604B11FB94FF0FF3033
:102A0000BDE8F087FDF7E4FB80466169A068461ADF
:102A1000B54202D94FF0FF3929E0E0682844A168A7
:102A200088420FD9D4E90201461AE2682168881861
:102A30003246394604F099FCAA1BB919206804F003
:102A400094FC06E0E268216888182A46394604F0BA
:102A50008CFCE0682844E060D4E90210B0FBF1F29D
:102A600001FB1200E06060692844606100BF4046DD
:102A7000FDF7B2FB4846C3E72DE9F04104460D4699
:102A8000002714B90020BDE8F081606908B9002072
:102A9000F9E7FDF79DFB0746D4E904010844A16866
:102AA000884211D92169A068461A23692268D11881
:102AB0003246606804F059FC63699A1BD4E900133C
:102AC000981904F052FC06E0266923689919626996
:102AD000606804F04AFCD4E9040108442061A1685C
:102AE0002069B0FBF1F201FB120020610DB16069B9
:102AF0002860002060613846FDF76EFB6068C2E721
:102B00002DE9F0410646042702F0B7FA02F021FD54
:102B100004466EB1FE4961EA04050846A0438842B6
:102B200017D002F074FB284602F031FC00F0BCFA2A
:102B3000F7482043C543F649C94344EA0100401C15
:102B400038B102F064FB15B1284602F020FC00F019
:102B5000ABFA02F09EFABDE8F0812DE9F74F04468A
:102B600090460426DDF804B028F00300404502D06A
:102B7000701FBDE8FE8FA40AA40204EB080902F04E
:102B80007CFA08F2FF304FEA902A352002F010FD5F
:102B9000002707E04FF4806101FB074002F0B2FA22
:102BA00006467F1C574501D2042EF3D0042E00D0D8
:102BB00026E02546002708E038467F1C5BF82010F9
:102BC000284602F06FFB06462D1D4D4501D2042E0E
:102BD000F2D0042E00D013E025460426002708E09A
:102BE0002A6838467F1C5BF82000824200D002260B
:102BF0002D1D4D4501D2042EF2D102F03EFA00BF48
:102C0000042E02D04FF0FF30B3E70020B1E770B5DB
:102C1000044634B10C252A46BE49204604F0EAFB9E
:102C200000BF70BD2DE9F04107460026BA4D0024D3
:102C300015E055F82400401C78B9601C55F82000B8
:102C4000401C50B9A01C55F82000401C28B9E01CBD
:102C500055F82000401C00B903E0361D641CBE423C
:102C6000E7D300BF3146AC48FFF7D6FCBDE8F081A2
:102C70002DE9FF4104460D4616461F4604B125B90D
:102C80004FF0FF3004B0BDE8F08195E807008DE813
:102C9000070003964FB19DE80F0084E80F006A46D5
:102CA00004212046FFF7ECFC06E09C4820606A46C1
:102CB00001212046FFF7E4FC0020E3E72DE9F04383
:102CC0008BB006460F46154626B94FF0FF300BB0C5
:102CD000BDE8F0834FF00409E84696E80F0001AC28
:102CE0000FC417B18E48009009E08C480090002076
:102CF000CDE9065001AA022106A8FFF7C1FC002079
:102D00000890002405E058F82410089848400890DE
:102D1000641C082CF7D302F0B0F9342002F048FC10
:102D2000804802F0EFF98146E846002410E058F8A8
:102D300024107C4A02EB840002F0B4FA8146B9F117
:102D4000040F04D002F0A5F94FF0FF30BFE7641C78
:102D50000A2CECD302F09DF90020B8E72DE9F043EE
:102D600087B0054688466F4C6F480068401CB0B974
:102D70006E48FFF74CFF4FF0FF30FFF753FF6A49F3
:102D8000086000230846694902686948FFF770FF38
:102D900001236548654902686648FFF769FF664890
:102DA000007800287CD15D492068884203D05C49C6
:102DB0002068884267D1DFF86C910027002603E085
:102DC00059F826004740761C082EF9D3206AB842ED
:102DD00058D152492068884238D155480068616806
:102DE000884224D1D4E90601CDE90401221D6FF007
:102DF000010104A8FFF744FC0020DDE90421D2F121
:102E00000302884103D204204B4908700EE0484B6E
:102E10000FCB8DE80F0004994A1C4FF00001684663
:102E2000FFF74CFF01204449087000BF2AE0404BE7
:102E30000FCBCDE90423CDE902010422002102A831
:102E4000FFF73CFF04203C4908701BE01022211DC5
:102E5000384804F03FFA18B903203749087011E0E8
:102E6000334BD3E901211868DB68CDE90413CDE9C0
:102E700002020422002102A8FFF720FF04202E49AD
:102E8000087000BF0CE02A4B0FCB02AE0FC6002229
:102E9000114602A8FFF712FF01202749087000BF62
:102EA00025480078012831D1244801682448006869
:102EB000FFF712FB44F62061884227D9D4E90601C6
:102EC000CDE90401201D0FC88DE80F001B480068E4
:102ED0001B490860221D6FF0010104A8FFF7D0FB19
:102EE0000498421C4FF000016846FFF7E7FE0020FF
:102EF000DDE90421D2F10302884102D204200E4907
:102F0000087015B141460220A84700BF0A4819E0E1
:102F1000F8FFFF01E8F7FF1F0030000867452301B5
:102F2000EFCDAB890090010894000020E80B002051
:102F3000040C0020F40B00208C00002084000020F2
:102F4000900000200078042821D11022211D5D4826
:102F500004F0C0F928B903205B49087007B0BDE848
:102F6000F08315B141460420A847584801685848E5
:102F70000068FFF7B1FA44F62061884207D9534848
:102F800000685349086015B141460520A84700BFB5
:102F9000E4E770B50446042502F06FF800BF342062
:102FA00002F006FB02F033F90546042D00D005E0DF
:102FB0002146484802F0C7F9054600BF00BF02F0AD
:102FC00068F8042D01D1002070BD4FF0FF30FBE701
:102FD0004048007870472DE9F0414FF00408002583
:102FE0003D4E3E4F4AF2A55031460880002404E091
:102FF00036F81400284485B2641CAB2CF8D336484C
:10300000A0F8565102F039F8342002F0D1FA3348D2
:1030100002F078F8804600240FE036F814103846A5
:1030200002F073F98046B8F1040F04D002F031F8D1
:103030000020BDE8F081BF1C641CAC2CEDD302F075
:1030400028F80120F5E770B50025234E4FF4AC7247
:103050002249304604F089F9304600884AF2A551E9
:10306000884200D00FE0002404E036F81400284421
:1030700085B2641CAB2CF8D31748B0F85601A842AF
:1030800000D170BD00BF002408E004EB0412124917
:10309000891C01EB420001F09DF8641C0A2CF4D35A
:1030A000FFF799FF00BFECE70D48006800F4E0600F
:1030B0000C490843001D0A490860BFF34F8F00BF49
:1030C000FEE70000F40B00208C00002084000020AC
:1030D0009000002004F8FF1F900A002000940108CF
:1030E0000CED00E00000FA0508B50720009002E0B2
:1030F0000098401E009000980028F9D108BD10B536
:103100008020C949086040200860FFF7EDFFC648ED
:103110000838006808B9012000E0002000F08000B5
:1031200008B1002010BD8020BF49091D0860FFF7CD
:10313000DBFFBD480838006800F0800008B10020BF
:10314000F0E78020B849091D0860FFF7CDFF012096
:10315000E8E710B54020B449091D0860FFF7C4FF37
:103160008020B149091D0860FFF7BEFF4020AE492D
:103170000860FFF7B9FF8020AB490860FFF7B4FF94
:1031800010BD10B54020A849091D0860FFF7ACFF2D
:103190008020A549091D0860FFF7A6FF4020A2492D
:1031A0000860FFF7A1FF40209F49091D0860FFF755
:1031B0009BFF10BD10B540209B49091D0860FFF71B
:1031C00093FF802098490860FFF78EFF40209649C2
:1031D0000860FFF789FF40209349091D0860FFF749
:1031E00083FF10BD10B540208F49091D0860FFF70F
:1031F0007BFF80208C490860FFF776FF40208A49DA
:103200000860FFF771FF88480838006800F0800008
:1032100028B140208449091D0860002010BD4020CD
:103220008149091D08600120F8E770B504460825AA
:1032300019E040207C49091D0860FFF755FF04F0A4
:10324000800018B180207849086003E0802076492A
:10325000091D08606006040EFFF746FF4020724912
:103260000860FFF741FF281EA5F10101CDB2E0D1B2
:1032700040206D49091D086070BD70B50825002407
:1032800080206949086014E06006040E4020664909
:10329000091D0860FFF728FF402063490860FFF719
:1032A00023FF61480838006800F0800008B144F04E
:1032B0000104281EA5F10101CDB2E5D140205A49F3
:1032C000091D0860204670BD08B502208DF8020077
:1032D00014208DF803004020ADF8000069465248E4
:1032E000103802F0E9F98020ADF8000069464E4838
:1032F000103802F0E1F908BD70472DE9F0410546AC
:103300000E4617469846FFF7FAFE10B90020BDE8B2
:10331000F081002141EA4501C8B2FFF786FFFFF7BF
:1033200061FF18B9FFF715FF0020F0E73046FFF7FF
:103330007CFFFFF757FF00240BE018F80400FFF7AD
:1033400074FFFFF74FFF18B9FFF703FF0020DEE718
:10335000641CBC42F1DBFFF7FCFE0120D7E770B52F
:1033600004460D461646FFF7CAFE10B94FF0FF306F
:1033700070BD002141EA4401C8B2FFF756FFFFF7D4
:1033800031FF20B9FFF7E5FE6FF00100F0E72846B6
:10339000FFF74BFFFFF726FF3046FFF746FFFFF72B
:1033A00021FFFFF7D6FE0020E2E72DE9F0410546B8
:1033B0000F4614461E46FFF7A2FE10B90020BDE8D6
:1033C000F081002141EA4501C8B2FFF72EFFFFF767
:1033D00009FF18B9FFF7BDFE0020F0E73846FFF7F8
:1033E00024FFFFF7FFFEFFF78AFE012101EB4501F5
:1033F000C8B2FFF71AFFFFF7F5FE0CE0FFF73DFF3D
:103400003070012C02D1FFF7D5FE01E0FFF7B9FEC5
:10341000761C601EC4B2002CF0D1FFF79AFE01208A
:10342000CDE7002070470000100C01402DE9FC4161
:1034300004460D461A26C5F30805EFB2600040EABF
:103440002520C4B2002000900190AA208DF8000031
:1034500006208DF8020050208DF803008DF80460DE
:103460008DF805408DF806706846FEF7E5FA0822EB
:103470006946F848FEF775FB3A4621463046FFF7A5
:103480006EFFBDE8FC8110B586B00121880302F013
:10349000DCFB01A802F0E5FC4FF48270ADF80600F9
:1034A0004FF40060ADF808001820ADF810004FF49C
:1034B0000070ADF80E0001A9E74802F043FC0121BD
:1034C000E54802F0E4FC4FF42040ADF80000032092
:1034D0008DF8020018208DF803006946DF4802F0DD
:1034E000EBF84FF48040ADF8000004208DF80300A5
:1034F0006946DA4802F0E0F84020ADF800001020FC
:103500008DF803006946D64802F0D6F80122402122
:10351000D34802F082F98020ADF8000010208DF829
:1035200003006946CE4802F0C7F84FF48050ADF86A
:10353000000010208DF803006946C84802F0BCF86E
:1035400001221103C54802F068F900228021C44815
:1035500002F063F9C348046800BFC248016820460E
:10356000FEF7BAFF6428F8D301228021BC4802F09C
:1035700054F906B010BD08B503208DF802001020E4
:103580008DF80300ADF800006946B44802F094F8E5
:103590002020ADF800006946B04802F08DF8002206
:1035A0001021AE4802F039F900222021AB4802F088
:1035B00034F9FFF789FEFFF766FF08BD70B50546D1
:1035C0000026A948448D05F01F0504F0C0042C43D3
:1035D00021461520FFF72AFF06460EB9A24844856A
:1035E000304670BD70B50446002504F0070421463E
:1035F0001620FFF71BFF05460DB99B48848528461A
:1036000070BD994890F82A0000F01F007047964856
:1036100090F82C0000F00700704702460A2A00D2FA
:1036200011B94FF0FF307047904800EB420000881E
:1036300008800020F7E72DE9FC418D48007800283C
:103640007ED00025B0E08B4E00224FF4805183489D
:1036500002F0E3F800BF02217F4802F09CFC002842
:10366000F9D0002418E0C4F1060036F810107A48AA
:1036700002F03EFC00BF0221774802F08CFC0028DB
:10368000F9D000BF0121744802F085FC0028F9D070
:10369000714802F02FFC641C072CE4D301221103B3
:1036A0006E4802F0BAF8002D7DD10027002474E0A6
:1036B0000020019080466F4800EB440040788DF870
:1036C00005006C4810F814008DF80400694800EB00
:1036D0004400407800F0200098B3674800EB4400B5
:1036E000407800F0200060B3624800EB440040786E
:1036F00000F00300032837D05E4800EB4400407818
:1037000000F003005C4901EB4401497801F003013A
:10371000884229D05948035D4FF001085848C35CDE
:1037200069461846FFF779FF524800EB440040789D
:1037300000F0010068B112204E4901EB440101E0A4
:103740003EE011E048709DF801004A4901F814007C
:1037500009E01120474901EB440148709DF8000041
:10376000444901F8140000BF9DF80500424901EBEF
:10377000440148709DF804003F4901F81400B8F175
:10378000000F01D0012707E000203A4901EB440176
:103790004870384901F81400641C072C88D30FB90D
:1037A00005E000E000BF6D1C022DFFF44CAF00BF30
:1037B0000E21304803F07AFE00202D49087000BF2A
:1037C000BDE8FC81F0B50246072A02DB4FF0FF306E
:1037D000F0BD032902DD4FF0FF30F9E72848845C93
:1037E0002848055D8D4201D10120F1E7012D01D16D
:1037F000022903D0012904D1022D02D14FF0FF305C
:10380000E6E72148835C59B913201A4E06EB4306BC
:103810007070164810F81400164E06F8130009E0F0
:10382000084600F00F0646F02006124F07EB43074C
:103830007E7000BF1348015501200D4E30700020EE
:10384000C6E7F0B504460A46072C1FDB4FF0FF30F1
:10385000F0BD00002C78000800380040000C01404A
:10386000001001408400002098000020C8000020C3
:10387000F0000020140C00202C0C00205B7E0008BF
:10388000627E0008220C0020547E0008FE48015D84
:10389000FE4810F81160964201D10120F0BDFC48AD
:1038A000455C032D08D1F94800EB41004270F74810
:1038B00000F811200120F1E7F648035DF64800F812
:1038C0001320012D05D11220F34F07EB4307787029
:1038D0000CE0022D05D11120EF4F07EB4307787064
:1038E00004E01320EC4F07EB43077870E74800EB48
:1038F00041004270E54800F811200120E74F387080
:103900000020CBE7704702460A2A00D211B94FF0D7
:10391000FF307047DE48805C08700020F9E770B522
:1039200004460A252A46DA49204603F01EFD70BDEA
:1039300070B504460D4616460A2C01D2072D02DB4F
:103940004FF0FF3070BDD64850F8240030B1D44855
:1039500050F82420314628469047F3E74FF0FF30D7
:10396000F0E770B504460D46002229462046FFF7D1
:10397000DFFF70BD70B50546002404E0295D2046D8
:10398000FFF7EFFF641C0A2CF8DB70BD70B505462D
:103990000E46C448448D032D02DD4FF0FF3070BD4C
:1039A0002EB9BB484079A84201D10020F7E704F0C6
:1039B0003F0435B1012D05D0022D06D0032D0AD1CB
:1039C00006E00BE044F0800408E044F0400405E029
:1039D00044F0C00402E04FF0FF30E0E700BF2146B2
:1039E0001520FFF723FD10B14FF0FF30D7E7AD48AA
:1039F0004485A74845710020D1E770B505460E46BD
:103A0000A848C489072D02DB4FF0FF3070BD2EB9E6
:103A10009F488079A84201D10020F7E704F00F0405
:103A2000072D18D2DFE805F004070A0D0E11140067
:103A300044F0900412E044F080040FE044F01004DD
:103A40000CE00BE044F0D00408E044F0B00405E0E2
:103A500044F0F00402E04FF0FF30D7E700BF21460A
:103A60000720FFF7E3FC10B14FF0FF30CEE78D48A1
:103A7000C481874885710020C8E770B504460E46AA
:103A80008848458B042C02DB4FF0FF3070BD2EB907
:103A90007F48C079A04201D10020F7E705F0F70583
:103AA00014B1032C04D100E005E045F0080502E064
:103AB0004FF0FF30EAE700BF29460D20FFF7B6FCC4
:103AC00010B14FF0FF30E1E7764845837048C4718C
:103AD0000020DBE7F0B504460D461746072C02DB55
:103AE0004FF0FF30F0BD6848065D1FB96848805D43
:103AF000A84203D029462046FFF764FE6448855556
:103B00000020EFE730B504460D462A462146002046
:103B1000FFF7E0FF30BD30B504460D462A4621468A
:103B20000120FFF7D7FF30BD30B504460D462A46C9
:103B300021460220FFF7CEFF30BD30B504460D46CA
:103B40002A4621460320FFF7C5FF30BD30B50446A5
:103B50000D462A4621460420FFF7BCFF30BD30B594
:103B600004460D462A4621460520FFF7B3FF30BD27
:103B700030B504460D462A4621460620FFF7AAFF27
:103B800030BD10B5FFF7BEFE002405E00122002184
:103B90002046FFF7CDFE641C0A2CF7D310BD7047FA
:103BA00073B50D462DB99DF800003849897A8842D1
:103BB00015D03C48848B9DF8006004F47F44344366
:103BC00021460E20FFF732FC10B14FF0FF307CBDD4
:103BD000344884839DF800002C49887200BF2DB9B9
:103BE0009DF801102948C07A814215D02D48C48B18
:103BF0009DF8016004F47F44344321460F20FFF711
:103C000015FC10B14FF0FF30E1E72648C4839DF862
:103C100001101E48C17200BF0020D8E773B50D46E1
:103C20009DF800009DF80110884219D11D48448973
:103C300004F47F4444F480749DF80000044321465A
:103C40000520FFF7F3FB10B14FF0FF307CBD1548A6
:103C500044819DF800100D48017341730020F5E781
:103C60002DB99DF800000949097B884229D00D48EB
:103C7000C48804F47F4444F480749DF80000044335
:103C80002146032010E00000627E0008C8000020EA
:103C9000220C0020547E0008140C0020F0000020AC
:103CA0006C7E000898000020FFF7C0FB10B14FF0B9
:103CB000FF30CBE7FE48C4809DF80000FD49087343
:103CC00000BF2DB99DF80110FA48407B814217D002
:103CD000F748048904F47F4444F480749DF801009B
:103CE000044321460420FFF7A1FB10B14FF0FF3041
:103CF000ACE7EF4804819DF80110EE48417300BF26
:103D00000020A3E773B50D469DF800009DF8011053
:103D100088421BD1E64884884FF68070044044F402
:103D200080749DF8000044EA600421460220FFF7F9
:103D30007DFB10B14FF0FF307CBDDD4884809DF8E5
:103D40000010DC488173C1730020F5E72DB99DF8A0
:103D50000000D849897B884219D0D54804884FF69D
:103D60008070044044F480749DF8000044EA6004CC
:103D700021460020FFF75AFB10B14FF0FF30DBE780
:103D8000CB4804809DF80000CA49887300BF2DB954
:103D90009DF80110C748C07B814219D0C4484488AF
:103DA0004FF68070044044F480749DF8010044EAAA
:103DB000600421460120FFF739FB10B14FF0FF30BE
:103DC000BAE7BB4844809DF80110BA48C17300BFF0
:103DD0000020B1E7F7B5054616469DF804009DF8AA
:103DE000051008444708072D02DB4FF0FF30FEBDE9
:103DF000B148445D3EB99DF80500AE4901EB440170
:103E00004978884203D039462846FFF71AFDA94869
:103E100000EB44004770A74800F814700020E6E764
:103E200013B50C46224600200099FFF7D3FF1CBDB6
:103E300013B50C46224601200099FFF7CBFF1CBDAD
:103E400013B50C46224602200099FFF7C3FF1CBDA4
:103E500013B50C46224603200099FFF7BBFF1CBD9B
:103E600013B50C46224604200099FFF7B3FF1CBD92
:103E700013B50C46224605200099FFF7ABFF1CBD89
:103E800013B50C46224606200099FFF7A3FF1CBD80
:103E900037B5044615460A2C02D34FF0FF303EBD1D
:103EA000864850F8240030B1844850F82420294630
:103EB00001989047F3E74FF0FF30F0E713B5044661
:103EC000002220460199FFF7E3FF1CBD03B502461F
:103ED0000A2A02D34FF0FF300CBD794800EB4200B4
:103EE000BDF8041001800020F6E738B57548016878
:103EF00075480068FEF7F0FA0A2853D9714800683F
:103F00007149086000244AE000200090694620467C
:103F1000FFF783FB6A4800EB44010222684603F086
:103F2000D9F9D8B39DF80000654911F814108842FA
:103F300006DD9DF80000401EC0B28DF800000CE0C8
:103F40009DF800005E4911F81410884205DA9DF8CA
:103F50000000401CC0B28DF800009DF801005849D7
:103F600001EB44014978884206DD9DF80100401EBE
:103F7000C0B28DF801000DE09DF80100504901EB41
:103F800044014978884205DA9DF80100401CC0B21E
:103F90008DF8010020460099FFF790FF641C0A2C61
:103FA000B2D300BF38BD70B5044614252A46414936
:103FB000204603F0DAF970BD38B50546002410E05C
:103FC00005EB44000088014600902046FFF776FF8D
:103FD00005EB44000088014600902046FFF776FF7D
:103FE000641C0A2CECDB38BD38B5FFF7D8FD002483
:103FF0000AE0304800EB44000088012201460090AE
:104000002046FFF745FF641C0A2CF2D338BD38B5B3
:1040100003208DF8020010208DF8030000242AE010
:1040200004EB4402294B03EB8202918804EB440227
:1040300053F82200002201F0F0FB04EB4400234976
:1040400001EB80008088ADF8000004EB44011F4ABA
:1040500052F82100694601F02FFB04EB44021B4B90
:1040600003EB8202918804EB440253F82200002201
:1040700001F0D3FB641C022CD2DB38BD704770B555
:1040800004460D46022C02D34FF0FF3070BD04EB06
:1040900044000E4901EB8000457204EB440001EB43
:1040A0008000007AA84237D02E4604EB44020FE08D
:1040B00098000020C8000020627E0008947E00085E
:1040C000DC0000208400002010010020F40000200B
:1040D0000B4603EB8202918804EB440253F8220062
:1040E000324601F09AFB04EB4400C94901EB800021
:1040F000057244B93146062000F0BCFB314607206A
:1041000000F0B8FB07E03146042000F0B3FB314675
:10411000052000F0AFFB00BF0020B7E70246022AEF
:1041200000D211B94FF0FF30704702EB4200B84B9C
:1041300003EB8000407A08700020F5E730B50546B3
:10414000002404E029192046FFF7E8FF641C022C34
:10415000F8DB30BD70B50546002404E0295D20463B
:10416000FFF78DFF641C022CF8DB70BD0020A9490D
:10417000C8700121A74801710221C1730321017494
:10418000704710B5FFF743FFFFF7F0FF002404E08E
:1041900000212046FFF773FF641C022CF8D310BDEA
:1041A00070B505462C4604B970BD04F11400FFF744
:1041B000E1FB2046FFF700FF04F11E00FFF7CAFFF6
:1041C00094F82000FFF7FAF994F82100FFF70AFAB3
:1041D00000BFE9E770B505462C4604B970BD04F18F
:1041E0001400FFF79CFB2046FFF7DDFE04F11E00E4
:1041F000FFF7A4FFFFF705FA84F82000FFF707FA9E
:1042000084F8210000BFE9E710B58348FFF7C8FF35
:1042100010BD10B580482230FFF7C2FF10BD10B5A9
:104220007E4801687E480068FEF756F9642800D28F
:1042300010BD7A4800687A4908602221794803F065
:1042400013F97848FFF7C6FF22227649764803F033
:1042500041F858B122227349734803F086F80120CF
:10426000724908706D480068714908606F480078AD
:10427000C8B16A4801686E480068FEF72DF943F638
:10428000982188420FD922226349674803F022F817
:1042900030B122226449604803F067F8FEF79BFEC4
:1042A00000206249087000BFC2E710B5022811D291
:1042B000002200EB4003574C04EB83039A7000EBA1
:1042C0004002234603EB82025170012200EB4003BF
:1042D00004F8232010BD2DE9F0410027002486E0DA
:1042E00004EB44004B4911F8200000287ED0012740
:1042F00004EB440001EB8000807820B1012836D027
:10430000022871D158E00025FFF77BF904EB440146
:10431000404A02EB81014871064646480078FF2872
:1043200004D14548067000204249087000250AE083
:1043300004EB4400374901EB8000C01C415D0120C3
:10434000884086436D1C022DF2DB3046FFF736F9BC
:104350003248006804EB44012E4A02EB8101886078
:10436000012004EB440102EB810188703DE004EB85
:104370004401284A02EB8101886828490968FEF750
:10438000ABF8282800D230E004EB4400214A02EBCD
:10439000800041782046FFF772FE2048006804EB59
:1043A00044011C4A02EB81018860022004EB4401B5
:1043B00002EB8101887018E004EB4401154A02EB1E
:1043C0008101886815490968FEF786F841F288314D
:1043D000884202D209E009E006E0002004EB440133
:1043E0000C4A02F8210000E000BF00BF641C022C50
:1043F000FFF676AF57B90F480078FF2806D00E4871
:104400000078FFF7DBF8FF200A490870BDE8F0816B
:10441000F40000203C0C0020A20B002084000020AF
:104420001C010020760C0020540C002014010020F8
:10443000180100200C0100200D01002000B587B0FC
:104440000121480401F001FC03A802F095FD4FF49E
:10445000E130039003A9B24802F025FD0121B048E4
:1044600002F0ADFD0420ADF8080003208DF80A002D
:1044700018208DF80B0002A9AA4801F01DF90820A8
:10448000ADF8080004208DF80B0002A9A54801F042
:1044900013F926208DF8040004208DF80500002073
:1044A0008DF8060001208DF8070001A800F00BFA36
:1044B000012240F225519A4802F08DFD0121084663
:1044C00001F0A9FB43F29000974908609448001D51
:1044D00095498039C1F8880000209349091D08607A
:1044E00091498039C1F88C00012280218C4802F06A
:1044F00097FD07B000BD38B58948048804F0200056
:1045000050B18748001D0088C0B200900122694662
:104510008648FEF769FA00BF38BD10B501231022A6
:1045200083498448FEF774F9802283497F48FEF767
:104530003DFA4FF4806281498148FCF731FEFFF774
:104540007DFF10BDF0B585B0054600BF00270020F7
:10455000049004A97548FEF78FFA074607B92CE0C6
:1045600028E00026002003900290002402A903AB5B
:10457000CDE9001039467248049AFCF723FE06463E
:1045800006B918E06B48FEF783F904461CB93046BB
:1045900002F079FE0FE0266003986060012020722F
:1045A0000298A072012221466248FEF788F9002095
:1045B000049000BFD5E700BF00BF00BF00BF0024CC
:1045C00060480078F8B158488038006800F0007002
:1045D00010B905B151E051E05148008800F04000A9
:1045E00010B905B149E049E04FF080704E4980397B
:1045F00048605548007A18B15349086802F043FEF4
:1046000000205049087000214A48FEF784F904460A
:104610008CB36068002801DD206848B9207A20B199
:10462000206810B1206802F02EFE05B125E025E0DB
:104630003D48006820F001003B490860091D6068A2
:104640000860394980392068C1F88C000846D0F8E4
:10465000800040F0010034490860012039490870A9
:1046600018222146384802F0C5FE21463148FEF79F
:1046700089F905B101E0FFE700E0A0E700BF00BF56
:10468000002401212B48FEF746F9044614B12046C8
:1046900005B0F0BD00BF0020FAE710B5044644B1F4
:1046A000207A10B1206802F0EEFD21462148FEF785
:1046B00069F910BD2DE9F04105460E4690461F46AA
:1046C000002415B9601EBDE8F0811A48FEF7E0F835
:1046D000044614B94FF0FF30F5E725606760267295
:1046E000002221461348FEF7EAF80020EBE710B558
:1046F00004461CB121460F48FEF744F910BD4FF4A3
:104700008060704710B5044604B910BD0020A08138
:104710000C2060812146024802F0C5FB00BFF4E78F
:10472000004400400008014080000240AC0E002020
:10473000980C0020180E00202C0E0020C40E002023
:10474000C412002020010020DC12002008B5032044
:104750008DF8020010208DF803000001ADF8000074
:104760006946524800F0A8FF00224FF400414F482C
:1047700001F053F84FF40070ADF8000069464C4862
:1047800000F09AFF01225102494801F046F84FF427
:104790008070ADF800006946454800F08DFF0122A9
:1047A0001102434801F039F84FF40040ADF8000021
:1047B00069463E4800F080FF00224FF400413B482C
:1047C00001F02BF808BD2DE9F041012239493A48A2
:1047D00002F080FD00283BD007241DE0E51004F026
:1047E00007063448405D304100F0010008B1002761
:1047F00000E001273A464FF480712C4801F00DF893
:1048000000224FF400712A4801F007F801225102FA
:10481000274801F002F8641E002CDFDA00224FF472
:104820008071234800F0F9FF01221102204800F0B6
:10483000F4FF012251021E4800F0EFFF0122110295
:104840001B4800F0EAFF1C481A490978017000BFB4
:10485000BDE8F08110B5174800210170FF22012149
:10486000154802F0F9FDFFF7AEFF10BD1148002119
:104870000170704730B502460B46082A00DB30BD98
:10488000D01002F007013BB90A4C245C01258D4091
:10489000AC43084D2C5406E0064C245C01258D40A9
:1048A0002C43044D2C5400BFE9E7000000080140F0
:1048B0000010014021010020220100203149014364
:1048C000314A1160704770B5002100230F22C4786F
:1048D00004B32D4C246804F4E064C4F5E064210AB8
:1048E000C1F10403CA40447804FA03F18478144007
:1048F00021430901254C0678A155047804F01F05D1
:104900000124AC4005786D11AD0005F1E025C5F836
:10491000004109E0047804F01F050124AC401C4D5F
:104920000678761145F8264070BD1A4A0A400243BF
:10493000154B1B1F1A60704739B1134A121D1268BC
:104940000243114B1B1D1A6006E00F4A121D12682C
:1049500082430D4B1B1D1A607047042808D14FF08D
:10496000E021096941F004014FF0E022116107E004
:104970004FF0E021096921F004014FF0E0221161BC
:10498000704700000000FA050CED00E000E400E0D4
:1049900080E100E080FFFF1F10B50446FA48844222
:1049A00008D10121401501F05DF90021601501F0E9
:1049B00059F917E0F548844208D10121001501F0AA
:1049C00051F90021201501F04DF90BE0F048844227
:1049D00008D10121C80301F045F900214FF400403E
:1049E00001F040F910BD30B50246002000235068A8
:1049F000E84C20400D790C6844EA052420435060BF
:104A00009068E54C2040D1E902542C434D7944EAAA
:104A1000450420439060D06A20F470000C7C641E32
:104A2000E4B2234340EA0350D06230BD002101606C
:104A3000017141718160C16001210174704721B130
:104A4000826842F00102826003E0826822F0010283
:104A50008260704721B1826842F48072826003E014
:104A6000826822F480728260704710B50023CBB256
:104A70001AB144681C43446002E044689C434460AB
:104A800010BD816841F00801816070470146002037
:104A90008A6802F008020AB1012000E00020704795
:104AA000816841F0040181607047014600208A68F6
:104AB00002F004020AB1012000E00020704721B199
:104AC000826842F4A002826003E0826822F4A002BD
:104AD00082607047014600208A6802F480020AB1B1
:104AE000012000E00020704710B50A460021002395
:104AF000416821F46041531E41EA4331416010BDD9
:104B000021B1426842F40062426003E0426822F44C
:104B1000006242607047F0B504460D460020002157
:104B2000092D11DDE068A5F10A0606EB4607072608
:104B300006FA07F18843A5F10A0606EB460603FAD2
:104B400006F10843E0600CE0206905EB4507072605
:104B500006FA07F1884305EB450603FA06F1084318
:104B60002061072A0FDA606B561E06EB86071F26A8
:104B700006FA07F18843561E06EB860605FA06F18B
:104B80000843606322E00D2A0FDA206BD61F06EB84
:104B900086071F2606FA07F18843D61F06EB86060E
:104BA00005FA06F10843206310E0E06AA2F10D0661
:104BB00006EB86071F2606FA07F18843A2F10D06C9
:104BC00006EB860605FA06F10843E062F0BD21B166
:104BD000826842F48012826003E0826822F48012CC
:104BE000826070470146C86C80B2704766484C309E
:104BF0000068704721B1426842F48062426003E07D
:104C0000426822F480624260704721B1426842F4F7
:104C10008052426003E0426822F480524260704752
:104C20000A460021816821F4E04111438160704708
:104C300021B1826842F40042826003E0826822F47B
:104C400000428260704721B1826842F402128260A1
:104C500003E0826822F4021282607047014600205D
:104C60008A6802F400120AB1012000E000207047B7
:104C7000F0B504461546002000220026092911DD62
:104C8000E068A1F10A0707EB470C072707FA0CF2C7
:104C90009043A1F10A0707EB470703FA07F2104315
:104CA000E0600CE0206901EB410C072707FA0CF2E9
:104CB000904301EB410703FA07F210432061A06B18
:104CC000C0F30156EF1C06F1010CA7EB0C0707EB34
:104CD000870C1F2707FA0CF29043EF1C06F1010C1A
:104CE000A7EB0C0707EB870701FA07F21043A06355
:104CF000F0BD10B50A4600210023816B21F440115C
:104D0000531E41EA0351816310BD08B5002300938F
:104D10000090009B0B440093009B1A6008BD08B5EF
:104D2000024600200090009201F12800009B1844E8
:104D300000900098006880B208BD0A4600214168D2
:104D4000164B1940114341607047416282627047BF
:104D50000A460021416821F01F011143416070475C
:104D600040B109490831096841F40001064A083296
:104D7000116007E004490831096821F40001024A82
:104D800008321160704700000024014000280140F3
:104D9000003C0140FFFEF0FFFDF7F1FFFFFD3FFF8C
:104DA0000246002013680B400BB1012000E00020F8
:104DB0007047CA430260704770B502460020002366
:104DC00000240B125568CEB205EA060415681D4092
:104DD00015B10CB1012000E0002070BD00220A12C4
:104DE000D34303607047000001684FF6FE72114024
:104DF00001600021016041608160C1608D4988428D
:104E000008D18C490839496841F00F01894A083AAC
:104E100051608AE087491431884208D185490839B0
:104E2000496841F0F001834A083A51607DE08149C8
:104E30002831884208D17F490839496841F47061B6
:104E40007C4A083A516070E07A493C31884208D186
:104E500078490839496841F47041764A083A516006
:104E600063E074495031884208D172490839496871
:104E700041F470216F4A083A516056E06D4964313F
:104E8000884208D16B490839496841F47001694A80
:104E9000083A516049E067497831884208D165494C
:104EA0000839496841F07061624A083A51603CE053
:104EB0006149884206D1011F096841F00F01021FB4
:104EC000116032E05C491431884208D15A49091F07
:104ED000096841F0F001584A121F116025E0564957
:104EE0002831884208D15449091F096841F470618A
:104EF000514A121F116018E04F493C31884208D1D5
:104F00004D49091F096841F470414B4A121F116055
:104F10000BE049495031884207D14749091F0968C8
:104F200041F47021444A121F1160704710B50022ED
:104F3000026847F6F0739A430C6A8B6823430C6946
:104F400023434C6923438C692343CC6923434C6A34
:104F500023438C6A23431A430260CB6843600B6887
:104F600083604B68C36010BD0021016041608160B7
:104F7000C160016141618161C1610162416281621F
:104F8000704721B1026842F00102026004E0026849
:104F90004FF6FE731A40026070471AB103680B4364
:104FA000036002E003688B43036070474160704711
:104FB0000146486880B2704701460020002201F097
:104FC00080531BB11C4B083B1A6802E0194B083B8D
:104FD0001A6802EA01030BB1012000E000207047CB
:104FE00000F0805119B11449091F086002E011490D
:104FF00008394860704701460020002201F08053C4
:105000001BB10D4B083B1A6802E00A4B083B1A68BB
:1050100002EA01030BB1012000E00020704700F01C
:10502000805119B10449091F086002E0014908399B
:105030004860704708000240080402400146002012
:10504000FE4A106800F03800084310607047FB49C2
:10505000096821F00801F94A116011460968014305
:1050600011607047F549096821F01001F34A116099
:1050700011460968014311607047F148EF494860E3
:10508000F04848607047EE48EC494860ED48486099
:105090007047EA48006940F08000E84908617047BD
:1050A000E648006940F08000E44908617047042048
:1050B000E249C96801F0010109B101200EE0DF49B0
:1050C000C96801F0040109B1022007E0DB49C968A1
:1050D00001F0100109B1032000E00420704700B581
:1050E00002460423FFF7E3FF034603E0FFF7DFFF79
:1050F0000346521E012B01D1002AF7D102B9052324
:10510000184600BD30B5044604254FF43020FFF7A3
:10511000E6FF0546042D17D1C848006940F002009B
:10512000C649086108464461006940F040000861D2
:105130004FF43020FFF7D3FF0546C048006941F621
:10514000FD710840BD490861284630BD10B50424F2
:105150004FF43020FFF7C3FF0446042C16D1B748A4
:10516000006940F00400B54908610846006940F054
:10517000400008614FF43020FFF7B1FF0446AF480C
:10518000006941F6FB710840AC490861204610BD3A
:1051900000B502460423FFF78AFF034603E0FFF74A
:1051A00086FF0346521E012B01D1002AF7D102B916
:1051B0000523184600BD10B504244FF43020FFF736
:1051C000E7FF0446042C16D19C48006940F0040017
:1051D0009A4908610846006940F0400008614FF4B0
:1051E0003020FFF7D5FF04469448006941F6FB7173
:1051F000084092490861204610BD00208F49C969C6
:1052000001F0020109B1012000E00020704730B533
:10521000A5250424FFF7F1FF00B100254FF430204D
:10522000FFF75DFF0446042C3AD185488349886026
:10523000844888600846006940F0200008610846FC
:10524000006940F0400008614FF43020FFF747FF4D
:105250000446042C1BD17948006941F6DF710840EF
:10526000764908610846006940F0100008617648F8
:105270000580E002FFF733FF0446052C10D06F488D
:10528000006941F6EF7108406C49086108E0052C9F
:1052900006D06A48006941F6EF7108406749086125
:1052A000204630BD78B506460C4604250020009007
:1052B000E802FFF714FF0546042D24D15F4800697A
:1052C00040F001005D4908613480E802FFF707FF04
:1052D0000546042D10D1B01C0090200C00990880C8
:1052E000E802FFF7FCFE05465448006941F6FE71EE
:1052F00008405249086106E05048006941F6FE71D5
:1053000008404E490861284678BD70B504460D46F0
:105310000426F002FFF7E3FE0646042E11D14748AB
:10532000006940F00100454908612580F002FFF75F
:10533000D6FE06464148006941F6FE7108403F49E5
:105340000861304670BD70B505460E460424E00283
:10535000FFF7C5FE0446042C17D139483749886049
:10536000384888600846006940F0100008612E80C7
:10537000E002FFF7B4FE0446052C06D02F48006972
:1053800041F6EF7108402D490861204670BD2DE9B6
:10539000F04304464FF6FF763746B046B146042543
:1053A000E443E6B2C4F30727C4F307484FEA14699D
:1053B000E802FFF794FE0546042D49D120481F4915
:1053C0008860204888600846006940F01000086145
:1053D000FF2E06D01C4808300680E802FFF77FFE4B
:1053E0000546042D08D1FF2F06D017480A30078044
:1053F000E802FFF774FE0546042D0AD1B8F1FF0F4D
:1054000007D011480C30A0F80080E802FFF767FED3
:105410000546042D0AD1B9F1FF0F07D00A480E3016
:10542000A0F80090E802FFF75AFE0546052D0FD0C0
:105430000248006941F6EF71084007E00020024091
:1054400023016745AB89EFCD00F8FF1F664908616E
:105450002846BDE8F08330B5054604244FF43020DB
:10546000FFF73DFE0446042C41D160485E49886048
:105470005F4888600846006940F0200008610846DF
:10548000006940F0400008614FF43020FFF727FE2C
:105490000446042C22D15448006941F6DF710840CB
:1054A000514908610846006940F0100008611DB1CB
:1054B00000205049088002E0A5204E4908804FF4A2
:1054C0003020FFF70CFE0446052C10D0464800693A
:1054D00041F6EF7108404449086108E0052C06D008
:1054E0004148006941F6DF7108403F4908612046A4
:1054F00030BDF0B505460E46174604243B483A49F0
:1055000088603B488860E002FFF7E9FD0446042C10
:1055100019D13548006940F010003349086147F05F
:10552000F800304328433349891C0880E002FFF724
:10553000D6FD0446052C06D02B48006941F6EF71D4
:105540000840294908612046F0BD2748C069800805
:1055500070472548006A704700202349096801F018
:10556000200109B1012000E00020704729B11E4A46
:10557000126902431C4B1A6104E01B4A1269824300
:10558000194B1A61704701460020012908D1164ABB
:10559000D26902F001020AB1012008E0002006E011
:1055A000114AD2680A400AB1012000E00020704789
:1055B0000D49C860704704200B49C96801F001011A
:1055C00009B101200EE00849C96801F0040109B1E0
:1055D000022007E00449C96801F0100109B1032065
:1055E00000E00420704700000020024023016745CE
:1055F000AB89EFCD00F8FF1F10B50446CC488442BC
:1056000008D10121042000F02DFB0021042000F02E
:1056100029FB46E0C748844208D10121082000F058
:1056200021FB0021082000F01DFB3AE0C248844223
:1056300008D10121102000F015FB0021102000F0FE
:1056400011FB2EE0BD48844208D10121202000F04A
:1056500009FB0021202000F005FB22E0B84884422D
:1056600008D10121402000F0FDFA0021402000F087
:10567000F9FA16E0B348844208D10121802000F0F5
:10568000F1FA0021802000F0EDFA0AE0AE488442F1
:1056900007D10121801500F0E5FA0021A01500F0E6
:1056A000E1FA10BD10B50121084600F0DBFA002137
:1056B000012000F0D7FA10BD2DE9F0410246002587
:1056C0000026002000230024002791F803C00CF0DE
:1056D0000F0591F803C00CF0100CBCF1000F03D0C3
:1056E00091F802C04CEA050591F800C0BCF1000F2A
:1056F00031D0146800202BE04FF0010C0CFA00F3BD
:10570000B1F800C00CEA03069E4220D183004FF09E
:105710000F0C0CFA03F7BC4305FA03FC4CEA040433
:1057200091F803C0BCF1280F06D14FF0010C0CFA20
:1057300000FCC2F814C00AE091F803C0BCF1480FA5
:1057400005D14FF0010C0CFA00FCC2F810C0401C4F
:105750000828D1D31460B1F800C0BCF1FF0F34DDCC
:10576000546800202EE000F1080C4FF0010808FA00
:105770000CF3B1F800C00CEA03069E4221D183006D
:105780004FF00F0C0CFA03F7BC4305FA03FC4CEA8C
:10579000040491F803C0BCF1280F05D100F1080CF6
:1057A00008FA0CF8C2F8148091F803C0BCF1480F55
:1057B00007D100F1080C4FF0010808FA0CF8C2F804
:1057C0001080401C0828CED35460BDE8F0814FF60D
:1057D000FF710180022181700421C170704702466F
:1057E000002093680B400BB1012000E000207047BF
:1057F0000146886880B2704702460020D3680B409B
:105800000BB1012000E0002070470146C86880B25B
:10581000704701617047416170470AB1016100E062
:1058200041617047C16070474FF480320A43826122
:105830008161826182698269704702460020434B20
:1058400018684FF68073184040EA021008433F4B37
:10585000186070473E49C8617047F0B50A4600239A
:1058600000240021002500F00046B6F1004F02D1CF
:10587000364EF16901E0354E7168C0F3034583B2DD
:1058800000F44016B6F5401F08D121F070612F4E8C
:10589000766826F070662D4F7E6012E000F4801668
:1058A000B6F5801F06D1032606FA05F4A14341F0A0
:1058B000706106E0460D360103FA06F6B14341F089
:1058C000706122B1460D360103FA06F6314300F04D
:1058D0000046B6F1004F02D11C4EF16101E01B4EB3
:1058E0007160F0BD30B500228B071C0F0F2303FA47
:1058F00004F2164B08338C1053F824309343134CA6
:1059000008348D1044F8253023468C1053F8243089
:105910008C07240F00FA04F423430C4C08348D1038
:1059200044F8253030BD0A49DC310860704700007A
:1059300000080140000C014000100140001401402B
:1059400000180140001C01400020014000000140FF
:1059500000002042DF48006840F00100DD49086097
:1059600008464068DC490840DA4948600846006853
:10597000DA490840D74908600846006820F48020CA
:1059800008600846406820F4FE0048604FF41F009D
:1059900088607047CF49096821F48031CD4A116091
:1059A0001146096821F480211160B0F5803F03D0D1
:1059B000B0F5802F0ED106E0C649096841F4803168
:1059C000C44A116007E0C349096841F4A021C14AF3
:1059D000116000E000BF00BF704710B50146002213
:1059E000002300204A11012A02D1BA4C236806E0A4
:1059F000022A02D1B74C236A01E0B64C636A01F077
:105A00001F02012494401C400CB1012000E0002042
:105A100010BD38B5002000900024002500BF3120C3
:105A2000FFF7DBFF05460098401C00900098B0F59A
:105A3000A06F01D0002DF2D03120FFF7CEFF08B1CA
:105A4000012400E00024204638BD01460020A14A80
:105A5000106820F0F80040EAC10010607047A049CB
:105A600008607047024600209A4B586820F47C106A
:105A700042EA01031843974B5860704798490866FB
:105A8000704701460020934A506820F00300084305
:105A9000506070478F48406800F00C007047014626
:105AA00000208C4A506820F0F00008435060704796
:105AB00001460020874A506820F4E06008435060A7
:105AC000704701460020834A506820F4605040EA45
:105AD000C1005060704729B17E4A527A02437D4B23
